:100000000C9492000C94BA000C94BA000C949C0FBF
:100010000C949C0F0C949C0F0C94BA000C94BA0096
:100020000C94BA000C94BA000C94BA000C94BA0068
:100030000C94BA000C94BA000C94BA000C94BA0058
:100040000C94520F0C94BA000C94BA000C94BA00A1
:100050000C94BA000C94BA000C94BA000C94BA0038
:100060000C9414100C94BA00CDCCCC3D0AD7233C90
:1000700017B7D13877CC2B329595E6241FB14F0AAC
:100080000000803FCDCCCC3D6F12833A95BFD63374
:100090007D1D9026B3CE010C000020410000C84217
:1000A00000401C4620BCBE4CCA1B0E5AAEC59D74F7
:1000B00000000000240027002A00000000080002C1
:1000C00001000003040700000000000000003034BD
:1000D0003A31373A3031004E6F76203239203230A3
:1000E000323000000000002300260029000000003C
:1000F00000250028002B0004040404040404040266
:1001000002020202020303030303030102040810B4
:100110002040800102040810200102040810200081
:100120003311DF1811241FBECFEFD8E0DEBFCDBFE3
:1001300026E0A4E3B4E001C01D92A039B207E1F7C4
:1001400014E0A0E0B1E0E8EEF0E402C005900D920A
:10015000A433B107D9F710E0C1E9D0E004C021977A
:10016000FE010E94B11BC039D107C9F70E941A12C3
:100170000C9467200C940000CF93DF93FC01138E46
:10018000128E118E108E178A168A8DE991E0958F46
:10019000848F84858631E0F52DEB30E0378B268B1C
:1001A0002BE931E0318F208F2CE231E0338F228F29
:1001B00090916800883008F456C021E08E3008F431
:1001C00020E081E001C0880F2A95EAF7892B80930F
:1001D000680094852DE630E0983050F02BE630E052
:1001E0009E3030F02CE630E0963110F030E020E028
:1001F000348B238B292F30E09830B8F581E001C093
:10020000880F9A95EAF7858B848D958D0197F1F784
:10021000828D938D892B21F1A091EB04B091EC0498
:10022000EA17FB07E9F0109751F05396CD91DC9156
:100230005497988155968C91809589238883868DD3
:100240008E7F868F1092EA041092E904F093EC04FA
:10025000E093EB04A389B4898C919589892B8C93C5
:10026000DF91CF91089584E0B1CF9E3040F42850C3
:10027000310981E001C0880F2A95EAF7C4CF2E50DA
:100280003109F7CF96E0899FD0011124A75BBA4FBF
:1002900090967C936E935F9791E091969C93919743
:1002A000E091B605F091B7059091B505992339F025
:1002B000309751F0811108C08091650509943097FD
:1002C00019F05C968C91FACF0895CF92DF92EF925D
:1002D000FF920F931F9396E0899FF0011124E75B33
:1002E000FA4F11A2278D30A12130310551F178F05C
:1002F0002230310509F451C02330310509F452C0D0
:100300001F910F91FF90EF90DF90CF90089566239B
:10031000B9F361E070E00E9442012FB7F894809138
:10032000E5049091E604A091E704B091E8042FBFA2
:100330008093A1059093A205A093A305B093A40573
:10034000DFCF9FB7F894C090E504D090E604E0902A
:10035000E704F090E8049FBF0091A1051091A20569
:100360002091A3053091A405C01AD10AE20AF30A2C
:100370000091B3051091B40530E020E00C151D0587
:100380002E053F0550F462E070E01F910F91FF9041
:10039000EF90DF90CF900C9442016111B1CF63E0F8
:1003A00070E0F3CF70E060E0F0CF08950895089515
:1003B000DB0114964D915C9115976D917C91DC0158
:1003C000ED91FC910280F381E02D0994AF92BF92F0
:1003D000CF92DF92EF92FF920F931F93CF93DF9311
:1003E0006C017B018B01040F151FEB015E01AE1840
:1003F000BF08C017D10759F06991D601ED91FC9162
:100400000190F081E02DC6010995892B79F7C5018E
:10041000DF91CF911F910F91FF90EF90DF90CF90E0
:10042000BF90AF900895833081F028F4813099F027
:100430008230A9F008958730A9F08830C9F084305F
:10044000B1F4809180008F7D03C0809180008F7710
:1004500080938000089584B58F7784BD089584B516
:100460008F7DFBCF8091B0008F778093B00008958F
:100470008091B0008F7DF9CFCF93DF93282F30E0AC
:10048000F901E654FF4F8491F901E55FFE4FD491E5
:10049000F901E950FF4FC491CC23A1F081110E94D2
:1004A0001302EC2FF0E0EE0FFF1FED51FF4FA5916F
:1004B000B491EC91ED2381E090E009F480E0DF91CC
:1004C000CF91089580E090E0FACF862F0C943C0203
:1004D0001F93CF93DF93282F30E0F901E654FF4FAD
:1004E0008491F901E55FFE4FD491F901E950FF4F86
:1004F000C491CC23A9F0162F81110E941302EC2F76
:10050000F0E0EE0FFF1FE351FF4FA591B4918FB7BD
:10051000F894EC91111108C0D095DE23DC938FBFC5
:10052000DF91CF911F910895DE2BF8CF862F642F96
:100530000C946802CF93DF9390E0FC01E55FFE4FDF
:10054000249189509F4FFC0184918823C9F090E049
:10055000880F991FFC01E055FF4FA591B491FC0154
:10056000E351FF4FC591D49161110DC09FB7F8942D
:100570008C91209582238C938881282328839FBF88
:10058000DF91CF910895623051F49FB7F8943C9178
:10059000822F809583238C93E8812E2BEFCF8FB70A
:1005A000F894EC912E2B2C938FBFEACF0F931F93CF
:1005B000CF93DF93EC01162F042F1B821A8288EE53
:1005C00093E0A0E0B0E08C839D83AE83BF8382E2A2
:1005D00091E0998388831F8A1E8A198E188E1B8E3C
:1005E0001A8E1D8E1C8E6E8D6E7F6D7F6E8F669542
:1005F000617081E06827842F0E94680261E0802F8B
:100600000E949A02802F90E0FC01E55FFE4FE4918A
:10061000E88BFC01E950FF4FE491F0E0EE0FFF1F83
:10062000E351FF4F859194919A8B898B60E0812FE4
:100630000E949A028E8D81FD04C061E0812F0E948C
:1006400068021C87812F90E0FC01E55FFE4FE4917A
:10065000ED87FC01E950FF4FE491F0E0EE0FFF1F42
:10066000ED51FF4F859194919F878E87DF91CF91B8
:100670001F910F910895862F642F0C949A023FB713
:10068000F8948091D9049091DA04A091DB04B091A0
:10069000DC0426B5A89B05C02F3F19F00196A11DCB
:1006A000B11D3FBFBA2FA92F982F8827BC01CD01BC
:1006B000620F711D811D911D42E0660F771F881F1B
:1006C000991F4A95D1F708958F929F92AF92BF924A
:1006D000CF92DF92EF92FF924B015C010E943F03A9
:1006E0006B017C010E943F036C197D098E099F09F3
:1006F000683E734081059105A8F321E0821A9108B4
:10070000A108B10888EEC80E83E0D81EE11CF11CD8
:1007100081149104A104B10429F7FF90EF90DF90B8
:10072000CF90BF90AF909F908F9008952091EB0451
:100730003091EC042817390771F49091E904809105
:10074000EA04981741F0E091E904F0E0E856FB4F25
:10075000808190E008958FEF9FEF08950895EF92C4
:10076000FF920F931F93CF93DF93DC015C96ED9084
:10077000FC905D97E114F10479F481E090E0139628
:100780009C938E93129790E080E0DF91CF911F9120
:100790000F91FF90EF9008955196ED91FC91529733
:1007A00050968C915097982F90950FB75E962C91FC
:1007B0005E97122F127021FD6095F894208111230D
:1007C00019F1282B2083E7012197F1F728E0462F24
:1007D00050E0308160FF1AC0382B3083E701219749
:1007E000F1F7BA0175956795215089F7112381F0CA
:1007F0008081892380830FBF5C968D919C910197A6
:10080000F1F781E090E0C1CF2923DCCF3923E5CF98
:100810009081892BEFCF2091EB043091EC042817C5
:10082000390771F48091EA042091E90490E0805C3A
:100830009F4F821B910960E470E00E947B1B08952A
:1008400090E080E008952091EB043091EC042817AB
:100850003907B9F49091E9048091EA04981789F076
:10086000E091E904F0E0E856FB4F80812091E90433
:1008700030E02F5F3F4F2F7333272093E90490E040
:1008800008958FEF9FEF0895FC0182E291E091833C
:1008900080838091EB049091EC04E817F90759F4F8
:1008A000A389B4899C918589809589238C93109222
:1008B000EC041092EB040895FC01908190539A305F
:1008C00008F090E0818180532AE0929F800D1124EE
:1008D000089520915504260F3327331F2132310507
:1008E000ECF420911305FC0190E080E0243069F0E5
:1008F00082E00895A09155042191AC014B5C5B4FBF
:10090000A40FB52FB11D2C930196861798F38091F3
:100910005504680F6093550480E0089581E00895C0
:100920001092130581E0809312051092ED0461E0AE
:1009300082E10E94680261E083E10E946802E9EBC3
:10094000F0E080818E7F808380818D7F808388E44A
:100950008093B80085E48093BC000895CF93DF9323
:1009600091E0909334048823B9F0C091B800D091FD
:10097000BA008091BC008A7B8093BC0060E082E179
:100980000E94680260E083E10E9468020E94900475
:10099000D093BA00C093B800DF91CF910895CF9261
:1009A000DF92EF92FF920F931F93CF93DF93D0913B
:1009B0003C0581E0D13208F09CC0C0913B050E940B
:1009C0003F036B017C018091130581116CC082E0B3
:1009D0008093130581E0809312058FEF80931105BA
:1009E00010921005D0930F05ABE1B5E0EFEEF4E007
:1009F00080E0D8138DC01092EE048091EE04CC0FED
:100A0000C82BC093EE048091ED04813009F084C0BE
:100A10001092ED040E943F036B017C018091EE0473
:100A20008093BB008091150590911605A091170544
:100A3000B0911805892B8A2B8B2BA1F00E943F03C4
:100A40000091150510911605209117053091180594
:100A50006C197D098E099F090617170728073907A2
:100A600008F442C08091BC0083FDD8CF85EC809310
:100A7000BC000E943F036B017C0180911305823012
:100A800009F44CC0809111058F3F09F469C0809131
:100A90001105803209F466C080911105803309F494
:100AA00063C084E026C08091150590911605A09141
:100AB0001705B0911805892B8A2B8B2B09F483CF4E
:100AC0000E943F030091150510911605209117050E
:100AD000309118056C197D098E099F0906171707B3
:100AE0002807390708F06FCF809114050E94AE04E3
:100AF00085E010921A0510923C0510921905DF91BD
:100B0000CF911F910F91FF90EF90DF90CF900895BC
:100B10009D9191938F5F6DCF85EEA9CF8091150543
:100B200090911605A0911705B0911805892B8A2B75
:100B30008B2B09F4A2CF0E943F0300911505109161
:100B4000160520911705309118056C197D098E093D
:100B50009F09061717072807390708F08ECFC4CF5B
:100B600080E0C7CF82E0C5CF83E0C3CFE091E2044D
:100B70008091E104E81730F4F0E0E858FB4F808101
:100B800090E008958FEF9FEF08959091E204809197
:100B9000E1042FEF3FEF981748F4E92FF0E0E85811
:100BA000FB4F208130E09F5F9093E204C9010895DC
:100BB0008091E1049091E204891B990B0895CF92F2
:100BC000DF92EF92FF920F931F93CF93DF937C01FD
:100BD000CB018A0120911905222389F0EB016B01D9
:100BE000C40ED51ECC15DD0569F06991D701ED91D4
:100BF000FC910190F081E02DC7010995F3CF642F9E
:100C00000E946904C801DF91CF911F910F91FF905D
:100C1000EF90DF90CF900895CF93DF931F92CDB7E1
:100C2000DEB76983209119052223F9F020913C0554
:100C3000203258F021E030E0FC013383228390E041
:100C400080E00F90DF91CF91089580911A05E82FF1
:100C5000F0E0E55EFA4F998190838F5F80931A05EB
:100C600080933C0581E090E0ECCF61E0CE010196FD
:100C70000E946904F7CF90E080E00895CF93DF935E
:100C8000EC0188819981DC01ED91FC910190F0816A
:100C9000E02D09952A813B81820F931F9B838A83D4
:100CA000DF91CF910895CF93DF93EC0188819981F3
:100CB000DC01ED91FC910280F381E02D09952A8100
:100CC0003B81820F931F9B838A83DF91CF9108958D
:100CD000EF92FF920F931F93CF93DF93CDB7DEB7C1
:100CE00066970FB6F894DEBF0FBECDBF8C01CB0167
:100CF000FE0177969F014AE0E42EF12CB7010E9495
:100D00007B1B805D8293CB010097C1F7A9014E1B2D
:100D10005F0BBF01C8010E94530666960FB6F89498
:100D2000DEBF0FBECDBFDF91CF911F910F91FF901E
:100D3000EF9008958F929F92AF92BF92CF92DF92E1
:100D4000EF92FF920F931F93CF93DF93CDB7DEB750
:100D500066970FB6F894DEBF0FBECDBF6C018E0153
:100D6000095E1F4F78018AE0882E912CA12CB12CAE
:100D7000CB01BA01A50194010E948F1B942F852FEE
:100D8000605DF80162938F01A901692F782F4115E9
:100D900051056105710561F7A7014E1B5F0BBF018E
:100DA000C6010E94530666960FB6F894DEBF0FBECA
:100DB000CDBFDF91CF911F910F91FF90EF90DF900A
:100DC000CF90BF90AF909F908F900895EF92FF9239
:100DD0000F931F93CF93DF93EC017B0162E20E949C
:100DE0003E068701F80161918F01662391F0E8E5E5
:100DF000F1E0F280FF2049F0329681816813F9CF4B
:100E00006CE5CE010E943E066F2DCE010E943E068B
:100E1000E9CF62E2CE01DF91CF911F910F91FF9058
:100E2000EF900C943E06FC012581222339F0F8E076
:100E30002F0290011124820F931F089590E080E00B
:100E40000895CF93DF93EC0160E08E810E946802E9
:100E500061E08E810E94680260E08E810E946802DB
:100E60008BE891E00197F1F7DF91CF910895CF9250
:100E7000DF92EF92FF920F931F93CF93DF936C015A
:100E80007C0187E0E80EF11CD0E0C0E0062F10E006
:100E9000B8010C2E02C0759567950A94E2F761704F
:100EA000F70181917F010E9468022196C430D1052B
:100EB00079F7C601DF91CF911F910F91FF90EF90CD
:100EC000DF90CF900C942107CF92DF92EF92FF92A8
:100ED0000F931F93CF93DF93EC01F62E642F8C8139
:100EE0000E9468028D818F3F19F060E00E946802C5
:100EF0000F2D10E08F8584FF25C06E0187E0C80E9E
:100F0000D11CF12CE12CB8010E2C02C0759567950F
:100F10000A94E2F76170F60181916F010E94680204
:100F2000FFEFEF1AFF0A88E0E816F10461F7CE013F
:100F3000DF91CF911F910F91FF90EF90DF90CF90B5
:100F40000C942107B80184E0759567958A95E1F7BF
:100F5000CE010E9437076F2DCE01DF91CF911F91F7
:100F60000F91FF90EF90DF90CF900C94370740E007
:100F7000682F88EB95E00C94640781E00E94B70726
:100F80008BE39FE10197F1F70895CF93DF936130F1
:100F900029F09091C70598609093C7056093CB05A1
:100FA0001092CC0590E49093CD058093CE05805CA3
:100FB0008093CF0561E08091BC050E949A028091E8
:100FC000BD058F3F19F061E00E949A0261E08091B7
:100FD000BE050E949A02C8EBD5E09E01285B354011
:100FE0008091C70584FD0BC084E090E0219628170E
:100FF000390744F461E08E810E949A02EECF88E0C6
:1010000090E0F4CF8BE39DE00197F1F760E08091F1
:10101000BC050E94680260E08091BE050E946802E3
:101020008091BD058F3F19F060E00E9468028091B9
:10103000C70584FD34C063E088EB95E00E94370764
:10104000CBE4D6E4CE010197F1F763E088EB95E0BD
:101050000E9437072197F1F763E088EB95E00E9443
:10106000370783E592E00197F1F762E088EB95E0BE
:101070000E9437078091C70580620E94B70784E00D
:101080008093C8058CE00E94B7070E94BD0782E0EC
:101090008093C90586E0DF91CF910C94B7078062F9
:1010A0000E94B7078BE496E40197F1F78091C7059A
:1010B00080620E94B70783E592E00197F1F7809183
:1010C000C70580620E94B707D5CF9091CB056917FD
:1010D00010F06FEF690FE62FF0E0E854FA4F9489B3
:1010E000890F80680C94B70741E00E94640781E093
:1010F00090E008958F929F92AF92BF92DF92EF920D
:10110000FF920F931F93CF93DF937C0181E0809335
:10111000190588E680933B0510921A0510923C054C
:1011200060E08DE395E00E940C060E94CF040E94CF
:101130003F034B015C0180911305811165C081E083
:1011400080931305809312059FEF909311051092E1
:10115000100596E090930F058093EE048091EE04C5
:10116000806D8093EE048091ED04813009F0FFC022
:101170001092ED040E943F034B015C018091EE044C
:101180008093BB008091150590911605A0911705DD
:10119000B0911805892B8A2B8B2BA1F00E943F035D
:1011A000009115051091160520911705309118052D
:1011B000681979098A099B0906171707280739074B
:1011C00008F443C08091BC0083FDD8CF85EC8093A8
:1011D000BC000E943F034B015C01809113058130EC
:1011E00009F4C7C080911005873008F0E4C08091F1
:1011F0001005AFEEB4E0E8E7F4E090E0981751F1A5
:101200002D9121939F5FFACF80911505909116053E
:10121000A0911705B0911805892B8A2B8B2B09F407
:101220008ACF0E943F030091150510911605209169
:10123000170530911805681979098A099B0906175D
:1012400017072807390708F076CF809114050E9408
:10125000AE0480E01092E2048093E1048DE395E017
:101260000E94C5058F77282F30E094E035952795AB
:101270009A95E1F7922F990F990FC22FC91BCC0FA6
:10128000C80F8DE395E00E94C5059C0144E03595AB
:1012900027954A95E1F72F703327922F990F990FD1
:1012A000D22FD91BDD0FD80F8DE395E00E94C50525
:1012B0009C0154E0359527955A95E1F72F70332717
:1012C000922F990F990F122F191B110F180F8DE3E1
:1012D00095E00E94C5058DE395E00E94C5059C013F
:1012E00064E0359527956A95E1F72F703327922FA3
:1012F000990F990F022F091B000F080F8DE395E03E
:101300000E94C5059C0174E0359527957A95E1F713
:101310002F703327922F990F990FD22ED91ADD0CE7
:10132000D80E8DE395E00E94C5059C01E4E035955B
:101330002795EA95E1F72F703327922F990F990F90
:10134000291B220F820FF7018083D182028313832E
:10135000D483C583C701DF91CF911F910F91FF9077
:10136000EF90DF90BF90AF909F908F90089585EEA3
:101370002ECF8091150590911605A0911705B0917B
:101380001805892B8A2B8B2B09F427CF0E943F034A
:10139000009115051091160520911705309118053B
:1013A000681979098A099B09061717072807390759
:1013B00008F013CF4ACF87E01CCFFC0180819181D8
:1013C000009711F00C94671C0895FB010190002018
:1013D000E9F73197AF01461B570BDC01ED91FC910A
:1013E0000280F381E02D09940F931F93CF93DF9335
:1013F000EC010E94E5098C0169E671E0CE010E94D2
:10140000E509800F911FDF91CF911F910F910895F2
:101410000F931F93CF93DF93EC010E94D8018C01AF
:1014200069E671E0CE010E94E509800F911FDF910E
:10143000CF911F910F9108950C94E509AF92BF923F
:10144000CF92DF92EF92FF920F931F93CF93DF9390
:10145000CDB7DEB7A1970FB6F894DEBF0FBECDBFF4
:101460005C016CE671E088EB95E00E941C0A650166
:101470000B2C000CEE08FF08F7FE53C041E06DE2B4
:1014800088EB95E00E94640722273327A9012C19D5
:101490003D094E095F0919A28E010F5D1F4F9AE0A9
:1014A000C92ED12CE12CF12CCA01B901A70196015A
:1014B0000E948F1B605DF80162938F012115310539
:1014C0004105510589F70115110529F0B80188EB8F
:1014D00095E00E94E5096FE671E088EB95E00E94D7
:1014E0001C0AF1E0AF1AB10886E08A9DB0018B9D1D
:1014F000700D1124625F794F88EB95E00E94080A15
:10150000A1960FB6F894DEBF0FBECDBFDF91CF918D
:101510001F910F91FF90EF90DF90CF90BF90AF9011
:101520000895A701960119A28E010F5D1F4F8AE051
:10153000C82ED12CE12CF12CCA01B901A7019601CA
:101540000E948F1B605DF80162938F0121153105A8
:101550004105510589F7B7CFFB0101900020E9F75C
:101560003197AF01461B570B0C9453062F923F92B5
:101570004F925F926F927F928F929F92AF92BF92A3
:10158000CF92DF92EF92FF920F931F93CF93DF934F
:10159000CDB7DEB766970FB6F894DEBF0FBECDBFEE
:1015A0008C011B01DC0114968C9114978F77863087
:1015B00009F463C278F48230B0F0843008F044C299
:1015C00012964D915C9113976D917C91C1010E948F
:1015D000530636C28C3069F160F4883009F448C291
:1015E0008A3009F437C262E771E0C1010E94AC0A97
:1015F00027C2803209F4FCC18034A9F76BE5C10130
:101600000E943E06F801008111810115110509F4BF
:10161000EAC1B101C8010E94B60AC8010E941307BD
:101620008C01892B09F4DFC16CE2C1010E943E06E6
:10163000ECCFF801C080D180E280F380A701960151
:10164000C701B6010E947319882331F062E771E087
:10165000C1010E94AC0A9FC120E030E0A901C7018E
:10166000B6010E947319882371F0A7019601C70182
:10167000B6010E94CF1A9B01AC01C701B6010E94BE
:101680007319882319F320E030E0A901C701B601DE
:101690000E94731987FF08C06DE2C1010E943E06D7
:1016A000F7FAF094F7F8F09420E836E948E15BE4C3
:1016B000C701B6010E946A1B87FD81C064E1A62EA6
:1016C000B12C00E210E01A8A198AF501E856FF4FA2
:1016D0002591359145915491C701B6010E946A1B2D
:1016E00087FD13C0F501E859FF4F259135914591CC
:1016F0005491C701B6010E94D9196B017C01298957
:101700003A89200F311F3A8B298B1595079534E0C4
:10171000A31AB1088CEFA8168FEFB806B1F65524BE
:101720005A9420E030E0A901C701B6010E946A1B6B
:1017300018160CF04BC02CEA35EC47E257E3C70112
:10174000B6010E94731918160CF440C0A52DB4E020
:10175000AB02C0011124B12CA12CFC01E058FF4FB9
:101760003F019C0128563F4F49013FEF531671F14D
:10177000F301EA0DFB1D6591759185919491A70187
:1017800096010E946A1B18169CF4F401EA0DFB1DD9
:101790002591359145915491C701B6010E94D919FF
:1017A0006B017C0189899A89801B910B9A8B898BAB
:1017B000159507955A9494E0A91AB108D6CF00E27E
:1017C00010E045E0542E1A8A198AABCFC701B60142
:1017D0000E943B1B4B015C012B013C0106E080E4B5
:1017E00092E4AFE0B0E08B8B9C8BAD8BBE8B102F67
:1017F00001509AE04916510461047104C8F06B89E4
:101800007C898D899E892AE030E040E050E00E948A
:101810008F1B2B8B3C8B4D8B5E8BC301B2012AE05F
:1018200030E040E050E00E948F1B29013A01DFCFF9
:10183000C501B4010E9478199B01AC01C701B60132
:101840000E94CE1A6B017C016B897C898D899E89EF
:101850000E9478199B01AC01C701B6010E94D919F9
:101860002B013C010E943B1B6B017C010E947819FB
:101870009B01AC01C301B2010E94CE1A9B01AC01D5
:101880000E94CF1A0E943B1BC60ED71EE81EF91EEF
:101890008B899C89AD89BE89C816D906EA06FB06E4
:1018A000D8F09FEF891A990AA90AB90AA989BA89B1
:1018B000AB2B39F1BAE08B169104A104B10408F105
:1018C000E989FA893196FA8BE98BC12CD12C760102
:1018D000812C912C540183949AE0492E512C612C37
:1018E000712CC701B601A30192010E948F1B672BC7
:1018F000682B692B51F4111644F469017A011150D7
:10190000F0CFC12CD12C7601E7CFB501A401C101E4
:101910000E949A06112371F14E01F1E18F0E911C84
:10192000012F54018AE0482E512C612C712C01505A
:1019300068F0C701B601A30192010E948F1B605D90
:10194000D4016E934D0169017A01F1CF812F90E0AE
:10195000BC0160957095F501E81BF90B31978EE29B
:10196000808344275527461B570B6A0D7B1DC101F9
:101970000E945306E989FA89F7FF2AC067E771E0F8
:10198000C1010E94AC0A69897A89719561957109D2
:10199000C1010E946806D10112968D919C916696B4
:1019A0000FB6F894DEBF0FBECDBFDF91CF911F9170
:1019B0000F91FF90EF90DF90CF90BF90AF909F90EE
:1019C0008F907F906F905F904F903F902F900895F1
:1019D00029893A89232BF9F265E6C1010E943E0666
:1019E00069897A89D5CF6DE5C1010E943E06D3CFC2
:1019F0006BE7C1010E943E06F801008111810115CB
:101A00001105D1F0D80116966D917C91C1010E940B
:101A1000E6066AE3C1010E943E06B101C8010E94C8
:101A2000B60AC8010E9413078C01892B29F06CE2C9
:101A3000C1010E943E06E3CF6DE7C1010E943E0650
:101A4000F10182819381ABCF6D917C91C1010E94A4
:101A5000E606F6CFCD90DD90ED90FC906DE2C101F1
:101A60000E943E06B701A601C1010E949A06E8CF76
:101A70004D915D916D917C91F7CFF80180819181BD
:101A8000A281B3816AE771E0892B8A2B8B2B09F045
:101A9000DFCD6FE771E0DCCD0F931F93CF93DF9322
:101AA000EC0188819981009759F02A813B812617A2
:101AB000370730F081E0DF91CF911F910F910895AA
:101AC0008B016F5F7F4F0E94F01C009759F0998344
:101AD00088831B830A832C813D81232B59F7FC01CA
:101AE0001082E8CF80E0E7CFEF92FF920F931F9331
:101AF000CF93DF93EC017B018A01BA010E944C0D68
:101B000028813981811114C02115310519F0C901CD
:101B10000E94671C198218821D821C821B821A82F5
:101B2000CE01DF91CF911F910F91FF90EF9008951B
:101B30001D830C83B701C9010E94BF1DF1CFFC01B9
:101B4000118210821382128215821482FB0101908D
:101B50000020E9F73197AF01461B570B0C94740D29
:101B6000EF92FF920F931F93CF93DF93CDB7DEB722
:101B7000E8970FB6F894DEBF0FBECDBF8C01CE0143
:101B8000C3960E947A088DA91F928F938CA91F92E9
:101B90008F938BA990E08053984F9F938F9385E804
:101BA00091E09F938F93CE0101967C019F938F9339
:101BB0000E94C61DB701C8010E949F0D0FB6F89480
:101BC000DEBF0FBECDBFC801E8960FB6F894DEBFEA
:101BD0000FBECDBFDF91CF911F910F91FF90EF907E
:101BE0000895EF92FF920F931F93CF93DF93CDB79A
:101BF000DEB7E8970FB6F894DEBF0FBECDBF8C01FD
:101C0000CE01C3960E947A0888AD1F928F938FA948
:101C10001F928F938EA91F928F9384E991E09F93D7
:101C20008F93CE0101967C019F938F930E94C61DD6
:101C3000B701C8010E949F0D0FB6F894DEBF0FBE1A
:101C4000CDBFC801E8960FB6F894DEBF0FBECDBF7A
:101C5000DF91CF911F910F91FF90EF90089585ED47
:101C60008093BC008091150590911605A0911705F1
:101C7000B09118050796A11DB11D23E0B695A79553
:101C8000979587952A95D1F72091BC0024FD03C034
:101C90001092130508954091150550911605609115
:101CA000170570911805452B462B472B69F30097B4
:101CB000A105B10541F025E32A95F1F70000019750
:101CC000A109B109E1CF809114050C94AE04CF9223
:101CD000DF92EF92FF920F931F93CF93DF93FC015C
:101CE0008481982F9F7739F4807880628483118271
:101CF000108213821282848185FD0CC0D0E0C0E086
:101D0000CE01DF91CF911F910F91FF90EF90DF9067
:101D1000CF9008956115710589F37A016B018F01E8
:101D2000C081D1812097C1F16E817F816C157D05C5
:101D300039F36115710529F0C6010E94B61D892B82
:101D4000F9F2CE010E941307EC01ECCFE9012897CC
:101D5000F701D583C483209789F2D8011296ED91BB
:101D6000FC911397309791F0CE018E1B9F0B23E0CF
:101D7000959587952A95E1F785831396DC93CE9305
:101D800012971D821C82DF82CE82BACFF801D183E6
:101D9000C083D383C283F5CFD70114962D913C9194
:101DA000159712968D919C9108962817390770F611
:101DB00081E0D70118968C93A3CFAF92BF92CF92B8
:101DC000DF92EF92FF920F931F93CF93DF93EC017B
:101DD000892BE9F1DB012D913C912115310529F485
:101DE0008C8180788C8381E033C05A01DA01ED91D7
:101DF000FC91119712960D911C91E017F10790F448
:101E00007901CF01D7014D917D016C01BFEFCB1A54
:101E1000DB0ADC015C91451326C0C6014111F2CFFB
:101E20003097C9F5FB01E480F580C7010196800F6A
:101E3000911FD50114962D913C91159728173907BC
:101E4000C0F481E018968C938C8180788C8380E03C
:101E5000DF91CF911F910F91FF90EF90DF90CF9086
:101E6000BF90AF900895FC014191CF014111FBCF8C
:101E7000C4CFF501938382830115110529F3DB019A
:101E80006D917C91A701C8010E94AD1DF801EE0D76
:101E9000FF1D1082F8018C81807885608C83F98326
:101EA000E883A1CF1F920F920FB60F9211242F93A8
:101EB0003F938F939F93AF93BF938091E50490914D
:101EC000E604A091E704B091E8043091D80423E03F
:101ED000230F2D3758F50196A11DB11D2093D8046D
:101EE0008093E5049093E604A093E704B093E8049C
:101EF0008091D9049091DA04A091DB04B091DC04C4
:101F00000196A11DB11D8093D9049093DA04A0938A
:101F1000DB04B093DC04BF91AF919F918F913F910F
:101F20002F910F900FBE0F901F90189526E8230F4A
:101F30000296A11DB11DD2CF1F920F920FB60F9224
:101F400011242F933F934F935F936F937F938F93BE
:101F50009F93AF93BF93EF93FF93E091EB04F091C6
:101F6000EC04309749F0A685B7858585968D91FF5D
:101F700014C09C918923A1F4FF91EF91BF91AF917F
:101F80009F918F917F916F915F914F913F912F9191
:101F90000F900FBE0F901F9018959C91892361F7A9
:101FA000A389B4899C918589809589238C9386899E
:101FB00097890197F1F7608D718DA685B785558555
:101FC00038E020E0CB010197F1F7822F90E0959562
:101FD0008795282F4C91452309F02068315091F7BF
:101FE000868D81FD20958091EA0490E001968F73A3
:101FF00099273091E904381799F0A091EA04B0E0EC
:10200000A856BB4F2C938093EA04828D938D019741
:10201000F1F7A389B4898C919589892B8C93ACCFE6
:10202000868D8160868FF1CF1F920F920FB60F922F
:1020300011242F933F934F935F936F937F938F93CD
:102040009F93AF93BF93EF93FF938091B900887FE5
:10205000803609F44AC0F0F5883209F4A7C018F5B3
:10206000803109F49BC0B8F4882309F4F9C08830A2
:1020700009F494C0FF91EF91BF91AF919F918F911F
:102080007F916F915F914F913F912F910F900FBE74
:102090000F901F901895883109F488C0803251F74D
:1020A0008093110514C0803409F49DC040F480333E
:1020B000B9F38833F9F68093110585ECB0C080350B
:1020C00009F485C0883509F496C0883499F60E94D1
:1020D0002F0ED0CF883909F48CC038F5883729F015
:1020E00050F4883611F0803729F683E08093130589
:1020F0001092770457C0883809F47BC0803919F0F2
:10210000803809F0B7CF80917704803208F071C031
:10211000E091770481E08E0F809377048091BB007B
:10212000F0E0E95AFB4F80833DC0803B39F0E0F49A
:10213000803A09F479C0883A09F09CCF84E0809312
:1021400013051092560410925504E091DF04F091AB
:10215000E00409958091550481110FC081E08093BE
:1021600055041092350409C0803C09F4A6CF883C80
:1021700009F4A3CF883B09F07DCFE091560481E0BC
:102180008E0F80935604F0E0EB5CFB4F80818093D0
:10219000BB00909156048091550429C08091EE04B3
:1021A0008093BB0085EC8093BC0064CF90911005B8
:1021B00080910F05981758F5E091100581E08E0F7A
:1021C00080931005F0E0E151FB4F8081E9CFE09171
:1021D000100581E08E0F809310058091BB00F0E028
:1021E000E151FB4F80839091100580910F05981766
:1021F000C8F285E8D8CFE091100581E08E0F80937A
:1022000010058091BB00F0E0E151FB4F808380918D
:10221000120581115CCF81E08093ED0484EA809304
:10222000BC001092130526CF85EC8093BC00109261
:10223000130580917704803230F4E0917704F0E068
:10224000E95AFB4F10826091770470E0E091DD0461
:10225000F091DE0487E594E00995109277040ACFA7
:102260001092110534CFCF93DF9310924005109256
:102270003F0588EE93E0A0E0B0E0809341059093A5
:102280004205A0934305B093440584E391E0909305
:102290003E0580933D0563EA71E086E896E00E9482
:1022A0009F0D68EA71E08EE096E00E949F0D6FEA54
:1022B00071E084E196E00E949F0D66EB71E08AE197
:1022C00096E00E949F0D6DEB71E080E296E00E9427
:1022D0009F0D64EC71E086E296E00E949F0D6BEC2E
:1022E00071E08CE296E00E949F0D62ED71E082E366
:1022F00096E00E949F0D69ED71E088E396E00E94F0
:102300009F0D60EE71E08EE396E00E949F0DD0E09D
:10231000C0E068E671E0CE018C5B994F0E949F0D92
:102320002696C234D105A9F740E161E18FEE95E030
:102330000E94D6024EE06FE080ED95E00E94D6024A
:102340001092BB051092BA0580E591E09093B90513
:102350008093B8058DE08093BC058FEF8093BD0519
:102360008CE08093BE058BE08093BF058AE080936C
:10237000C00589E08093C10588E08093C205109272
:10238000C3051092C4051092C5051092C60510929F
:10239000C70561E080E10E94C50710924B051092CD
:1023A0004F0510924E051092500586E491E09093EF
:1023B0004A0580934905E5E6F5E010821482138210
:1023C0001582369685E0E13AF807B9F784E091E0A6
:1023D0009093AC058093AB0580E091E09093AE05BF
:1023E0008093AD0584E08093AF058093B00588E0CD
:1023F00091E09093AA058093A9058AE090E09093DC
:10240000B2058093B10584EF91E09093B405809379
:10241000B3051092B7051092B6051092A50510925B
:10242000A6051092A7051092A8051092B505DF9198
:10243000CF910895CF93DF93CDB7DEB7CD54D109B7
:102440000FB6F894DEBF0FBECDBF789484B582601E
:1024500084BD84B5816084BD85B5826085BD85B548
:10246000816085BD80916E00816080936E001092C6
:102470008100809181008260809381008091810041
:1024800081608093810080918000816080938000D2
:102490008091B10084608093B1008091B000816030
:1024A0008093B00080917A00846080937A0080915C
:1024B0007A00826080937A0080917A0081608093B4
:1024C0007A0080917A00806880937A001092C1002F
:1024D00061E08FE00E949A0264E084E10E94C507F7
:1024E00080ED95E00E94BC008FEE95E00E94BC005C
:1024F00060E08FE00E9468021092E4041092E3040E
:102500001092E2041092E10410921A0510923C0518
:102510000E94900485ED91E09093E0048093DF04A5
:1025200086ED91E09093DE048093DD044BE050E073
:1025300067ED70E08E010F5F1F4FC8010E942019E8
:10254000CE010A960E945C04E82EE981E154E33151
:1025500030F50E2E000CFF0BE055FD4E0C94B11B18
:102560005B14CF12CF127614CF127914CF12CF1280
:10257000CF12C312CF12CF12641473147014CF127F
:10258000CF12CF126D148A81FF24F394813639F073
:102590008B8176E0F72E8E3611F067E0F62ECE01B5
:1025A00005960E945C04C82E48E050E06EEC70E096
:1025B000C8010E942019C8010E945C04B82ECE01F7
:1025C00004960E945C04A82ECE0107960E945C042B
:1025D000982E81E08093190588E680933B05109240
:1025E0001A0510923C0560E08DE395E00E940C0610
:1025F0007AE0D72E892D6D2D0E946F1B682F660FF4
:10260000680F660F690D8DE395E00E940C068A2D18
:102610006D2D0E946F1B682F660F680F660F6A0D85
:102620008DE395E00E940C068B2D6D2D0E946F1B93
:10263000682F660F680F660F6B0D8DE395E00E94A3
:102640000C0660E08DE395E00E940C068C2D6D2D4C
:102650000E946F1B682F660F680F660F6C0D8DE36D
:1026600095E00E940C068F2D6D2D0E946F1B682F28
:10267000660F680F660F6F0D8DE395E00E940C06E4
:102680008E2D6D2D0E946F1B682F660F680F660FD1
:102690006E0D8DE395E00E940C060E94CF0461EC64
:1026A00073E0C8010E949F0D67EE71E0CE010796AE
:1026B0000E949F0D6BEE71E0CE010D960E949F0D62
:1026C0006FEE71E0CE0143960E949F0D0E94BD0700
:1026D00060E085E00E94650863EF71E088EB95E0BB
:1026E0000E94F40961E080E00E94650869EF71E0F2
:1026F00088EB95E00E94F40962E080E00E946508A2
:10270000CE01C3960E94B00DBE016D5C7F4F88EB79
:1027100095E00E94D801CE01C3960E94DD0963ECCA
:1027200073E088EB95E00E941C0ACE01C3960E94DC
:10273000F10DBE016D5C7F4F88EB95E00E94D801E2
:10274000CE01C3960E94DD0963E084E00E94650823
:102750006BE072E088EB95E00E941C0A68EE73E083
:1027600080E090E00E946403F12CE12CE6E0DE2E94
:1027700063E080E00E94650868E172E088EB95E024
:102780000E941C0AC70183709927D89EB001D99E68
:10279000700D1124600F711F88EB95E00E94D80125
:1027A00068EC70E080E090E00E9464032FEFE21A92
:1027B000F20A3CE0E316F104D9F669E671E080ED37
:1027C00095E00E94E5096AE272E080ED95E00E94E2
:1027D000F40967E572E080ED95E00E94F4096AE291
:1027E00072E080ED95E00E94F40968E671E080ED0A
:1027F00095E00E94F40964E872E080ED95E00E94A3
:10280000F4096EEB72E080ED95E00E94F409CE01D0
:1028100043960E94DD09CE010D960E94DD09CE018E
:1028200007960E94DD09C8010E94DD090E94BD07CC
:1028300068E671E0CE018E5B9F4F0E949F0D63E0C2
:10284000462E512C712C612C51E05093B5058FB759
:10285000F8944091E5045091E6046091E70470918A
:10286000E8048FBF8091A5059091A605A091A705CA
:10287000B091A805481B590B6A0B7B0B8091B105E1
:102880009091B205B0E0A0E084179507A607B707BE
:1028900008F07FC1F12C8091AF05F81668F5E09142
:1028A000AB05F091AC05EF0DF11D62E080810E9457
:1028B0009A02F394F0CF8B8154E0F52E823709F41D
:1028C0006ECE48E0F42E6BCE8B8133E0F32E823750
:1028D00009F465CE25E0F22E62CE99E0F92E5FCEA6
:1028E0008AE0F82E5CCEBBE0FB2E59CEACE0FA2E8F
:1028F00056CEF2E0FF2E53CE312C8091B005381623
:1029000008F066C0C32CD12CE091AD05F091AE0566
:10291000EC0DFD1D61E080810E949A02E091AD0501
:10292000F091AE05EC0DFD1D60E080810E94680213
:1029300081E090E0A0E0B0E0032C04C0880F991F74
:10294000AA1FBB1F0A94D2F74C015C01A094B0945B
:10295000212C8091AF05281620F5E22CF12CE09176
:10296000AB05F091AC05EE0DFF1D80810E943C028D
:10297000F7013496892B61F4EE0FFF1FE75BFA4FE6
:102980008081918188299929918380832394E1CF43
:10299000EE0FFF1FE75BFA4F808191818A219B2117
:1029A000F3CFE091AD05F091AE05EC0DFD1D61E0BA
:1029B00080810E9468028091AD059091AE05C80E9D
:1029C000D91E60E0F60180810E949A02339495CF6F
:1029D00039E4E32E35E0F32E6701F601878D90A1EF
:1029E000892B31F4148E2FEF3FEF368F258F11A2F4
:1029F00036E0C30ED11C85E895E08C159D0569F77E
:102A0000B12C8091AF05B81608F053C0A12C8B2CC7
:102A1000912C880C991CF401EF5AFA4F4F01209128
:102A2000B005A21608F043C0F401608171810A2C40
:102A300002C0769567950A94E2F7B29E9001112440
:102A40002A0D311DE9E4F5E080E0458D568D24170F
:102A5000350709F4B2C38F5F36968A30B1F760FF4D
:102A600024C0E9E4F5E090E080E0448D411118C015
:102A7000E091A905F091AA05E20FF31F408156E00D
:102A8000589FF001599FF00D1124E75BFA4F448FD6
:102A9000368F258F10A2178E61E00E94650105C058
:102AA000019636968A30910501F7A394B8CFB39476
:102AB000A8CF80E0F70191A19111892FF6E0EF0EE8
:102AC000F11CEC14FD04B1F79FB7F8944091E504B4
:102AD0005091E6046091E7047091E8049FBF409331
:102AE000A5055093A6056093A7057093A8058823B4
:102AF00009F44FC0B0906A05BB2009F44AC0809128
:102B0000680590916905019709F043C0F09065054B
:102B100021E4F212DBC0CE018E5B9F4F0E94DD09E3
:102B20000E94BD0760E081E00E94650868E173E0F3
:102B300088EB95E00E94F40961E081E00E9465085D
:102B400068E273E088EB95E00E941C0A16141704F3
:102B50000CF031C162E02AE0621671040CF446C147
:102B600081E00E9465086AE373E088EB95E00E94CB
:102B7000F40968EE73E080E090E00E9464030E9434
:102B8000BD0780E090E0892B09F452CE0E9400003E
:102B90004FCE1092B505F12C6114710409F49FC059
:102BA0008F2D0F2C000C990BC0970A9760F5F982B6
:102BB0001A822896EEACFFAC28979FEFE91AF90A23
:102BC000B701CE018E5B9F4F0E944C0D882389F088
:102BD00024962EAD3FAD249728968EAD9FAD2897B5
:102BE000B801820F931F0E94BF1D2896FFAEEEAE64
:102BF000289724968EAD9FAD2497009709F4D7C0EF
:102C00000E94F9183B010E94BD0761E08FE00E941D
:102C1000650868EF72E088EB95E00E94F40962E0D5
:102C20008FE00E9465086EEF72E088EB95E00E94ED
:102C3000F40963E08FE00E9465086FEB73E088EBB6
:102C400095E00E94F40963E08FE00E946508BE01F0
:102C50006E5B7F4F88EB95E00E94080A60E080E0A1
:102C60000E94650864E073E088EB95E00E94F40937
:102C700061E080E00E946508C20102970E941E0A7E
:102C800062E080E00E946508C20101970E941E0A6E
:102C900063E080E00E946508C2010E941E0A68ECA1
:102CA00070E080E090E00E946403EFEF4E1A5E0A4D
:102CB000FAE04F1651041CF093E0492E512C6AE0C3
:102CC00070E080E090E00E946403BECD3AE2F3162B
:102CD00031F052E4F51619F06114710459F450E022
:102CE00040E068E671E0CE018E5B9F4F0E94740D5C
:102CF000712C612C83E4F81253CFC3016AE070E0B9
:102D00000E947B1B3B011CAA1BAA1EAA1DAA18AE6F
:102D10001FAA4AE0B801C3010E942919F8010190D5
:102D20000020E9F73197AF01401B510BB801CE01EC
:102D3000C3960E94740D24968EAD9FAD2497009784
:102D4000F9F06BA97CA961157105C1F026964EAD0D
:102D50005FAD26972FA938AD4217530778F00E9430
:102D6000BF1D8FA998AD28969FAF8EAF289718AE3C
:102D70001FAACE01C3960E94DD0912CF0E94671CD4
:102D80008BA99CA924969FAF8EAF24978DA99EA94D
:102D900026969FAF8EAF26978FA998AD28969FAFA6
:102DA0008EAF28971CAA1BAA1EAA1DAAE0CF60E01E
:102DB00070E0CB0127CF61E081E00E9465086EE4FE
:102DC00073E088EB95E00E94F40962E081E00E94E4
:102DD00065086DE573E088EB95E00E94F40963E017
:102DE00081E00E9465086DE673E0BFCE85E00E9439
:102DF000650831E0631A710826E0269DC001279D11
:102E0000900D1124FC01E25FF94F7F01BF0188EBB7
:102E100095E00E94080A63E088E00E94650861EC82
:102E200073E0C8010E949F0D67EE71E0CE01079626
:102E30000E949F0D6BEE71E0CE010D960E949F0DDA
:102E40006FEE71E0CE0143960E949F0D61E08FE02E
:102E50000E946802D12CC12C86E0A82E63E089E094
:102E60000E94650861E873E088EB95E00E941C0A07
:102E7000C60183709927A89EB001A99E700D1124E8
:102E8000600F711F88EB95E00E94D80168EC70E03C
:102E900080E090E00E946403FFEFCF1ADF0A2CE08D
:102EA000C216D104D9F660E08FE00E946802CE011C
:102EB00043960E94DD09CE010D960E94DD09CE01E8
:102EC00007960E94DD09C8010E94DD0961E081E0EA
:102ED0000E9465086AE873E088EB95E00E94F409B7
:102EE00062E081E00E9465086FE973E088EB95E09D
:102EF0000E94F40963E085E00E94650863EB73E0DB
:102F000088EB95E00E941C0AB70188EB95E00E94CF
:102F1000080A6DEB73E088EB95E00E94F40962EC1F
:102F200073E080ED95E00E941C0A66E876E080ED93
:102F300095E00E94D80168EB73E080ED95E00E9477
:102F40001C0AB70180ED95E00E94D80167EB73E0A1
:102F500080ED95E00E941C0AC8010E94F10DB801A5
:102F600080ED95E00E94D801C8010E94DD096CEB5C
:102F700073E080ED95E00E941C0AC8010E94B00D2C
:102F8000B80180ED95E00E94080AC8010E94DD09A1
:102F900064EF71E080E090E00E94640380E890E0DC
:102FA0000E94CB1B9C0120583F4F009711F430E04A
:102FB00020E09DAB8CAB9FAB8EAB39AF28AF3BAF66
:102FC0002AAF1CAE22968FAD2297807822968FAFC3
:102FD00022978091E3049091E4048C30910509F0EC
:102FE000E5C01092E4041092E304AE014C5C5F4F24
:102FF00065EC73E0CE01CD960E94670EAE014C5C8D
:103000005F4F66E876E00E94DD0EAE014C5C5F4FDC
:103010006FEC73E0CE01CD960E94670EAE014C5C62
:103020005F4FB7010E94DD0ECE018E5B9F4F0E9465
:103030007A0828968FAD28971F928F9327968FAD89
:1030400027971F928F9326968FAD26971F928F9367
:1030500025968FAD25971F928F9324968FAD249739
:103060001F928F9323968FAD239790E08053984FB4
:103070009F938F938BED93E09F938F931F930F9369
:103080000E94C61DB801CE01885B9F4F0E949F0D14
:10309000AE014C5C5F4F6AEF73E0CE01CD960E94AB
:1030A000670EAE014C5C5F4FBE01685B7F4F0E94B4
:1030B000DD0ECE01885B9F4F0E94DD09AE014C5CA6
:1030C0005F4F63E074E0CE01CD960E94670EFC0175
:1030D0000FB6F894DEBF0FBECDBF892B61F094818F
:1030E0009078966094834B2D50E070E060E04083D0
:1030F0005183628373836AE074E080ED95E00E94FF
:103100001C0A80ED95E09A8389831C821B82B8019A
:10311000CE01CD960E94B60A68E671E080ED95E09A
:103120000E94F4098CA99DA99FAB8EAB8AAD9BAD83
:1031300099AF88AF1CAE22968FAD229780782296E9
:103140008FAF229764EF71E080E090E00E9464030B
:103150000E94BD0760E086E00E94650861E174E0BE
:1031600088EB95E00E941C0A61E086E00E946508F9
:1031700068E174E088EB95E00E941C0A62E081E05F
:103180000E9465086FE174E088EB95E00E941C0ADC
:1031900064EF71E080E090E00E9464038CA99DA937
:1031A000009709F4E6CC0E94671CE3CC019690934B
:1031B000E4048093E304B12C18CF61706ECCCF93FC
:1031C000DF9380ED95E00E9444048FEE95E00E942D
:1031D0004404C6E8D6E02697CE010E94DD0986E0C9
:1031E000CE30D807C1F786E896E0DF91CF910C94F6
:1031F000DD091F93FC0199278827BC01E8941191F0
:103200001032E9F3193010F01E30C8F31B3251F0C0
:103210001D3249F4689406C00E943419610F711D73
:10322000811D911D119110531A30B0F33EF4909509
:103230008095709561957F4F8F4F9F4F1F91089597
:10324000FB01DC0102C005900D9241505040D8F7BF
:103250000895BB274A3031F4992322F4BDE29095BA
:1032600081959F4F0C944A19592F482F372F262F9D
:10327000660F771F881F991F660F771F881F991F7A
:10328000620F731F841F951F660F771F881F991F7A
:103290000895BB27FB015527AA27880F991FAA1F4E
:1032A000A41710F0A41B83955051B9F7A05DAA3361
:1032B00008F0A95DA193009779F7B111B19311922C
:1032C000CB010C946319DC01FC01672F719177230A
:1032D000E1F7329704C07C916D9370836291AE17D1
:1032E000BF07C8F308950E94B51908F481E0089556
:1032F000E89409C097FB3EF4909580957095619590
:103300007F4F8F4F9F4F9923A9F0F92F96E9BB2745
:103310009395F695879577956795B795F111F8CFC1
:10332000FAF4BB0F11F460FF1BC06F5F7F4F8F4F2C
:103330009F4F16C0882311F096E911C0772321F022
:103340009EE8872F762F05C0662371F096E8862FBA
:1033500070E060E02AF09A95660F771F881FDAF711
:10336000880F9695879597F90895990F0008550F3E
:10337000AA0BE0E8FEEF16161706E807F907C0F0FB
:1033800012161306E407F50798F0621B730B840B03
:10339000950B39F40A2661F0232B242B252B21F4DD
:1033A00008950A2609F4A140A6958FEF811D811D7D
:1033B00008950E94EC190C945D1A0E944F1A38F07F
:1033C0000E94561A20F0952311F00C94461A0C9482
:1033D0004C1A11240C94911A0E946E1A70F3959F46
:1033E000C1F3950F50E0551F629FF001729FBB27FC
:1033F000F00DB11D639FAA27F00DB11DAA1F649F98
:103400006627B00DA11D661F829F2227B00DA11D4A
:10341000621F739FB00DA11D621F839FA00D611DD0
:10342000221F749F3327A00D611D231F849F600DF1
:10343000211D822F762F6A2F11249F5750409AF01A
:10344000F1F088234AF0EE0FFF1FBB1F661F771FA6
:10345000881F91505040A9F79E3F510580F00C9471
:10346000461A0C94911A5F3FE4F3983ED4F3869584
:1034700077956795B795F795E7959F5FC1F7FE2B11
:10348000880F911D9695879597F9089597F99F67ED
:1034900080E870E060E008959FEF80EC08950024DC
:1034A0000A941616170618060906089500240A94A9
:1034B00012161306140605060895092E0394000C2F
:1034C00011F4882352F0BB0F40F4BF2B11F460FFBE
:1034D00004C06F5F7F4F8F4F9F4F089557FD9058E7
:1034E000440F551F59F05F3F71F04795880F97FBC8
:1034F000991F61F09F3F79F0879508951216130682
:103500001406551FF2CF4695F1DF08C016161706B0
:103510001806991FF1CF86957105610508940895E5
:10352000E894BB2766277727CB0197F908952F9258
:103530003F924F925F926F927F928F929F92AF9243
:10354000BF92CF92DF92EF92FF920F931F93CF9390
:10355000DF93CDB7DEB7CA1BDB0B0FB6F894DEBF27
:103560000FBECDBF09942A88398848885F846E844D
:103570007D848C849B84AA84B984C884DF80EE8097
:10358000FD800C811B81AA81B981CE0FD11D0FB6A0
:10359000F894DEBF0FBECDBFED0108955058BB2794
:1035A000AA270E94E61A0C945D1A0E944F1A38F05E
:1035B0000E94561A20F039F49F3F19F426F40C9417
:1035C0004C1A0EF4E095E7FB0C94461AE92F0E9482
:1035D0006E1A58F3BA17620773078407950720F02D
:1035E00079F4A6F50C94901A0EF4E0950B2EBA2FF0
:1035F000A02D0B01B90190010C01CA01A0011124F9
:10360000FF27591B99F0593F50F4503E68F11A16A4
:10361000F040A22F232F342F4427585FF3CF469535
:1036200037952795A795F0405395C9F77EF41F1657
:10363000BA0B620B730B840BBAF09150A1F0FF0F21
:10364000BB1F661F771F881FC2F70EC0BA0F621F0D
:10365000731F841F48F4879577956795B795F795FD
:103660009E3F08F0B0CF9395880F08F09927EE0F92
:103670009795879508950E94761A88F09F5798F03D
:10368000B92F9927B751B0F0E1F0660F771F881F67
:10369000991F1AF0BA95C9F714C0B13091F00E9481
:1036A000901AB1E008950C94901A672F782F88270C
:1036B000B85F39F0B93FCCF3869577956795B395A8
:1036C000D9F73EF490958095709561957F4F8F4F17
:1036D0009F4F08950E94B51908F48FEF0895991B24
:1036E00079E004C0991F961708F0961B881F7A95F9
:1036F000C9F78095089597FB072E16F4009407D01C
:1037000077FD09D00E94B71B07FC05D03EF49095C9
:1037100081959F4F0895709561957F4F0895A1E21F
:103720001A2EAA1BBB1BFD010DC0AA1FBB1FEE1F3B
:10373000FF1FA217B307E407F50720F0A21BB30B86
:10374000E40BF50B661F771F881F991F1A9469F702
:1037500060957095809590959B01AC01BD01CF015E
:103760000895EE0FFF1F0590F491E02D0994AA1B18
:10377000BB1B51E107C0AA1FBB1FA617B70710F05C
:10378000A61BB70B881F991F5A95A9F7809590958E
:10379000BC01CD0108950F931F93CF93DF93823027
:1037A000910510F482E090E0E0918E06F0918F0692
:1037B00030E020E0B0E0A0E0309799F42115310529
:1037C00009F44AC0281B390B24303105D8F58A8109
:1037D0009B816115710589F1FB0193838283FE0151
:1037E00011C0408151810281138148175907E0F0CF
:1037F0004817590799F4109761F012960C93129795
:1038000013961C933296CF01DF91CF911F910F91A8
:10381000089500938E0610938F06F4CF211531057D
:1038200051F04217530738F0A901DB019A01BD019D
:10383000DF01F801C1CFEF01F9CF90938F0680939C
:103840008E06CDCFFE01E20FF31F8193919322509C
:10385000310939832883D7CF20918C0630918D068A
:10386000232B41F420911A0130911B0130938D06D6
:1038700020938C06209118013091190121153105F2
:1038800041F42DB73EB740911C0150911D01241BFE
:10389000350BE0918C06F0918D06E217F307A0F44A
:1038A0002E1B3F0B2817390778F0AC014E5F5F4F96
:1038B0002417350748F04E0F5F1F50938D06409335
:1038C0008C06819391939FCFF0E0E0E09CCFCF9363
:1038D000DF930097E9F0FC01329713821282A091E6
:1038E0008E06B0918F06ED0130E020E01097A1F434
:1038F00020813181820F931F20918C0630918D069B
:103900002817390709F061C0F0938D06E0938C0603
:10391000DF91CF910895EA01CE17DF07E8F54A81DC
:103920005B819E0141155105B1F7E901FB83EA83F3
:1039300049915991C40FD51FEC17FD0761F480819F
:1039400091810296840F951FE90199838883828172
:1039500093819B838A83F0E0E0E012968D919C91A5
:1039600013970097B9F52D913C911197CD010296CF
:10397000820F931F20918C0630918D0628173907EE
:1039800039F6309751F510928F0610928E06B0934B
:103990008D06A0938C06BCCFD383C2834081518116
:1039A000840F951FC817D90761F44E5F5F4F888158
:1039B0009981480F591F518340838A819B8193834A
:1039C00082832115310509F0B0CFF0938F06E09383
:1039D0008E069ECFFD01DC01C0CF13821282D7CFAD
:1039E000B0E0A0E0E6EFFCE10C94991A8C0100979E
:1039F00051F4CB010E94CB1B8C01C801CDB7DEB7BF
:103A0000E0E10C94B51AFC01E60FF71F9C0122506F
:103A10003109E217F30708F49DC0D901CD91DC917B
:103A20001197C617D70798F0C530D10530F3CE01EE
:103A300004978617970708F3C61BD70B2297C193E5
:103A4000D1936D937C93CF010E94671CD6CF5B010D
:103A5000AC1ABD0A4C018C0E9D1EA0918E06B09131
:103A60008F06512C412CF12CE12C109731F58091CF
:103A70008C0690918D068815990509F05CC0461654
:103A8000570608F058C080911801909119010097CD
:103A900041F48DB79EB740911C0150911D01841BCC
:103AA000950BE817F90708F055C0F0938D06E093E1
:103AB0008C06F90171836083A0CF8D919C91119741
:103AC00012966C90129713967C901397A815B905CF
:103AD00059F56C0142E0C40ED11CCA14DB0420F17C
:103AE000AC014A195B09DA011296159780F06282DF
:103AF000738251834083D9016D937C93E114F10467
:103B000071F0D7011396FC93EE93129776CF22961D
:103B10008C0F9D1FF90191838083F301EFCFF09308
:103B20008F06E0938E0669CF4816590608F42C01DB
:103B30007D01D3019ACFCB010E94CB1B7C01009762
:103B400049F0AE01B8010E94AD1DC8010E94671C7A
:103B5000870153CF10E000E050CFFB01DC0102C031
:103B600001900D9241505040D8F70895FB01DC01BF
:103B70008D91019080190110D9F3990B0895FB01E3
:103B8000DC0101900D920020E1F70895AEE0B0E075
:103B9000ECECFDE10C94A51A0D891E8986E08C835E
:103BA0001A8309838FEF9FE79E838D83AE01475E63
:103BB0005F4F6F89788DCE0101960E94E91D2F819C
:103BC0003885020F131FF80110822E96E4E00C9442
:103BD000C11AABE0B0E0EFEEFDE10C94971A7C0166
:103BE0003B018A01FC0117821682838181FFC8C1D3
:103BF000CE0101965C01F7019381F30193FD85915C
:103C000093FF81913F01882309F453C1853239F430
:103C100093FD859193FF81913F01853229F4B7018E
:103C200090E00E94D91FE7CF912C212C312CFFE18D
:103C3000F31538F08B3211F190F4803209F18332B0
:103C400029F137FC3CC020ED280F2A3050F536FE14
:103C500020C08AE0989E200D1124922E06C08D323D
:103C600091F0803371F7689430F8F30193FD8591FA
:103C700093FF81913F018111DACF21C0689431F81F
:103C8000689432F8F2CF689433F8EFCF689434F840
:103C9000ECCFEAE02E9E200D1124222E689435F8F8
:103CA000E4CF8E3229F436FC04C1689436F8DDCFB7
:103CB0008C3619F4689437F8D8CF8836B1F2982F3B
:103CC0009F7D95549330E0F08336A1F18337C1F1A5
:103CD000833509F063C02801F2E04F0E511CF80152
:103CE000C080D180692D70E036FC02C06FEF7FEF9D
:103CF000C6010E94C31F4C01689437F882010AC0B4
:103D00000C5F1F4FFFE3F98388248394912C650196
:103D1000E89437F833FE2DC0522C8114910471F5CC
:103D2000552009F468CFB70180E290E00E94D91FC6
:103D30005A94F6CFF801808189830E5F1F4FE4CF3C
:103D40002801F2E04F0E511CF801C080D180692D8E
:103D500070E036FC02C06FEF7FEFC6010E94CE1FFD
:103D60004C018201D5CFB70180E290E00E94D91FBB
:103D70002A942814190409F0B0F7CECFF60137FCC5
:103D8000859137FE81916F01B70190E00E94D91FA4
:103D900051105A94F1E08F1A9108BFCF843619F070
:103DA000893609F077C0F80137FE6BC060817181F8
:103DB000828193810C5F1F4FF32DFF763F2E97FF7B
:103DC00009C090958095709561957F4F8F4F9F4F5B
:103DD000689437F82AE030E0A5010E940920C82E37
:103DE000CA188C2C432C36FE0CC0E89440F8C91439
:103DF00040F434FE05C032FC03C0F32DFE7E4F2E8E
:103E0000892C44FE95C0FE01EC0DF11D80818033AC
:103E100009F087C0242D297E422E842D8870582ECB
:103E200043FC95C040FE8FC09C2C821418F42C0CCF
:103E3000922C981844FE91C0B70180E390E00E9454
:103E4000D91F42FE09C088E790E041FE02C088E524
:103E500090E0B7010E94D91FC91408F48AC0CA941F
:103E6000D12C9FEFC91AD90ACA0CDB1CF60182912A
:103E70006F01B70190E00E94D91FAC14BD04B1F7E7
:103E80004FCF60817181072E000C880B990B0E5F5C
:103E90001F4F92CFD32CE894D4F82AE030E0853736
:103EA00039F1232D297FD22E8F3601F148F4883540
:103EB000A9F0F701868197812B96E2E10C94B31A61
:103EC000803749F08837A9F7D4FE02C06894D2F849
:103ED00020E130E00DC06894D4F8F6CF34FE03C082
:103EE000822F8660D82E20E132E002C028E030E048
:103EF000F801D7FE0FC060817181828193810C5FD0
:103F00001F4FA5010E940920C82ECA183D2CE89415
:103F100037F867CF6081718190E080E00E5F1F4FBE
:103F2000F0CF42FC02C0839478CF8394839475CF02
:103F3000842D867809F471CFF6CFB70180E290E046
:103F40000E94D91F83948214C0F3512C73CF522C3A
:103F50005818821408F46ECFF8CF842D867809F4AF
:103F60007BCF8BE241FE80E247FC8DE2B70190E01F
:103F700071CFB70180E390E00E94D91F9A946CCF73
:103F80008FEF9FEF99CFFC010590615070400110B9
:103F9000D8F7809590958E0F9F1F0895FC01615072
:103FA000704001900110D8F7809590958E0F9F1F5B
:103FB00008950F931F93CF93DF93182F092FEB01D1
:103FC0008B8181FD09C01FEF0FEF812F902FDF91B3
:103FD000CF911F910F91089582FF14C02E813F81D0
:103FE0008C819D81281739073CF4E881F981CF0144
:103FF00001969983888310838E819F8101969F8388
:104000008E83E3CFE885F985812F0995892BA1F36C
:10401000DACFFA01AA27283051F1203181F1E89452
:104020006F936E7F6E5F7F4F8F4F9F4FAF4FB1E0AB
:104030003ED0B4E03CD0670F781F891F9A1FA11DA6
:10404000680F791F8A1F911DA11D6A0F711D811DA7
:10405000911DA11D20D009F468943F912AE0269F6C
:1040600011243019305D3193DEF6CF010895462FCB
:104070004770405D4193B3E00FD0C9F7F6CF462FAC
:104080004F70405D4A3318F0495D31FD4052419315
:1040900002D0A9F7EACFB4E0A695979587957795D2
:1040A0006795BA95C9F700976105710508959B0159
:1040B000AC010A2E06945795479537952795BA95E2
:1040C000C9F7620F731F841F951FA01D089510E08C
:1040D000C1E9D0E004C0FE010E94B11B2196C239A3
:0840E000D107C9F7F894FFCFE6
:1040E80003020100070605043738394134353642E2
:1040F800313233432A302344000090068000000008
:104108000000AF03E6013B06AE030B04230496034D
:10411800000000000C06DF053B06AE03D805C50508
:10412800B605000000003B0396026502000000008F
:104138007408E6013B06D7012F2F22225C5C620837
:10414800660C6E0A720D7409000D0A00205B005D92
:1041580020006E756C6C00652D00747275650066C4
:10416800616C736500253034642D253032642D254B
:1041780030326400253032643A253032643A2530D2
:104188003264003030303100646573745F3100642C
:104198006573745F3200646573745F3300646573BC
:1041A800745F3400646573745F3500646573745FAD
:1041B8003600646573745F3700646573745F380034
:1041C800646573745F39002E2020002E2E20002E87
:1041D8002E2E00455644435300202057656C636FCC
:1041E8006D6520546F204556444300496E697469D3
:1041F800616C697A696E67002020202020202020C9
:1042080020204C6F6164696E6700202020202020E8
:104218002020202020202020202020202020202A8C
:104228002A2A2A2A2A2A2A2A2A2A2A2A2A2A2A2AE6
:104238002A2A2A2A2A2A002020202020202020205A
:104248002020202020202020202020202A20475302
:104258004D204D45535341474520546F2045564402
:1042680043202A0020204D616368696E6549442017
:1042780020202020202044657374696E6174696F62
:104288006E202020202020202054696D65202020C9
:104298002020202020202020204461746500202038
:1042A8003D3D3D3D3D3D3D3D3D2020202020202001
:1042B8003D3D3D3D3D3D3D3D3D3D3D2020202020B7
:1042C8002020203D3D3D3D20202020202020202072
:1042D8002020203D3D3D3D00496E707574002D2D18
:1042E8002D2D2D002043686F6F736520446573740E
:1042F800696E6174696F6E00202020455644432022
:104308005365727669636500596F752068617665D3
:104318002063686F6F73656E2000496E76616C6903
:10432800642044657374696E6174696F6E00496EC8
:1043380076616C696420496E7075742100596F75D7
:10434800204D75737420456E746572200061204499
:10435800657374696E6174696F6E204669727374EF
:10436800005072696E74696E6700202020205468BE
:10437800616E6B20796F7521212020202020004854
:1043880061766520412053616665204A6F75726EBB
:10439800657900546F200020202020202020202034
:1043A80020202020006D616368696E6549440064BF
:1043B800657374696E6174696F6E00253034642D9D
:1043C800253032642D2530326454253032643A2544
:1043D8003032643A253032645A007265675F64612E
:1043E80074650061737369676E004A534F4E3A20D3
:1043F80000537461747573003D3D3D3D3D3D00447F
:104408006174612053656E7420746F2053657276F1
:0444180065720000C9
:00000001FF
