:100000000C9492000C94BA000C94BA000C94011059
:100010000C9401100C9401100C94BA000C94BA00CA
:100020000C94BA000C94BA000C94BA000C94BA0068
:100030000C94BA000C94BA000C94BA000C94BA0058
:100040000C94B70F0C94BA000C94BA000C94BA003C
:100050000C94BA000C94BA000C94BA000C94BA0038
:100060000C9479100C94BA00CDCCCC3D0AD7233C2B
:1000700017B7D13877CC2B329595E6241FB14F0AAC
:100080000000803FCDCCCC3D6F12833A95BFD63374
:100090007D1D9026B3CE010C000020410000C84217
:1000A00000401C4620BCBE4CCA1B0E5AAEC59D74F7
:1000B00000000000240027002A00000000080002C1
:1000C00001000003040700000000000000003132BE
:1000D0003A32333A3235004E6F76203232203230A7
:1000E000323000000000002300260029000000003C
:1000F00000250028002B0004040404040404040266
:1001000002020202020303030303030102040810B4
:100110002040800102040810200102040810200081
:100120009811331911241FBECFEFD8E0DEBFCDBF29
:1001300026E0A6E4B4E001C01D92A83BB207E1F7B7
:1001400014E0A0E0B1E0E0EBF1E402C005900D9214
:10015000A634B107D9F710E0C1E9D0E004C0219777
:10016000FE010E94151CC039D107C9F70E949712E1
:100170000C94CB200C940000CF93DF93FC01138EE2
:10018000128E118E108E178A168A8DE991E0958F46
:10019000848F84858631E0F52DEB30E0378B268B1C
:1001A0002BE931E0318F208F2CE231E0338F228F29
:1001B00090916800883008F456C021E08E3008F431
:1001C00020E081E001C0880F2A95EAF7892B80930F
:1001D000680094852DE630E0983050F02BE630E052
:1001E0009E3030F02CE630E0963110F030E020E028
:1001F000348B238B292F30E09830B8F581E001C093
:10020000880F9A95EAF7858B848D958D0197F1F784
:10021000828D938D892B21F1A091FB04B091FC0478
:10022000EA17FB07E9F0109751F05396CD91DC9156
:100230005497988155968C91809589238883868DD3
:100240008E7F868F1092FA041092F904F093FC04CA
:10025000E093FB04A389B4898C919589892B8C93B5
:10026000DF91CF91089584E0B1CF9E3040F42850C3
:10027000310981E001C0880F2A95EAF7C4CF2E50DA
:100280003109F7CF96E0899FD0011124A75ABA4FC0
:1002900090967C936E935F9791E091969C93919743
:1002A000E091C605F091C7059091C505992339F0F5
:1002B000309751F0811108C08091750509943097ED
:1002C00019F05C968C91FACF0895CF92DF92EF925D
:1002D000FF920F931F9396E0899FF0011124E75A34
:1002E000FA4F11A2278D30A12130310551F178F05C
:1002F0002230310509F451C02330310509F452C0D0
:100300001F910F91FF90EF90DF90CF90089566239B
:10031000B9F361E070E00E9442012FB7F894809138
:10032000F5049091F604A091F704B091F8042FBF62
:100330008093B1059093B205A093B305B093B40533
:10034000DFCF9FB7F894C090F504D090F604E0900A
:10035000F704F090F8049FBF0091B1051091B20529
:100360002091B3053091B405C01AD10AE20AF30A0C
:100370000091C3051091C40530E020E00C151D0567
:100380002E053F0550F462E070E01F910F91FF9041
:10039000EF90DF90CF900C9442016111B1CF63E0F8
:1003A00070E0F3CF70E060E0F0CF08950895089515
:1003B000DB0114964D915C9115976D917C91DC0158
:1003C000ED91FC910280F381E02D0994AF92BF92F0
:1003D000CF92DF92EF92FF920F931F93CF93DF9311
:1003E0006C017B018B01040F151FEB015E01AE1840
:1003F000BF08C017D10759F06991D601ED91FC9162
:100400000190F081E02DC6010995892B79F7C5018E
:10041000DF91CF911F910F91FF90EF90DF90CF90E0
:10042000BF90AF900895833081F028F4813099F027
:100430008230A9F008958730A9F08830C9F084305F
:10044000B1F4809180008F7D03C0809180008F7710
:1004500080938000089584B58F7784BD089584B516
:100460008F7DFBCF8091B0008F778093B00008958F
:100470008091B0008F7DF9CFCF93DF93282F30E0AC
:10048000F901E654FF4F8491F901E55FFE4FD491E5
:10049000F901E950FF4FC491CC23A1F081110E94D2
:1004A0001302EC2FF0E0EE0FFF1FED51FF4FA5916F
:1004B000B491EC91ED2381E090E009F480E0DF91CC
:1004C000CF91089580E090E0FACF862F0C943C0203
:1004D0001F93CF93DF93282F30E0F901E654FF4FAD
:1004E0008491F901E55FFE4FD491F901E950FF4F86
:1004F000C491CC23A9F0162F81110E941302EC2F76
:10050000F0E0EE0FFF1FE351FF4FA591B4918FB7BD
:10051000F894EC91111108C0D095DE23DC938FBFC5
:10052000DF91CF911F910895DE2BF8CF862F642F96
:100530000C946802CF93DF9390E0FC01E55FFE4FDF
:10054000249189509F4FFC0184918823C9F090E049
:10055000880F991FFC01E055FF4FA591B491FC0154
:10056000E351FF4FC591D49161110DC09FB7F8942D
:100570008C91209582238C938881282328839FBF88
:10058000DF91CF910895623051F49FB7F8943C9178
:10059000822F809583238C93E8812E2BEFCF8FB70A
:1005A000F894EC912E2B2C938FBFEACF0F931F93CF
:1005B000CF93DF93EC01162F042F1B821A8288EE53
:1005C00093E0A0E0B0E08C839D83AE83BF8382E2A2
:1005D00091E0998388831F8A1E8A198E188E1B8E3C
:1005E0001A8E1D8E1C8E6E8D6E7F6D7F6E8F669542
:1005F000617081E06827842F0E94680261E0802F8B
:100600000E949A02802F90E0FC01E55FFE4FE4918A
:10061000E88BFC01E950FF4FE491F0E0EE0FFF1F83
:10062000E351FF4F859194919A8B898B60E0812FE4
:100630000E949A028E8D81FD04C061E0812F0E948C
:1006400068021C87812F90E0FC01E55FFE4FE4917A
:10065000ED87FC01E950FF4FE491F0E0EE0FFF1F42
:10066000ED51FF4F859194919F878E87DF91CF91B8
:100670001F910F910895862F642F0C949A023FB713
:10068000F8948091EB049091EC04A091ED04B0916A
:10069000EE0426B5A89B05C02F3F19F00196A11DB9
:1006A000B11D3FBFBA2FA92F982F8827BC01CD01BC
:1006B000620F711D811D911D42E0660F771F881F1B
:1006C000991F4A95D1F708958F929F92AF92BF924A
:1006D000CF92DF92EF92FF924B015C010E943F03A9
:1006E0006B017C010E943F036C197D098E099F09F3
:1006F000683E734081059105A8F321E0821A9108B4
:10070000A108B10888EEC80E83E0D81EE11CF11CD8
:1007100081149104A104B10429F7FF90EF90DF90B8
:10072000CF90BF90AF909F908F9008952091FB0441
:100730003091FC042817390771F49091F9048091E5
:10074000FA04981741F0E091F904F0E0E655FB4F08
:10075000808190E008958FEF9FEF08950895EF92C4
:10076000FF920F931F93CF93DF93DC015C96ED9084
:10077000FC905D97E114F10479F481E090E0139628
:100780009C938E93129790E080E0DF91CF911F9120
:100790000F91FF90EF9008955196ED91FC91529733
:1007A00050968C915097982F90950FB75E962C91FC
:1007B0005E97122F127021FD6095F894208111230D
:1007C00019F1282B2083E7012197F1F728E0462F24
:1007D00050E0308160FF1AC0382B3083E701219749
:1007E000F1F7BA0175956795215089F7112381F0CA
:1007F0008081892380830FBF5C968D919C910197A6
:10080000F1F781E090E0C1CF2923DCCF3923E5CF98
:100810009081892BEFCF2091FB043091FC042817A5
:10082000390771F48091FA042091F90490E0805C1A
:100830009F4F821B910960E470E00E94DF1B0895C6
:1008400090E080E008952091FB043091FC0428178B
:100850003907B9F49091F9048091FA04981789F056
:10086000E091F904F0E0E655FB4F80812091F90416
:1008700030E02F5F3F4F2F7333272093F90490E030
:1008800008958FEF9FEF0895FC0182E291E091833C
:1008900080838091FB049091FC04E817F90759F4D8
:1008A000A389B4899C918589809589238C93109222
:1008B000FC041092FB040895FC01908190539A303F
:1008C00008F090E0818180532AE0929F800D1124EE
:1008D000089520916704260F3327331F21323105F5
:1008E000ECF420912305FC0190E080E0243069F0D5
:1008F00082E00895A09167042191AC01495B5B4FB0
:10090000A40FB52FB11D2C930196861798F38091F3
:100910006704680F6093670480E0089581E008959C
:100920001092230581E0809322051092FD0461E07E
:1009300082E10E94680261E083E10E946802E9EBC3
:10094000F0E080818E7F808380818D7F808388E44A
:100950008093B80085E48093BC000895CF93DF9323
:1009600091E0909346048823B9F0C091B800D091EB
:10097000BA008091BC008A7B8093BC0060E082E179
:100980000E94680260E083E10E9468020E94900475
:10099000D093BA00C093B800DF91CF910895CF9261
:1009A000DF92EF92FF920F931F93CF93DF93D0913B
:1009B0004C0581E0D13208F09CC0C0914B050E94EB
:1009C0003F036B017C018091230581116CC082E0A3
:1009D0008093230581E0809322058FEF809321058A
:1009E00010922005D0931F05ABE2B5E0EFEFF4E0E5
:1009F00080E0D8138DC01092FE048091FE04CC0FCD
:100A0000C82BC093FE048091FD04813009F084C09E
:100A10001092FD040E943F036B017C018091FE0453
:100A20008093BB008091250590912605A091270514
:100A3000B0912805892B8A2B8B2BA1F00E943F03B4
:100A40000091250510912605209127053091280554
:100A50006C197D098E099F090617170728073907A2
:100A600008F442C08091BC0083FDD8CF85EC809310
:100A7000BC000E943F036B017C0180912305823002
:100A800009F44CC0809121058F3F09F469C0809121
:100A90002105803209F466C080912105803309F474
:100AA00063C084E026C08091250590912605A09121
:100AB0002705B0912805892B8A2B8B2B09F483CF2E
:100AC0000E943F03009125051091260520912705DE
:100AD000309128056C197D098E099F0906171707A3
:100AE0002807390708F06FCF809124050E94AE04D3
:100AF00085E010922A0510924C0510922905DF918D
:100B0000CF911F910F91FF90EF90DF90CF900895BC
:100B10009D9191938F5F6DCF85EEA9CF8091250533
:100B200090912605A0912705B0912805892B8A2B45
:100B30008B2B09F4A2CF0E943F0300912505109151
:100B4000260520912705309128056C197D098E090D
:100B50009F09061717072807390708F08ECFC4CF5B
:100B600080E0C7CF82E0C5CF83E0C3CFE091F4043B
:100B70008091F304E81730F4F0E0E657FB4F8081F2
:100B800090E008958FEF9FEF08959091F404809185
:100B9000F3042FEF3FEF981748F4E92FF0E0E65702
:100BA000FB4F208130E09F5F9093F404C9010895CA
:100BB0008091F3049091F404891B990B0895CF92CE
:100BC000DF92EF92FF920F931F93CF93DF937C01FD
:100BD000CB018A0120912905222389F0EB016B01C9
:100BE000C40ED51ECC15DD0569F06991D701ED91D4
:100BF000FC910190F081E02DC7010995F3CF642F9E
:100C00000E946904C801DF91CF911F910F91FF905D
:100C1000EF90DF90CF900895CF93DF931F92CDB7E1
:100C2000DEB76983209129052223F9F020914C0534
:100C3000203258F021E030E0FC013383228390E041
:100C400080E00F90DF91CF91089580912A05E82FE1
:100C5000F0E0E55DFA4F998190838F5F80932A05DC
:100C600080934C0581E090E0ECCF61E0CE010196ED
:100C70000E946904F7CF90E080E00895CF93DF935E
:100C8000EC0188819981DC01ED91FC910190F0816A
:100C9000E02D09952A813B81820F931F9B838A83D4
:100CA000DF91CF910895CF93DF93EC0188819981F3
:100CB000DC01ED91FC910280F381E02D09952A8100
:100CC0003B81820F931F9B838A83DF91CF9108958D
:100CD000EF92FF920F931F93CF93DF93CDB7DEB7C1
:100CE00066970FB6F894DEBF0FBECDBF8C01CB0167
:100CF000FE0177969F014AE0E42EF12CB7010E9495
:100D0000DF1B805D8293CB010097C1F7A9014E1BC9
:100D10005F0BBF01C8010E94530666960FB6F89498
:100D2000DEBF0FBECDBFDF91CF911F910F91FF901E
:100D3000EF9008958F929F92AF92BF92CF92DF92E1
:100D4000EF92FF920F931F93CF93DF93CDB7DEB750
:100D500066970FB6F894DEBF0FBECDBF6C018E0153
:100D6000095E1F4F78018AE0882E912CA12CB12CAE
:100D7000CB01BA01A50194010E94F31B942F852F8A
:100D8000605DF80162938F01A901692F782F4115E9
:100D900051056105710561F7A7014E1B5F0BBF018E
:100DA000C6010E94530666960FB6F894DEBF0FBECA
:100DB000CDBFDF91CF911F910F91FF90EF90DF900A
:100DC000CF90BF90AF909F908F900895EF92FF9239
:100DD0000F931F93CF93DF93EC017B0162E20E949C
:100DE0003E068701F80161918F01662391F0E8E5E5
:100DF000F1E0F280FF2049F0329681816813F9CF4B
:100E00006CE5CE010E943E066F2DCE010E943E068B
:100E1000E9CF62E2CE01DF91CF911F910F91FF9058
:100E2000EF900C943E06FC012581222339F0F8E076
:100E30002F0290011124820F931F089590E080E00B
:100E40000895CF93DF93EC0160E08E810E946802E9
:100E500061E08E810E94680260E08E810E946802DB
:100E60008BE891E00197F1F7DF91CF910895CF9250
:100E7000DF92EF92FF920F931F93CF93DF936C015A
:100E80007C0187E0E80EF11CD0E0C0E0062F10E006
:100E9000B8010C2E02C0759567950A94E2F761704F
:100EA000F70181917F010E9468022196C430D1052B
:100EB00079F7C601DF91CF911F910F91FF90EF90CD
:100EC000DF90CF900C942107CF92DF92EF92FF92A8
:100ED0000F931F93CF93DF93EC01F62E642F8C8139
:100EE0000E9468028D818F3F19F060E00E946802C5
:100EF0000F2D10E08F8584FF25C06E0187E0C80E9E
:100F0000D11CF12CE12CB8010E2C02C0759567950F
:100F10000A94E2F76170F60181916F010E94680204
:100F2000FFEFEF1AFF0A88E0E816F10461F7CE013F
:100F3000DF91CF911F910F91FF90EF90DF90CF90B5
:100F40000C942107B80184E0759567958A95E1F7BF
:100F5000CE010E9437076F2DCE01DF91CF911F91F7
:100F60000F91FF90EF90DF90CF900C94370740E007
:100F7000682F88EC95E00C94640781E00E94B70725
:100F80008BE39FE10197F1F70895CF93DF936130F1
:100F900029F09091D70598609093D7056093DB0571
:100FA0001092DC0590E49093DD058093DE05805C73
:100FB0008093DF0561E08091CC050E949A028091C8
:100FC000CD058F3F19F061E00E949A0261E08091A7
:100FD000CE050E949A02C8ECD5E09E01285C3540FF
:100FE0008091D70584FD0BC084E090E021962817FE
:100FF000390744F461E08E810E949A02EECF88E0C6
:1010000090E0F4CF8BE39DE00197F1F760E08091F1
:10101000CC050E94680260E08091CE050E946802C3
:101020008091CD058F3F19F060E00E9468028091A9
:10103000D70584FD34C063E088EC95E00E94370753
:10104000CBE4D6E4CE010197F1F763E088EC95E0BC
:101050000E9437072197F1F763E088EC95E00E9442
:10106000370783E592E00197F1F762E088EC95E0BD
:101070000E9437078091D70580620E94B70784E0FD
:101080008093D8058CE00E94B7070E94BD0782E0DC
:101090008093D90586E0DF91CF910C94B7078062E9
:1010A0000E94B7078BE496E40197F1F78091D7058A
:1010B00080620E94B70783E592E00197F1F7809183
:1010C000D70580620E94B707D5CF9091DB056917DD
:1010D00010F06FEF690FE62FF0E0E853FA4F9489B4
:1010E000890F80680C94B70741E00E94640781E093
:1010F00090E008958F929F92AF92BF92DF92EF920D
:10110000FF920F931F93CF93DF937C0181E0809335
:10111000290588E680934B0510922A0510924C050C
:1011200060E08DE495E00E940C060E94CF040E94CE
:101130003F034B015C0180912305811165C081E073
:1011400080932305809322059FEF909321051092B1
:10115000200596E090931F058093FE048091FE0485
:10116000806D8093FE048091FD04813009F0FFC002
:101170001092FD040E943F034B015C018091FE042C
:101180008093BB008091250590912605A0912705AD
:10119000B0912805892B8A2B8B2BA1F00E943F034D
:1011A00000912505109126052091270530912805ED
:1011B000681979098A099B0906171707280739074B
:1011C00008F443C08091BC0083FDD8CF85EC8093A8
:1011D000BC000E943F034B015C01809123058130DC
:1011E00009F4C7C080912005873008F0E4C08091E1
:1011F0002005AFEFB4E0EAE8F4E090E0981751F191
:101200002D9121939F5FFACF80912505909126051E
:10121000A0912705B0912805892B8A2B8B2B09F4E7
:101220008ACF0E943F030091250510912605209149
:10123000270530912805681979098A099B0906173D
:1012400017072807390708F076CF809124050E94F8
:10125000AE0480E01092F4048093F3048DE495E0F2
:101260000E94C5058F77282F30E094E035952795AB
:101270009A95E1F7922F990F990FC22FC91BCC0FA6
:10128000C80F8DE495E00E94C5059C0144E03595AA
:1012900027954A95E1F72F703327922F990F990FD1
:1012A000D22FD91BDD0FD80F8DE495E00E94C50524
:1012B0009C0154E0359527955A95E1F72F70332717
:1012C000922F990F990F122F191B110F180F8DE4E0
:1012D00095E00E94C5058DE495E00E94C5059C013E
:1012E00064E0359527956A95E1F72F703327922FA3
:1012F000990F990F022F091B000F080F8DE495E03D
:101300000E94C5059C0174E0359527957A95E1F713
:101310002F703327922F990F990FD22ED91ADD0CE7
:10132000D80E8DE495E00E94C5059C01E4E035955A
:101330002795EA95E1F72F703327922F990F990F90
:10134000291B220F820FF7018083D182028313832E
:10135000D483C583C701DF91CF911F910F91FF9077
:10136000EF90DF90BF90AF909F908F90089585EEA3
:101370002ECF8091250590912605A0912705B0914B
:101380002805892B8A2B8B2B09F427CF0E943F033A
:1013900000912505109126052091270530912805FB
:1013A000681979098A099B09061717072807390759
:1013B00008F013CF4ACF87E01CCFCF93DF93EC0127
:1013C00088819981009711F00E94CB1C19821882A4
:1013D0001D821C821B821A82DF91CF910895FC012D
:1013E00080819181009711F00C94CB1C0895FB0132
:1013F00001900020E9F73197AF01461B570BDC0144
:10140000ED91FC910280F381E02D09940F931F93DD
:10141000CF93DF93EC010E94F7098C0169E671E03C
:10142000CE010E94F709800F911FDF91CF911F918C
:101430000F9108950F931F93CF93DF93EC010E94B8
:10144000D8018C0169E671E0CE010E94F709800F96
:10145000911FDF91CF911F910F9108950C94F7097F
:10146000AF92BF92CF92DF92EF92FF920F931F93B2
:10147000CF93DF93CDB7DEB7A1970FB6F894DEBF59
:101480000FBECDBF5C016CE671E088EC95E00E9478
:101490002E0A65010B2C000CEE08FF08F7FE53C066
:1014A00041E06DE288EC95E00E9464072227332733
:1014B000A9012C193D094E095F0919A28E010F5D82
:1014C0001F4F9AE0C92ED12CE12CF12CCA01B90191
:1014D000A70196010E94F31B605DF80162938F01E2
:1014E000211531054105510589F70115110529F02F
:1014F000B80188EC95E00E94F7096FE671E088EC8E
:1015000095E00E942E0AF1E0AF1AB10886E08A9DAC
:10151000B0018B9D700D1124625E794F88EC95E0CF
:101520000E941A0AA1960FB6F894DEBF0FBECDBF77
:10153000DF91CF911F910F91FF90EF90DF90CF90AF
:10154000BF90AF900895A701960119A28E010F5D7B
:101550001F4F8AE0C82ED12CE12CF12CCA01B90111
:10156000A70196010E94F31B605DF80162938F0151
:10157000211531054105510589F7B7CFFB010190D0
:101580000020E9F73197AF01461B570B0C94530627
:101590002F923F924F925F926F927F928F929F9283
:1015A000AF92BF92CF92DF92EF92FF920F931F9371
:1015B000CF93DF93CDB7DEB766970FB6F894DEBF53
:1015C0000FBECDBF8C011B01DC0114968C911497CA
:1015D0008F77863009F463C278F48230B0F08430BB
:1015E00008F044C212964D915C9113976D917C91D5
:1015F000C1010E94530636C28C3069F160F4883014
:1016000009F448C28A3009F437C262E771E0C101C7
:101610000E94BE0A27C2803209F4FCC18034A9F7B7
:101620006BE5C1010E943E06F801008111810115A0
:10163000110509F4EAC1B101C8010E94C80AC80134
:101640000E9413078C01892B09F4DFC16CE2C101F0
:101650000E943E06ECCFF801C080D180E280F3808A
:10166000A7019601C701B6010E94D719882331F05E
:1016700062E771E0C1010E94BE0A9FC120E030E034
:10168000A901C701B6010E94D719882371F0A701EB
:101690009601C701B6010E94331B9B01AC01C70133
:1016A000B6010E94D719882319F320E030E0A90180
:1016B000C701B6010E94D71987FF08C06DE2C101BA
:1016C0000E943E06F7FAF094F7F8F09420E836E925
:1016D00048E15BE4C701B6010E94CE1B87FD81C0D3
:1016E00064E1A62EB12C00E210E01A8A198AF501F5
:1016F000E856FF4F2591359145915491C701B601A8
:101700000E94CE1B87FD13C0F501E859FF4F2591BC
:10171000359145915491C701B6010E943D1A6B0164
:101720007C0129893A89200F311F3A8B298B159525
:10173000079534E0A31AB1088CEFA8168FEFB8060E
:10174000B1F655245A9420E030E0A901C701B60152
:101750000E94CE1B18160CF04BC02CEA35EC47E269
:1017600057E3C701B6010E94D71918160CF440C000
:10177000A52DB4E0AB02C0011124B12CA12CFC01B9
:10178000E058FF4F3F019C0128563F4F49013FEF72
:10179000531671F1F301EA0DFB1D65917591859169
:1017A0009491A70196010E94CE1B18169CF4F40197
:1017B000EA0DFB1D2591359145915491C701B60164
:1017C0000E943D1A6B017C0189899A89801B910BCB
:1017D0009A8B898B159507955A9494E0A91AB108AC
:1017E000D6CF00E210E045E0542E1A8A198AABCF1A
:1017F000C701B6010E949F1B4B015C012B013C01FC
:1018000006E080E492E4AFE0B0E08B8B9C8BAD8B84
:10181000BE8B102F01509AE04916510461047104E7
:10182000C8F06B897C898D899E892AE030E040E090
:1018300050E00E94F31B2B8B3C8B4D8B5E8BC301C6
:10184000B2012AE030E040E050E00E94F31B2901A1
:101850003A01DFCFC501B4010E94DC199B01AC0144
:10186000C701B6010E94321B6B017C016B897C8928
:101870008D899E890E94DC199B01AC01C701B601CC
:101880000E943D1A2B013C010E949F1B6B017C01B1
:101890000E94DC199B01AC01C301B2010E94321B02
:1018A0009B01AC010E94331B0E949F1BC60ED71EDA
:1018B000E81EF91E8B899C89AD89BE89C816D90698
:1018C000EA06FB06D8F09FEF891A990AA90AB90A15
:1018D000A989BA89AB2B39F1BAE08B169104A1041E
:1018E000B10408F1E989FA893196FA8BE98BC12CA8
:1018F000D12C7601812C912C540183949AE0492EAD
:10190000512C612C712CC701B601A30192010E94D8
:10191000F31B672B682B692B51F4111644F46901F2
:101920007A011150F0CFC12CD12C7601E7CFB5014F
:10193000A401C1010E949A06112371F14E01F1E147
:101940008F0E911C012F54018AE0482E512C612CDE
:10195000712C015068F0C701B601A30192010E94E9
:10196000F31B605DD4016E934D0169017A01F1CFE3
:10197000812F90E0BC0160957095F501E81BF90B93
:1019800031978EE2808344275527461B570B6A0DFB
:101990007B1DC1010E945306E989FA89F7FF2AC01D
:1019A00067E771E0C1010E94BE0A69897A89719571
:1019B00061957109C1010E946806D10112968D914D
:1019C0009C9166960FB6F894DEBF0FBECDBFDF9137
:1019D000CF911F910F91FF90EF90DF90CF90BF902C
:1019E000AF909F908F907F906F905F904F903F90BF
:1019F0002F90089529893A89232BF9F265E6C101D0
:101A00000E943E0669897A89D5CF6DE5C1010E94A1
:101A10003E06D3CF6BE7C1010E943E06F80100816C
:101A2000118101151105D1F0D80116966D917C91A7
:101A3000C1010E94E6066AE3C1010E943E06B101AF
:101A4000C8010E94C80AC8010E9413078C01892B93
:101A500029F06CE2C1010E943E06E3CF6DE7C101AF
:101A60000E943E06F10182819381ABCF6D917C9102
:101A7000C1010E94E606F6CFCD90DD90ED90FC907E
:101A80006DE2C1010E943E06B701A601C1010E949C
:101A90009A06E8CF4D915D916D917C91F7CFF80159
:101AA00080819181A281B3816AE771E0892B8A2BC1
:101AB0008B2B09F0DFCD6FE771E0DCCDCF93DF93A7
:101AC00000D000D000D0CDB7DEB77A8369831C8206
:101AD0001B82BE016F5F7F4F0A960E94C80A26963E
:101AE0000FB6F894DEBF0FBECDBFDF91CF91089542
:101AF0000F931F93CF93DF93EC0188819981009717
:101B000059F02A813B812617370730F081E0DF91B9
:101B1000CF911F910F9108958B016F5F7F4F0E94AE
:101B2000541D009759F0998388831B830A832C8165
:101B30003D81232B59F7FC011082E8CF80E0E7CFED
:101B4000EF92FF920F931F93CF93DF93611571056F
:101B500041F480E0DF91CF911F910F91FF90EF90C2
:101B6000089541155105B1F07B01EC010C811D81F7
:101B7000040F151FB8010E94780D882351F32881A6
:101B800039818C819D81B701820F931F0E94231E92
:101B90001D830C8381E0DECFEF92FF920F931F93A2
:101BA000CF93DF93EC017B018A01BA010E94780D8B
:101BB00081110BC0CE010E94DD09CE01DF91CF91D2
:101BC0001F910F91FF90EF9008951D830C83B70133
:101BD000888199810E94231EF0CFCF93DF93EC017F
:101BE000FB018617970749F06081718161157105C6
:101BF00041F0448155810E94CC0DCE01DF91CF91FF
:101C000008950E94DD09F9CFFC0111821082138230
:101C1000128215821482FB0101900020E9F73197AE
:101C2000AF01461B570B0C94CC0D85ED8093BC0087
:101C30008091250590912605A0912705B091280552
:101C40000796A11DB11D23E0B695A7959795879599
:101C50002A95D1F72091BC0024FD03C010922305E2
:101C600008954091250550912605609127057091B2
:101C70002805452B462B472B69F30097A105B10595
:101C800041F025E32A95F1F700000197A109B10978
:101C9000E1CF809124050C94AE04CF92DF92EF92B5
:101CA000FF920F931F93CF93DF93FC018481982FB2
:101CB0009F7739F480788062848311821082138246
:101CC0001282848185FD0CC0D0E0C0E0CE01DF919E
:101CD000CF911F910F91FF90EF90DF90CF900895DB
:101CE0006115710589F37A016B018F01C081D18182
:101CF0002097C1F16E817F816C157D0539F36115E7
:101D0000710529F0C6010E941A1E892BF9F2CE0135
:101D10000E941307EC01ECCFE9012897F701D58366
:101D2000C483209789F2D8011296ED91FC91139704
:101D3000309791F0CE018E1B9F0B23E095958795F0
:101D40002A95E1F785831396DC93CE9312971D8233
:101D50001C82DF82CE82BACFF801D183C083D383C5
:101D6000C283F5CFD70114962D913C911597129609
:101D70008D919C9108962817390770F681E0D7015C
:101D800018968C93A3CFAF92BF92CF92DF92EF922F
:101D9000FF920F931F93CF93DF93EC01892BE9F10F
:101DA000DB012D913C912115310529F48C8180783E
:101DB0008C8381E033C05A01DA01ED91FC911197D7
:101DC00012960D911C91E017F10790F47901CF0163
:101DD000D7014D917D016C01BFEFCB1ADB0ADC010D
:101DE0005C91451326C0C6014111F2CF3097C9F569
:101DF000FB01E480F580C7010196800F911FD5019A
:101E000014962D913C91159728173907C0F481E05D
:101E100018968C938C8180788C8380E0DF91CF91B1
:101E20001F910F91FF90EF90DF90CF90BF90AF90F8
:101E30000895FC014191CF014111FBCFC4CFF501C1
:101E4000938382830115110529F3DB016D917C9148
:101E5000A701C8010E94111EF801EE0DFF1D10829E
:101E6000F8018C81807885608C83F983E883A1CF29
:101E7000EF92FF920F931F93CF93DF93CDB7DEB70F
:101E8000E8970FB6F894DEBF0FBECDBF8C01CE0130
:101E9000C3960E947A088DA91F928F938CA91F92D6
:101EA0008F938BA990E08053984F9F938F9385E8F1
:101EB00091E09F938F93CE0101967C019F938F9326
:101EC0000E942A1EB701C8010E94040E0FB6F894A2
:101ED000DEBF0FBECDBFC801E8960FB6F894DEBFD7
:101EE0000FBECDBFDF91CF911F910F91FF90EF906B
:101EF0000895EF92FF920F931F93CF93DF93CDB787
:101F0000DEB7E8970FB6F894DEBF0FBECDBF8C01E9
:101F1000CE01C3960E947A0888AD1F928F938FA935
:101F20001F928F938EA91F928F9384E991E09F93C4
:101F30008F93CE0101967C019F938F930E942A1E5E
:101F4000B701C8010E94040E0FB6F894DEBF0FBEA1
:101F5000CDBFC801E8960FB6F894DEBF0FBECDBF67
:101F6000DF91CF911F910F91FF90EF9008951F92F5
:101F70000F920FB60F9211242F933F938F939F933D
:101F8000AF93BF938091F5049091F604A091F7046C
:101F9000B091F8043091EA0423E0230F2D3758F56F
:101FA0000196A11DB11D2093EA048093F50490933E
:101FB000F604A093F704B093F8048091EB04909199
:101FC000EC04A091ED04B091EE040196A11DB11DA9
:101FD0008093EB049093EC04A093ED04B093EE0493
:101FE000BF91AF919F918F913F912F910F900FBE15
:101FF0000F901F90189526E8230F0296A11DB11D82
:10200000D2CF1F920F920FB60F9211242F933F93AE
:102010004F935F936F937F938F939F93AF93BF93F0
:10202000EF93FF93E091FB04F091FC04309749F0AB
:10203000A685B7858585968D91FF14C09C918923CF
:10204000A1F4FF91EF91BF91AF919F918F917F91FB
:102050006F915F914F913F912F910F900FBE0F9015
:102060001F9018959C91892361F7A389B4899C914D
:102070008589809589238C93868997890197F1F7C3
:10208000608D718DA685B785558538E020E0CB0140
:102090000197F1F7822F90E095958795282F4C9125
:1020A000452309F02068315091F7868D81FD2095F8
:1020B0008091FA0490E001968F7399273091F9048A
:1020C000381799F0A091FA04B0E0A655BB4F2C93B5
:1020D0008093FA04828D938D0197F1F7A389B489D7
:1020E0008C919589892B8C93ACCF868D8160868F5E
:1020F000F1CF1F920F920FB60F9211242F933F939F
:102100004F935F936F937F938F939F93AF93BF93FF
:10211000EF93FF938091B900887F803609F44AC01D
:10212000F0F5883209F4A7C018F5803109F49BC096
:10213000B8F4882309F4F9C0883009F494C0FF91F9
:10214000EF91BF91AF919F918F917F916F915F912F
:102150004F913F912F910F900FBE0F901F901895A8
:10216000883109F488C0803251F78093210514C06A
:10217000803409F49DC040F48033B9F38833F9F614
:102180008093210585ECB0C0803509F485C0883581
:1021900009F496C0883499F60E94150ED0CF88397C
:1021A00009F48CC038F5883729F050F4883611F0DE
:1021B000803729F683E0809323051092890457C065
:1021C000883809F47BC0803919F0803809F0B7CF1E
:1021D00080918904803208F071C0E091890481E027
:1021E0008E0F809389048091BB00F0E0E759FB4F8C
:1021F00080833DC0803B39F0E0F4803A09F479C037
:10220000883A09F09CCF84E08093230510926804FB
:1022100010926704E091F104F091F2040995809125
:10222000670481110FC081E0809367041092470416
:1022300009C0803C09F4A6CF883C09F4A3CF883BB1
:1022400009F07DCFE091680481E08E0F80936804EF
:10225000F0E0E95BFB4F80818093BB0090916804C4
:102260008091670429C08091FE048093BB0085ECB7
:102270008093BC0064CF9091200580911F05981732
:1022800058F5E091200581E08E0F80932005F0E065
:10229000E150FB4F8081E9CFE091200581E08E0F76
:1022A000809320058091BB00F0E0E150FB4F8083DC
:1022B0009091200580911F059817C8F285E8D8CF26
:1022C000E091200581E08E0F809320058091BB0076
:1022D000F0E0E150FB4F80838091220581115CCFBB
:1022E00081E08093FD0484EA8093BC001092230572
:1022F00026CF85EC8093BC00109223058091890441
:10230000803230F4E0918904F0E0E759FB4F10820D
:102310006091890470E0E091EF04F091F00489E6A7
:1023200094E00995109289040ACF1092210534CFC8
:10233000CF93DF931092500510924F0588EE93E0F3
:10234000A0E0B0E08093510590935205A09353050F
:10235000B093540584E391E090934E0580934D052E
:1023600068E671E08EEA96E00E94040E68E671E08D
:1023700088EA96E00E94040E68E671E082EA96E040
:102380000E94040E63EA71E08CE996E00E94040E5C
:102390006FEA71E086E996E00E94040E64EB71E05A
:1023A0008EE196E00E94040E6BEB71E084E296E011
:1023B0000E94040E62EC71E08AE296E00E94040E34
:1023C00069EC71E080E396E00E94040E60ED71E03C
:1023D00086E396E00E94040E67ED71E08CE396E0E0
:1023E0000E94040E6EED71E082E496E00E94040EFD
:1023F00065EE71E088E496E00E94040E6CEE71E0F8
:102400008EE496E00E94040ED0E0C0E068E671E041
:10241000CE018C5A994F0E94040E2696C234D105E3
:10242000A9F740E161E18FEF95E00E94D6024EE00E
:102430006FE080EE95E00E94D6021092CB051092DC
:10244000CA0580E591E09093C9058093C8058DE0A9
:102450008093CC058FEF8093CD058CE08093CE05E3
:102460008BE08093CF058AE08093D00589E080934C
:10247000D10588E08093D2051092D3051092D4053F
:102480001092D5051092D6051092D70561E080E133
:102490000E94C50710925B0510925F0510925E05C1
:1024A0001092600586E491E090935A058093590557
:1024B000E5E7F5E01082148213821582369685E0F6
:1024C000E13BF807B9F784E091E09093BC05809375
:1024D000BB0580E091E09093BE058093BD0584E04C
:1024E0008093BF058093C00588E091E09093BA0582
:1024F0008093B9058AE090E09093C2058093C1056E
:1025000084EF91E09093C4058093C3051092C705B2
:102510001092C6051092B5051092B6051092B70537
:102520001092B8051092C505DF91CF910895CF9311
:10253000DF93CDB7DEB7EC970FB6F894DEBF0FBED2
:10254000CDBF789484B5826084BD84B5816084BD3C
:1025500085B5826085BD85B5816085BD80916E0041
:10256000816080936E001092810080918100826072
:1025700080938100809181008160809381008091AF
:1025800080008160809380008091B100846080939E
:10259000B1008091B00081608093B00080917A009A
:1025A000846080937A0080917A00826080937A00C0
:1025B00080917A00816080937A0080917A008068AF
:1025C00080937A001092C10061E08FE00E949A022D
:1025D00060E08FE00E94680264E084E10E94C50729
:1025E00080EE95E00E94BC008FEF95E00E94BC0059
:1025F0001092F4041092F30410922A0510924C05E4
:102600000E94900485ED91E09093F2048093F10490
:1026100086ED91E09093F0048093EF044BE050E05E
:1026200067ED70E08E010F5F1F4FC8010E94841993
:10263000CE010A960E945C04E82EE981E154E33160
:1026400030F50E2E000CFF0BE85DFC4E0C94151CB3
:10265000D01447134713EB144713EE1447134713D3
:1026600047133B1347134713D914E814E5144713D2
:1026700047134713E2148A81FF24F394813639F01B
:102680008B8166E0F62E8E3611F057E0F52ECE01E6
:1026900005960E945C04C82E48E050E06EEC70E0A5
:1026A000C8010E948419C8010E945C04B82ECE01A2
:1026B00004960E945C04A82ECE0107960E945C043A
:1026C000982E81E08093290588E680934B0510922F
:1026D0002A0510924C0560E08DE495E00E940C06FE
:1026E0006AE0D62E892D6D2D0E94D31B682F660FB0
:1026F000680F660F690D8DE495E00E940C068A2D27
:102700006D2D0E94D31B682F660F680F660F6A0D30
:102710008DE495E00E940C068B2D6D2D0E94D31B3D
:10272000682F660F680F660F6B0D8DE495E00E94B1
:102730000C0660E08DE495E00E940C068C2D6D2D5A
:102740000E94D31B682F660F680F660F6C0D8DE417
:1027500095E00E940C068F2D6D2D0E94D31B682FD3
:10276000660F680F660F6F0D8DE495E00E940C06F2
:102770008E2D6D2D0E94D31B682F660F680F660F7C
:102780006E0D8DE495E00E940C060E94CF0465EF6B
:1027900073E0C8010E94040E63EF71E0CE0107965A
:1027A0000E94040E67EF71E0CE010D960E94040EA8
:1027B0006BEF71E0CE0143960E94040E0E94BD07AC
:1027C0006FEF71E088EC95E00E94060A61E080E01E
:1027D0000E9465086CE976E088EC95E00E94D801DB
:1027E00061E172E088EC95E00E94060A62E081E017
:1027F0000E946508CE0149960E94380FBE01675EAF
:102800007F4F88EC95E00E94D801CE0149960E9446
:10281000EF0967EF73E088EC95E00E942E0ACE0185
:1028200049960E94790FBE01675E7F4F88EC95E064
:102830000E94D801CE0149960E94EF0964E670E03B
:1028400080E090E00E946403F12CE12C76E0D72E2A
:1028500063E08AE00E9465086AE172E088EC95E036
:102860000E942E0AC70183709927D89EB001D99E75
:10287000700D1124600F711F88EC95E00E94D80143
:1028800068EC70E080E090E00E9464032FEFE21AB1
:10289000F20A3CE0E316F104D9F669E671E080EE55
:1028A00095E00E94F70962E272E080EE95E00E94F6
:1028B000060A69E572E080EE95E00E94060A62E28F
:1028C00072E080EE95E00E94060A68E671E080EE14
:1028D00095E00E94060A60E972E080EE95E00E94B1
:1028E000060A6EED72E080EE95E00E94060ACE01C7
:1028F00043960E94EF09CE010D960E94EF09CE018A
:1029000007960E94EF09C8010E94EF0964EF71E089
:1029100080E090E00E9464030E94BD0768E671E0D9
:10292000CE014F960E94040E53E0252E312C712CBF
:10293000612C51E05093C5058FB7F8944091F50490
:102940005091F6046091F7047091F8048FBF809164
:10295000B5059091B605A091B705B091B805481B93
:10296000590B6A0B7B0B8091C1059091C205B0E0B9
:10297000A0E084179507A607B70708F07CC1F12CE3
:102980008091BF05F81668F5E091BB05F091BC0594
:10299000EF0DF11D62E080810E949A02F394F0CF66
:1029A0008B8144E0F42E823709F471CE38E0F32EA7
:1029B0006ECE8B8123E0F22E823709F468CE95E04B
:1029C000F92E65CE89E0F82E62CEBAE0FB2E5FCEFE
:1029D000ABE0FA2E5CCEFCE0FF2E59CEE2E0FE2EFC
:1029E00056CE512C8091C005581608F066C0C52CF3
:1029F000D12CE091BD05F091BE05EC0DFD1D61E00F
:102A000080810E949A02E091BD05F091BE05EC0D17
:102A1000FD1D60E080810E94680281E090E0A0E0FE
:102A2000B0E0052C04C0880F991FAA1FBB1F0A9491
:102A3000D2F74C015C01A094B094412C8091BF0569
:102A4000481620F5E42CF12CE091BB05F091BC0573
:102A5000EE0DFF1D80810E943C02F7013496892B08
:102A600061F4EE0FFF1FE75AFA4F808191818829A8
:102A70009929918380834394E1CFEE0FFF1FE75A9A
:102A8000FA4F808191818A219B21F3CFE091BD058E
:102A9000F091BE05EC0DFD1D61E080810E94680291
:102AA0008091BD059091BE05C80ED91E60E0F6016B
:102AB00080810E949A02539495CF29E5E22E25E069
:102AC000F22E6701F601878D90A1892B31F4148EC7
:102AD0002FEF3FEF368F258F11A236E0C30ED11CAA
:102AE00085E995E08C159D0569F7B12C8091BF05AE
:102AF000B81608F053C0A12C8B2C912C880C991C73
:102B0000F401EF59FA4F4F012091C005A21608F0C9
:102B100043C0F401608171810A2C02C076956795EB
:102B20000A94E2F7B29E900111242A0D311DE9E5C5
:102B3000F5E080E0458D568D2417350709F491C3E3
:102B40008F5F36968A30B1F760FF24C0E9E5F5E083
:102B500090E080E0448D411118C0E091B905F091FA
:102B6000BA05E20FF31F408156E0589FF001599FCC
:102B7000F00D1124E75AFA4F448F368F258F10A29B
:102B8000178E61E00E94650105C0019636968A3075
:102B9000910501F7A394B8CFB394A8CF80E0F701D3
:102BA00091A19111892FF6E0EF0EF11CEC14FD04B8
:102BB000B1F79FB7F8944091F5045091F6046091F5
:102BC000F7047091F8049FBF4093B5055093B60584
:102BD0006093B7057093B805882309F44CC08091C1
:102BE0007A05882309F447C080917805909179058A
:102BF000019709F040C0F090750521E4F212BDC0C4
:102C0000CE014F960E94EF090E94BD0760E081E06F
:102C10000E9465086CE473E088EC95E00E94060A67
:102C200061E081E00E9465086CE573E088EC95E066
:102C30000E942E0A161417040CF007C162E0FAE095
:102C40006F1671040CF41CC181E00E9465086EE6E9
:102C500073E088EC95E00E94060A64EF71E080E082
:102C600090E00E94640380E090E0892B09F456CE46
:102C70000E94000053CE1092C505F12C611471041E
:102C800009F484C08F2D0F2C000C990BC0970A9764
:102C900088F4F9821A8241E050E0B801CE014F96E3
:102CA0000E94A00D8F8D98A1009709F4CAC00E94C0
:102CB0005D193B010E94BD0761E08FE00E9465083D
:102CC0006CE273E088EC95E00E94060A62E08FE017
:102CD0000E94650862E373E088EC95E00E94060AB2
:102CE00063E08FE00E94650863EF73E088EC95E095
:102CF0000E94060A63E08FE00E946508BE01615EE3
:102D00007F4F88EC95E00E941A0A60E080E00E9404
:102D1000650868E373E088EC95E00E94060A61E0CC
:102D200080E00E946508C10102970E94300A62E0BB
:102D300080E00E946508C10101970E94300A63E0AB
:102D400080E00E946508C1010E94300A68EC70E0D2
:102D500080E090E00E9464039FEF291A390AEAE0BC
:102D60002E1631041CF083E0282E312C6AE070E02E
:102D700080E090E00E946403DCCD3AE2F31631F08B
:102D800052E4F51619F06114710451F450E040E07A
:102D900068E671E0CE014F960E94CC0D712C612C3B
:102DA00083E4F8126FCFC3016AE070E00E94DF1B7A
:102DB0003B011A8E198E1C8E1B8E1E8E1D8E4AE0B4
:102DC000B801C3010E948D19F80101900020E9F7B4
:102DD0003197AF01401B510BB801CE0149960E94BB
:102DE000CC0D8F8D98A10097D9F0698D7A8D6115E2
:102DF0007105A1F049A15AA12D8D3E8D42175307AF
:102E000068F00E94231E8D8D9E8D9CA38BA31E8E29
:102E10001D8ECE0149960E94EF0934CF0E94CB1C33
:102E2000898D9A8D98A38F8F8B8D9C8D9AA389A362
:102E30008D8D9E8D9CA38BA31A8E198E1C8E1B8E3E
:102E4000E6CF60E070E0CB0134CF61E081E00E942A
:102E5000650862E873E088EC95E00E94060A62E08B
:102E600081E00E94650861E973E088EC95E00E94CA
:102E7000060A63E081E00E94650861EA73E0E9CE3A
:102E800085E00E94650821E0621A710836E0369DEF
:102E9000C001379D900D1124FC01E25EF94F7F01C6
:102EA000BF0188EC95E00E941A0A63E088E00E9466
:102EB000650865EF73E0C8010E94040E63EF71E0DE
:102EC000CE0107960E94040E67EF71E0CE010D96C9
:102ED0000E94040E6BEF71E0CE0143960E94040E37
:102EE00061E08FE00E946802D12CC12C63E089E090
:102EF0000E94650865EB73E088EC95E00E942E0A5D
:102F0000C60183709927F6E0F89FB001F99F700D14
:102F10001124600F711F88EC95E00E94D80168ECC5
:102F200070E080E090E00E9464032FEFC21AD20AA2
:102F30003CE0C316D104D1F660E08FE00E94680245
:102F4000CE0143960E94EF09CE010D960E94EF0933
:102F5000CE0107960E94EF09C8010E94EF0961E0C7
:102F600081E00E9465086EEB73E088EC95E00E94BA
:102F7000060A62E081E00E94650863ED73E088EC78
:102F800095E00E94060A63E085E00E94650867EE0E
:102F900073E088EC95E00E942E0AB70188EC95E07A
:102FA0000E941A0A61EF73E088EC95E00E94060A1D
:102FB00066EF73E080EE95E00E942E0A66E976E007
:102FC00080EE95E00E94D8016CEE73E080EE95E013
:102FD0000E942E0A6CE976E080EE95E00E94D8010E
:102FE0006FEE73E080EE95E00E942E0AB70180EE4E
:102FF00095E00E94D8016BEE73E080EE95E00E94B0
:103000002E0AC8010E94790FB80180EE95E00E9457
:10301000D801C8010E94EF0960EF73E080EE95E0EF
:103020000E942E0AC8010E94380FB80180EE95E078
:103030000E941A0AC8010E94EF0964EF71E080E063
:1030400090E00E946403CE014F960E94790FCE015A
:103050008B960E94380F1EA21DA218A61FA21AA6A8
:1030600019A6BE01655D7F4FCE0185960E94ED0DCC
:1030700041E050E069EF73E0CE0185960E94A00D1B
:10308000811104C0CE0185960E94DD094BA15CA18F
:103090006F8D78A1CE0185960E94A00D811104C08C
:1030A000CE0185960E94DD0941E050E06BEF73E0B0
:1030B000CE0185960E94A00D811104C0CE01859697
:1030C0000E94DD091A8E198E1C8E1B8E1E8E1D8E7F
:1030D000BE016B5D7F4FCE0149960E94ED0D1AAA8D
:1030E00019AA1CAA1BAA1EAA1DAAB701CE01C19625
:1030F0000E94ED0D18AE1FAA1AAE19AE1CAE1BAE83
:1031000066E976E0CE01C7960E94ED0D80E890E07A
:103110000E942F1C9C0120583F4F009711F430E073
:1031200020E09B838A839D838C833F832E83398712
:1031300028871A868F8580788F87AE014E5F5F4F14
:103140006DEF73E0CE010B960E944D0EAE014E5F07
:103150005F4FBE01695C7F4F0E94C30EAE014E5FA0
:103160005F4F67E074E0CE010B960E944D0EAE01FA
:103170004E5F5F4FBE016F5C7F4F0E94C30EAE017A
:103180004E5F5F4F63E174E0CE010B960E944D0EDF
:10319000AE014E5F5F4FBE01675E7F4F0E94C30E60
:1031A0006FEF75E0CE0101960E945E0D6CE174E058
:1031B00080EE95E00E942E0A60EE75E0CE01019649
:1031C0000E945E0D68E671E080EE95E00E94060ABE
:1031D0000E94BD0760E086E00E94650863E274E03B
:1031E00088EC95E00E942E0A61E086E00E94650866
:1031F0006AE274E088EC95E00E942E0A62E081E0C9
:103200000E94650861E374E088EC95E00E942E0A54
:103210008A819B819D838C83288539853F832E837A
:103220001A862F8520782F87009711F00E94CB1CDB
:10323000CE01C7960E94EF09CE01C1960E94EF0908
:10324000CE0149960E94EF09CE0185960E94EF09B2
:10325000CE018B960E94EF09CE014F960E94EF0996
:10326000FCCC61708FCCCF93DF9380EE95E00E9411
:1032700044048FEF95E00E944404C6E9D6E0269707
:10328000CE010E94EF0986E0CE31D807C1F786E96A
:1032900096E00E94EF098CE996E00E94EF0982EA2D
:1032A00096E00E94EF0988EA96E00E94EF098EEA14
:1032B00096E0DF91CF910C94EF091F93FC019927C1
:1032C0008827BC01E89411911032E9F3193010F00D
:1032D0001E30C8F31B3251F01D3249F4689406C009
:1032E0000E949819610F711D811D911D119110533C
:1032F0001A30B0F33EF490958095709561957F4FAC
:103300008F4F9F4F1F910895FB01DC0102C0059074
:103310000D9241505040D8F70895BB274A3031F400
:10332000992322F4BDE2909581959F4F0C94AE199C
:10333000592F482F372F262F660F771F881F991F69
:10334000660F771F881F991F620F731F841F951FB9
:10335000660F771F881F991F0895BB27FB0155270C
:10336000AA27880F991FAA1FA41710F0A41B8395E2
:103370005051B9F7A05DAA3308F0A95DA193009759
:1033800079F7B111B1931192CB010C94C719DC01FB
:10339000FC01672F71917723E1F7329704C07C918C
:1033A0006D9370836291AE17BF07C8F308950E94B2
:1033B000191A08F481E00895E89409C097FB3EF4D7
:1033C00090958095709561957F4F8F4F9F4F992372
:1033D000A9F0F92F96E9BB279395F69587957795F0
:1033E0006795B795F111F8CFFAF4BB0F11F460FFB0
:1033F0001BC06F5F7F4F8F4F9F4F16C0882311F008
:1034000096E911C0772321F09EE8872F762F05C01B
:10341000662371F096E8862F70E060E02AF09A95B6
:10342000660F771F881FDAF7880F9695879597F9AB
:103430000895990F0008550FAA0BE0E8FEEF161645
:103440001706E807F907C0F012161306E407F50798
:1034500098F0621B730B840B950B39F40A2661F00C
:10346000232B242B252B21F408950A2609F4A140AF
:10347000A6958FEF811D811D08950E94501A0C940E
:10348000C11A0E94B31A38F00E94BA1A20F095238C
:1034900011F00C94AA1A0C94B01A11240C94F51A79
:1034A0000E94D21A70F3959FC1F3950F50E0551FFB
:1034B000629FF001729FBB27F00DB11D639FAA2789
:1034C000F00DB11DAA1F649F6627B00DA11D661FD8
:1034D000829F2227B00DA11D621F739FB00DA11DF9
:1034E000621F839FA00D611D221F749F3327A00DB3
:1034F000611D231F849F600D211D822F762F6A2F4F
:1035000011249F5750409AF0F1F088234AF0EE0FB3
:10351000FF1FBB1F661F771F881F91505040A9F7E0
:103520009E3F510580F00C94AA1A0C94F51A5F3F47
:10353000E4F3983ED4F3869577956795B795F7951C
:10354000E7959F5FC1F7FE2B880F911D9695879594
:1035500097F9089597F99F6780E870E060E0089513
:103560009FEF80EC089500240A941616170618069B
:103570000906089500240A94121613061406050677
:103580000895092E0394000C11F4882352F0BB0F08
:1035900040F4BF2B11F460FF04C06F5F7F4F8F4F6B
:1035A0009F4F089557FD9058440F551F59F05F3FA6
:1035B00071F04795880F97FB991F61F09F3F79F055
:1035C00087950895121613061406551FF2CF4695D7
:1035D000F1DF08C0161617061806991FF1CF869559
:1035E0007105610508940895E894BB27662777273D
:1035F000CB0197F908952F923F924F925F926F926D
:103600007F928F929F92AF92BF92CF92DF92EF9272
:10361000FF920F931F93CF93DF93CDB7DEB7CA1BF3
:10362000DB0B0FB6F894DEBF0FBECDBF09942A881E
:10363000398848885F846E847D848C849B84AA84C6
:10364000B984C884DF80EE80FD800C811B81AA8153
:10365000B981CE0FD11D0FB6F894DEBF0FBECDBF1E
:10366000ED0108955058BB27AA270E944A1B0C94CD
:10367000C11A0E94B31A38F00E94BA1A20F039F425
:103680009F3F19F426F40C94B01A0EF4E095E7FB72
:103690000C94AA1AE92F0E94D21A58F3BA1762079B
:1036A00073078407950720F079F4A6F50C94F41AB3
:1036B0000EF4E0950B2EBA2FA02D0B01B90190014D
:1036C0000C01CA01A0011124FF27591B99F0593F91
:1036D00050F4503E68F11A16F040A22F232F342FD9
:1036E0004427585FF3CF469537952795A795F04027
:1036F0005395C9F77EF41F16BA0B620B730B840B3C
:10370000BAF09150A1F0FF0FBB1F661F771F881FF3
:10371000C2F70EC0BA0F621F731F841F48F487954B
:1037200077956795B795F7959E3F08F0B0CF93953D
:10373000880F08F09927EE0F9795879508950E94B6
:10374000DA1A88F09F5798F0B92F9927B751B0F03F
:10375000E1F0660F771F881F991F1AF0BA95C9F715
:1037600014C0B13091F00E94F41AB1E008950C94A5
:10377000F41A672F782F8827B85F39F0B93FCCF358
:10378000869577956795B395D9F73EF49095809592
:10379000709561957F4F8F4F9F4F08950E94191A22
:1037A00008F48FEF0895991B79E004C0991F9617CC
:1037B00008F0961B881F7A95C9F78095089597FBA6
:1037C000072E16F4009407D077FD09D00E941B1C29
:1037D00007FC05D03EF4909581959F4F0895709514
:1037E00061957F4F0895A1E21A2EAA1BBB1BFD0114
:1037F0000DC0AA1FBB1FEE1FFF1FA217B307E407D0
:10380000F50720F0A21BB30BE40BF50B661F771F27
:10381000881F991F1A9469F7609570958095909507
:103820009B01AC01BD01CF010895EE0FFF1F059074
:10383000F491E02D0994AA1BBB1B51E107C0AA1FFC
:10384000BB1FA617B70710F0A61BB70B881F991F41
:103850005A95A9F780959095BC01CD0108950F93D5
:103860001F93CF93DF938230910510F482E090E0B4
:10387000E091B606F091B70630E020E0B0E0A0E0BD
:10388000309799F42115310509F44AC0281B390BEA
:1038900024303105D8F58A819B816115710589F144
:1038A000FB0193838283FE0111C04081518102811B
:1038B000138148175907E0F04817590799F41097F2
:1038C00061F012960C93129713961C933296CF01C7
:1038D000DF91CF911F910F9108950093B606109339
:1038E000B706F4CF2115310551F04217530738F0D0
:1038F000A901DB019A01BD01DF01F801C1CFEF0190
:10390000F9CF9093B7068093B606CDCFFE01E20FB4
:10391000F31F819391932250310939832883D7CFA4
:103920002091B4063091B506232B41F420911A0161
:1039300030911B013093B5062093B40620911801F5
:10394000309119012115310541F42DB73EB7409151
:103950001C0150911D01241B350BE091B406F09120
:10396000B506E217F307A0F42E1B3F0B2817390703
:1039700078F0AC014E5F5F4F2417350748F04E0FCB
:103980005F1F5093B5064093B406819391939FCFE8
:10399000F0E0E0E09CCFCF93DF930097E9F0FC01EB
:1039A000329713821282A091B606B091B706ED014C
:1039B00030E020E01097A1F420813181820F931F25
:1039C0002091B4063091B5062817390709F061C077
:1039D000F093B506E093B406DF91CF910895EA0124
:1039E000CE17DF07E8F54A815B819E01411551053D
:1039F000B1F7E901FB83EA8349915991C40FD51FBF
:103A0000EC17FD0761F4808191810296840F951F68
:103A1000E90199838883828193819B838A83F0E083
:103A2000E0E012968D919C9113970097B9F52D9136
:103A30003C911197CD010296820F931F2091B406FD
:103A40003091B5062817390739F6309751F510929D
:103A5000B7061092B606B093B506A093B406BCCFD5
:103A6000D383C28340815181840F951FC817D90722
:103A700061F44E5F5F4F88819981480F591F5183D0
:103A800040838A819B81938382832115310509F0CC
:103A9000B0CFF093B706E093B6069ECFFD01DC01F0
:103AA000C0CF13821282D7CFB0E0A0E0EAE5FDE1FB
:103AB0000C94FD1A8C01009751F4CB010E942F1C2D
:103AC0008C01C801CDB7DEB7E0E10C94191BFC01F5
:103AD000E60FF71F9C0122503109E217F30708F4A3
:103AE0009DC0D901CD91DC911197C617D70798F0E9
:103AF000C530D10530F3CE0104978617970708F338
:103B0000C61BD70B2297C193D1936D937C93CF01A2
:103B10000E94CB1CD6CF5B01AC1ABD0A4C018C0EA7
:103B20009D1EA091B606B091B706512C412CF12CE8
:103B3000E12C109731F58091B4069091B506881567
:103B4000990509F05CC04616570608F058C08091E8
:103B5000180190911901009741F48DB79EB74091DB
:103B60001C0150911D01841B950BE817F90708F003
:103B700055C0F093B506E093B406F90171836083F4
:103B8000A0CF8D919C91119712966C9012971396DD
:103B90007C901397A815B90559F56C0142E0C40E45
:103BA000D11CCA14DB0420F1AC014A195B09DA010B
:103BB0001296159780F06282738251834083D901F7
:103BC0006D937C93E114F10471F0D7011396FC938B
:103BD000EE93129776CF22968C0F9D1FF901918359
:103BE0008083F301EFCFF093B706E093B60669CF79
:103BF0004816590608F42C017D01D3019ACFCB0158
:103C00000E942F1C7C01009749F0AE01B8010E9470
:103C1000111EC8010E94CB1C870153CF10E000E0A9
:103C200050CFFB01DC0102C001900D924150504089
:103C3000D8F70895FB01DC018D91019080190110E6
:103C4000D9F3990B0895FB01DC0101900D9200203E
:103C5000E1F70895AEE0B0E0E0E3FEE10C94091B6B
:103C60000D891E8986E08C831A8309838FEF9FE775
:103C70009E838D83AE01475E5F4F6F89788DCE0145
:103C800001960E944D1E2F813885020F131FF801E7
:103C900010822E96E4E00C94251BABE0B0E0E3E547
:103CA000FEE10C94FB1A7C013B018A01FC011782A6
:103CB0001682838181FFC8C1CE0101965C01F701A4
:103CC0009381F30193FD859193FF81913F018823B7
:103CD00009F453C1853239F493FD859193FF8191A5
:103CE0003F01853229F4B70190E00E943D20E7CFE3
:103CF000912C212C312CFFE1F31538F08B3211F18E
:103D000090F4803209F1833229F137FC3CC020ED78
:103D1000280F2A3050F536FE20C08AE0989E200DEC
:103D20001124922E06C08D3291F0803371F7689481
:103D300030F8F30193FD859193FF81913F0181114B
:103D4000DACF21C0689431F8689432F8F2CF6894E1
:103D500033F8EFCF689434F8ECCFEAE02E9E200DD4
:103D60001124222E689435F8E4CF8E3229F436FCE3
:103D700004C1689436F8DDCF8C3619F4689437F8AE
:103D8000D8CF8836B1F2982F9F7D95549330E0F0CC
:103D90008336A1F18337C1F1833509F063C028016F
:103DA000F2E04F0E511CF801C080D180692D70E007
:103DB00036FC02C06FEF7FEFC6010E9427204C0146
:103DC000689437F882010AC00C5F1F4FFFE3F98344
:103DD00088248394912C6501E89437F833FE2DC034
:103DE000522C8114910471F5552009F468CFB70164
:103DF00080E290E00E943D205A94F6CFF801808145
:103E000089830E5F1F4FE4CF2801F2E04F0E511C53
:103E1000F801C080D180692D70E036FC02C06FEFE0
:103E20007FEFC6010E9432204C018201D5CFB7013D
:103E300080E290E00E943D202A942814190409F0A1
:103E4000B0F7CECFF60137FC859137FE81916F0137
:103E5000B70190E00E943D2051105A94F1E08F1A72
:103E60009108BFCF843619F0893609F077C0F80180
:103E700037FE6BC060817181828193810C5F1F4F1F
:103E8000F32DFF763F2E97FF09C090958095709592
:103E900061957F4F8F4F9F4F689437F82AE030E04D
:103EA000A5010E946D20C82ECA188C2C432C36FE0A
:103EB0000CC0E89440F8C91440F434FE05C032FC4C
:103EC00003C0F32DFE7E4F2E892C44FE95C0FE01CB
:103ED000EC0DF11D8081803309F087C0242D297EEF
:103EE000422E842D8870582E43FC95C040FE8FC012
:103EF0009C2C821418F42C0C922C981844FE91C01F
:103F0000B70180E390E00E943D2042FE09C088E7AF
:103F100090E041FE02C088E590E0B7010E943D209C
:103F2000C91408F48AC0CA94D12C9FEFC91AD90ABF
:103F3000CA0CDB1CF60182916F01B70190E00E9470
:103F40003D20AC14BD04B1F74FCF60817181072EC5
:103F5000000C880B990B0E5F1F4F92CFD32CE89467
:103F6000D4F82AE030E0853739F1232D297FD22E8D
:103F70008F3601F148F48835A9F0F70186819781E1
:103F80002B96E2E10C94171B803749F08837A9F78C
:103F9000D4FE02C06894D2F820E130E00DC06894ED
:103FA000D4F8F6CF34FE03C0822F8660D82E20E1ED
:103FB00032E002C028E030E0F801D7FE0FC0608197
:103FC0007181828193810C5F1F4FA5010E946D203A
:103FD000C82ECA183D2CE89437F867CF60817181EC
:103FE00090E080E00E5F1F4FF0CF42FC02C0839450
:103FF00078CF8394839475CF842D867809F471CF1C
:10400000F6CFB70180E290E00E943D2083948214B5
:10401000C0F3512C73CF522C5818821408F46ECF71
:10402000F8CF842D867809F47BCF8BE241FE80E2C5
:1040300047FC8DE2B70190E071CFB70180E390E0DB
:104040000E943D209A946CCF8FEF9FEF99CFFC0197
:104050000590615070400110D8F7809590958E0FB3
:104060009F1F0895FC016150704001900110D8F726
:10407000809590958E0F9F1F08950F931F93CF9358
:10408000DF93182F092FEB018B8181FD09C01FEFF2
:104090000FEF812F902FDF91CF911F910F910895F6
:1040A00082FF14C02E813F818C819D8128173907A2
:1040B0003CF4E881F981CF010196998388831083CC
:1040C0008E819F8101969F838E83E3CFE885F9855A
:1040D000812F0995892BA1F3DACFFA01AA2728307D
:1040E00051F1203181F1E8946F936E7F6E5F7F4FC5
:1040F0008F4F9F4FAF4FB1E03ED0B4E03CD0670F41
:10410000781F891F9A1FA11D680F791F8A1F911D93
:10411000A11D6A0F711D811D911DA11D20D009F4E3
:1041200068943F912AE0269F11243019305D319325
:10413000DEF6CF010895462F4770405D4193B3E00E
:104140000FD0C9F7F6CF462F4F70405D4A3318F0B5
:10415000495D31FD4052419302D0A9F7EACFB4E066
:10416000A6959795879577956795BA95C9F700971E
:104170006105710508959B01AC010A2E06945795BF
:10418000479537952795BA95C9F7620F731F841F16
:10419000951FA01D089510E0C1E9D0E004C0FE0104
:1041A0000E94151C2196C239D107C9F7F894FFCF98
:1041B0000302010007060504373839413435364219
:1041C000313233432A3023440000B8068000000017
:1041D0000000AF03E6013B06AE030B042304960385
:1041E000000000000C06DF053B06AE03D805C50540
:1041F000B605000000003B039602650200000000C7
:104200007408E6013B06D7012F2F22225C5C62086E
:10421000660C6E0A720D7409000D0A00205B005DC9
:1042200020006E756C6C00652D00747275650066FB
:10423000616C736500253034642D253032642D2582
:1042400030326400253032643A253032643A253009
:1042500032640053746174696F6E5F4F6E65003035
:1042600030303100646573745F3100646573745F6E
:104270003200646573745F3300646573745F340087
:10428000646573745F3500646573745F36006465DC
:1042900073745F3700646573745F380064657374AA
:1042A0005F39002E2020002E2E20002E2E2E0020E2
:1042B0002057656C636F6D6520546F2045564443ED
:1042C000002053746174696F6E004C6F6164696E95
:1042D00067002020202020202020202020202020B7
:1042E00020202020202020202020202020202020CE
:1042F000202A2A2A2A2A2A2A2A2A2A2A2A2A2A2A28
:104300002A2A2A2A2A2A2A2A00202020202020207D
:10431000202020202020202020202020202020209D
:1043200020202020202020202A2047534D204D45AA
:10433000535341474520546F2045564443202A009B
:1043400020204D616368696E65494420202020204B
:10435000202053746174696F6E204E616D6520205A
:1043600020202020202044657374696E6174696F79
:104370006E202020202020202054696D65202020E0
:10438000202020202020202020446174650020204F
:104390003D3D3D3D3D3D3D3D3D2020202020202018
:1043A0003D3D3D3D3D3D3D3D3D3D3D3D20202020B1
:1043B000202020203D3D3D3D3D3D3D3D3D3D3D20BE
:1043C000202020202020203D3D3D3D202020202079
:1043D000202020202020203D3D3D3D00496E70756D
:1043E00074002D2D2D2D2D002043686F6F736520D7
:1043F00044657374696E6174696F6E002020204596
:10440000564443205365727669636500596F752081
:10441000686176652063686F6F73656E2000496E12
:1044200076616C69642044657374696E6174696F48
:104430006E00496E76616C696420496E70757421F6
:1044400000596F75204D75737420456E7465722028
:1044500000612044657374696E6174696F6E2046F3
:1044600069727374005072696E74696E67002020FF
:1044700020205468616E6B20796F752121202020E7
:104480002020004861766520412053616665204AFE
:104490006F75726E657900546F20002020202020F7
:1044A00020202020202020200054005A006D61632D
:1044B00068696E6549440064657374696E61746906
:1044C0006F6E007265675F64617465004A534F4E9A
:1044D0003A2000537461747573003D3D3D3D3D3D90
:1044E00000446174612053656E7420746F205365BD
:0644F00072766572000007
:00000001FF
