:020000040000FA
:100000000C9487000C94AF000C94AF000C94850DF9
:100010000C94850D0C94850D0C94AF000C94AF00DE
:100020000C94AF000C94AF000C94AF000C94AF0094
:100030000C94AF000C94AF000C94AF000C94AF0084
:100040000C943B0D0C94AF000C94090D0C94E30C34
:100050000C94AF000C94AF000C94AF000C94AF0064
:100060000C94FD0D0C94AF00CDCCCC3D0AD7233CB5
:1000700017B7D13877CC2B329595E6241FB14F0AAC
:100080000000803FCDCCCC3D6F12833A95BFD63374
:100090007D1D9026B3CE010C000020410000C84217
:1000A00000401C4620BCBE4CCA1B0E5AAEC59D74F7
:1000B00000000000240027002A00000000080002C1
:1000C0000100000304070000000000000000000021
:1000D0000000230026002900000000002500280061
:1000E0002B000404040404040404020202020202B9
:1000F00003030303030301020408102040800102EC
:1001000004081020010204081020180F22171124DF
:100110001FBECFEFD8E0DEBFCDBF26E0A2E2B4E045
:1001200001C01D92A43CB207E1F714E0A0E0B1E0E9
:10013000E0E5F8E302C005900D92A232B107D9F7CD
:1001400010E0C6E8D0E004C02197FE010E941A1A10
:10015000C538D107C9F70E94A9100C941B1C0C9438
:10016000000096E0899FD0011124A258BA4F9096C2
:100170007C936E935F9791E091969C939197E09119
:10018000EB05F091EC059091EA05992339F0309751
:1001900051F0811108C080919A050994309719F0A7
:1001A0005C968C91FACF08950895DB0114964D91D9
:1001B0005C9115976D917C91DC01ED91FC91028031
:1001C000F381E02D0994AF92BF92CF92DF92EF922C
:1001D000FF920F931F93CF93DF936C017B018B01F1
:1001E000040F151FEB015E01AE18BF08C017D10741
:1001F00059F06991D601ED91FC910190F081E02DCB
:10020000C6010995892B79F7C501DF91CF911F911F
:100210000F91FF90EF90DF90CF90BF90AF90089537
:10022000FC01538D448D252F30E0842F90E0821BFC
:10023000930B541710F0CF96089501970895FC0181
:10024000918D828D981761F0A28DAE0FBF2FB11DD9
:100250005D968C91928D9F5F9F73928F90E0089531
:100260008FEF9FEF0895FC01918D828D981731F0EB
:10027000828DE80FF11D858D90E008958FEF9FEF3F
:100280000895FC01918D228D892F90E0805C9F4F15
:10029000821B91098F739927089581EE94E00E9443
:1002A000410121E0892B09F420E0822F089580E0AC
:1002B00090E0892B29F00E944D0181110C940000DF
:1002C0000895FC01A48DA80FB92FB11DA35ABF4FEB
:1002D0002C91848D90E001968F739927848FA68945
:1002E000B7892C93A089B1898C91837080648C9399
:1002F000938D848D981306C00288F389E02D808148
:100300008F7D80830895EF92FF920F931F93CF9379
:10031000DF93EC0181E0888F9B8D8C8D98131AC040
:10032000E889F989808185FF15C09FB7F894EE8927
:10033000FF896083E889F989808183708064808384
:100340009FBF81E090E0DF91CF911F910F91FF90CF
:10035000EF900895F62E0B8D10E00F5F1F4F0F7377
:100360001127E02E8C8D8E110CC00FB607FCFACF32
:10037000E889F989808185FFF5CFCE010E9461016E
:10038000F1CFEB8DEC0FFD2FF11DE35AFF4FF08203
:100390009FB7F8940B8FEA89FB8980818062CFCF69
:1003A000CF93DF93EC01888D8823B9F0AA89BB89AC
:1003B000E889F9898C9185FD03C0808186FD0DC097
:1003C0000FB607FCF7CF8C9185FFF2CF808185FFB8
:1003D000EDCFCE010E946101E9CFDF91CF91089569
:1003E000833081F028F4813099F08230A9F00895AB
:1003F0008730A9F08830C9F08430B1F48091800052
:100400008F7D03C0809180008F7780938000089556
:1004100084B58F7784BD089584B58F7DFBCF80919F
:10042000B0008F778093B00008958091B0008F7DE9
:10043000F9CFCF93DF93282F30E0F901E654FF4F37
:100440008491F901EA50FF4FD491F901EE51FF4F29
:10045000C491CC23A1F081110E94F001EC2FF0E0B7
:10046000EE0FFF1FE253FF4FA591B491EC91ED23E6
:1004700081E090E009F480E0DF91CF91089580E081
:1004800090E0FACF862F0C9419021F93CF93DF933D
:10049000282F30E0F901E654FF4F8491F901EA502A
:1004A000FF4FD491F901EE51FF4FC491CC23A9F035
:1004B000162F81110E94F001EC2FF0E0EE0FFF1FCC
:1004C000E852FF4FA591B4918FB7F894EC911111B8
:1004D00008C0D095DE23DC938FBFDF91CF911F91B1
:1004E0000895DE2BF8CF862F642F0C944502CF930E
:1004F000DF9390E0FC01EA50FF4F24918E519F4F13
:10050000FC0184918823C9F090E0880F991FFC01B9
:10051000E055FF4FA591B491FC01E852FF4FC59102
:10052000D49161110DC09FB7F8948C9120958223CE
:100530008C938881282328839FBFDF91CF910895D2
:10054000623051F49FB7F8943C91822F80958323B9
:100550008C93E8812E2BEFCF8FB7F894EC912E2B54
:100560002C938FBFEACF862F642F0C9477023FB76E
:10057000F8948091D8049091D904A091DA04B091B4
:10058000DB0426B5A89B05C02F3F19F00196A11DDD
:10059000B11D3FBFBA2FA92F982F8827BC01CD01CD
:1005A000620F711D811D911D42E0660F771F881F2C
:1005B000991F4A95D1F708958F929F92AF92BF925B
:1005C000CF92DF92EF92FF924B015C010E94B70243
:1005D0006B017C010E94B7026C197D098E099F098D
:1005E000683E734081059105A8F321E0821A9108C5
:1005F000A108B10888EEC80E83E0D81EE11CF11CEA
:1006000081149104A104B10429F7FF90EF90DF90C9
:10061000CF90BF90AF909F908F9008952FB7F89490
:100620006091D4047091D5048091D6049091D70440
:100630002FBF08950F931F93CF93DF93C82FD62F0B
:1006400086E0C89FF0011124E258FA4F11A2878D6D
:1006500090A181309105F1F058F082309105F1F1CF
:10066000039709F440C0DF91CF911F910F91089536
:100670006623C9F361E070E08C2F0E94B1000E94F4
:100680000E036093D6057093D7058093D805909399
:10069000D905E9CF0E940E030091D6051091D70528
:1006A0002091D8053091D905AB01BC01401B510BFD
:1006B000620B730B8091E8059091E905B0E0A0E032
:1006C00084179507A607B70748F462E070E08C2FFF
:1006D000DF91CF911F910F910C94B10063E070E016
:1006E000D111C1CFF4CF70E060E0F1CF0F931F9331
:1006F0000E940E036093E9047093EA048093EB0474
:100700009093EC0481EE94E00E941F0197FF1DC0BE
:100710000E940E030091E9041091EA042091EB0479
:100720003091EC04601B710B820B930B0091E5047C
:100730001091E6042091E7043091E80460177107F6
:1007400082079307F8F28FEF9FEF1F910F910895A3
:100750002091DE043091DF042817390771F490915D
:10076000DC048091DD04981741F0E091DC04F0E0B6
:10077000ED56FB4F808190E008958FEF9FEF089535
:100780000895EF92FF920F931F93CF93DF93DC01B5
:100790005C96ED90FC905D97E114F10479F481E0B2
:1007A00090E013969C938E93129790E080E0DF91F7
:1007B000CF911F910F91FF90EF9008955196ED9179
:1007C000FC91529750968C915097982F90950FB717
:1007D0005E962C915E97122F127021FD6095F89411
:1007E0002081112319F1282B2083E7012197F1F7AC
:1007F00028E0462F50E0308160FF1AC0382B30834C
:10080000E7012197F1F7BA0175956795215089F7AE
:10081000112381F08081892380830FBF5C968D91A5
:100820009C910197F1F781E090E0C1CF2923DCCFC3
:100830003923E5CF9081892BEFCF2091DE043091D1
:10084000DF042817390771F48091DD042091DC045E
:1008500090E0805C9F4F821B910960E470E00E94F1
:10086000D019089590E080E008952091DE04309141
:10087000DF0428173907B9F49091DC048091DD0476
:10088000981789F0E091DC04F0E0ED56FB4F808191
:100890002091DC0430E02F5F3F4F2F7333272093EC
:1008A000DC0490E008958FEF9FEF089520914904B4
:1008B000260F3327331F21323105ECF420916D04CC
:1008C000FC0190E080E0243069F082E00895A0917E
:1008D00049042191AC01475D5B4FA40FB52FB11DB9
:1008E0002C930196861798F380914904680F6093C2
:1008F000490480E0089581E008958FEF9FEF089507
:100900008FEF9FEF08958091220490E0919581955B
:1009100091090895CF93DF93CB01EA01642F0E94E0
:100920005604CE01DF91CF910895CF93DF931F92AC
:10093000CDB7DEB7698361E0CE0101960E9456040F
:1009400081E090E00F90DF91CF91089590E080E0FA
:100950000895CF93DF93EC0188819981DC01ED91BB
:10096000FC910190F081E02D09952A813B81820F55
:10097000931F9B838A83DF91CF910895CF93DF9359
:10098000EC0188819981DC01ED91FC910280F38179
:10099000E02D09952A813B81820F931F9B838A83D7
:1009A000DF91CF910895EF92FF920F931F93CF9312
:1009B000DF93CDB7DEB766970FB6F894DEBF0FBEF4
:1009C000CDBF8C01CB01FE0177969F014AE0E42E5A
:1009D000F12CB7010E94D019805D8293CB01009762
:1009E000C1F7A9014E1B5F0BBF01C8010E94BE04E5
:1009F00066960FB6F894DEBF0FBECDBFDF91CF91E4
:100A00001F910F91FF90EF9008958F929F92AF9258
:100A1000BF92CF92DF92EF92FF920F931F93CF93EB
:100A2000DF93CDB7DEB766970FB6F894DEBF0FBE83
:100A3000CDBF6C018E01095E1F4F78018AE0882EC0
:100A4000912CA12CB12CCB01BA01A50194010E94DB
:100A5000E419942F852F605DF80162938F01A9013D
:100A6000692F782F411551056105710561F7A701BF
:100A70004E1B5F0BBF01C6010E94BE0466960FB6F7
:100A8000F894DEBF0FBECDBFDF91CF911F910F91C4
:100A9000FF90EF90DF90CF90BF90AF909F908F909E
:100AA0000895EF92FF920F931F93CF93DF93EC0182
:100AB0007B0162E20E94A9048701F80161918F0124
:100AC000662391F0E8E5F1E0F280FF2049F03296EC
:100AD00081816813F9CF6CE5CE010E94A9046F2DC6
:100AE000CE010E94A904E9CF62E2CE01DF91CF914D
:100AF0001F910F91FF90EF900C94A904FC012581A8
:100B0000222339F0F8E02F0290011124820F931F65
:100B1000089590E080E00895CF93DF93EC0160E0CA
:100B20008E810E94450261E08E810E94450260E054
:100B30008E810E9445028BE891E00197F1F7DF91E9
:100B4000CF910895CF92DF92EF92FF920F931F9370
:100B5000CF93DF936C017C0187E0E80EF11CD0E0BD
:100B6000C0E0062F10E0B8010C2E02C07595679505
:100B70000A94E2F76170F70181917F010E944502BA
:100B80002196C430D10579F7C601DF91CF911F912D
:100B90000F91FF90EF90DF90CF900C948C05CF9247
:100BA000DF92EF92FF920F931F93CF93DF93EC01AD
:100BB000F62E642F8C810E9445028D818F3F19F0A3
:100BC00060E00E9445020F2D10E08F8584FF25C054
:100BD0006E0187E0C80ED11CF12CE12CB8010E2C5F
:100BE00002C0759567950A94E2F76170F6018191EC
:100BF0006F010E944502FFEFEF1AFF0A88E0E81636
:100C0000F10461F7CE01DF91CF911F910F91FF9019
:100C1000EF90DF90CF900C948C05B80184E075952F
:100C200067958A95E1F7CE010E94A2056F2DCE014E
:100C3000DF91CF911F910F91FF90EF90DF90CF90B8
:100C40000C94A20540E0682F8DEE95E00C94CF0542
:100C500081E00E9422068BE39FE10197F1F708955E
:100C6000CF93DF93613029F09091FC0598609093C9
:100C7000FC05609300061092010690E49093020632
:100C800080930306805C8093040661E08091F10507
:100C90000E9477028091F2058F3F19F061E00E9477
:100CA000770261E08091F3050E947702CDEED5E0F6
:100CB0009E012D5E35408091FC0584FD0BC084E0D3
:100CC00090E021962817390744F461E08E810E9454
:100CD0007702EECF88E090E0F4CF8BE39DE00197C0
:100CE000F1F760E08091F1050E94450260E080919B
:100CF000F3050E9445028091F2058F3F19F060E0F4
:100D00000E9445028091FC0584FD34C063E08DEEB5
:100D100095E00E94A205CBE4D6E4CE010197F1F75D
:100D200063E08DEE95E00E94A2052197F1F763E064
:100D30008DEE95E00E94A20583E592E00197F1F720
:100D400062E08DEE95E00E94A2058091FC05806234
:100D50000E94220684E08093FD058CE00E9422061A
:100D60000E94280682E08093FE0586E0DF91CF9105
:100D70000C94220680620E9422068BE496E401977E
:100D8000F1F78091FC0580620E94220683E592E0E3
:100D90000197F1F78091FC0580620E942206D5CF71
:100DA00090910006691710F06FEF690FE62FF0E0E1
:100DB000E351FA4F9489890F80680C94220641E030
:100DC0000E94CF0581E090E00895CF93DF93EC017E
:100DD00088819981009711F00E94BC1A19821882AB
:100DE0001D821C821B821A82DF91CF910895FC0123
:100DF00080819181009711F00C94BC1A0895FB0139
:100E000001900020E9F73197AF01461B570BDC0139
:100E1000ED91FC910280F381E02D0994CF93DF9353
:100E2000BC018DEE95E00E94D500EC0169E671E011
:100E30008DEE95E00E94FF068C0F9D1FDF91CF91F4
:100E400008950F931F93CF93DF93EC010E94FF0649
:100E50008C0169E671E0CE010E94FF06800F911FB0
:100E6000DF91CF911F910F9108950C94FF06AF92DF
:100E7000BF92CF92DF92EF92FF920F931F93CF9387
:100E8000DF93CDB7DEB7A1970FB6F894DEBF0FBEE4
:100E9000CDBF5C016CE671E08DEE95E00E943507F8
:100EA00065010B2C000CEE08FF08F7FE51C041E075
:100EB0006DE28DEE95E00E94CF0522273327A90130
:100EC0002C193D094E095F0919A28E010F5D1F4FB4
:100ED0009AE0C92ED12CE12CF12CCA01B901A7014D
:100EE00096010E94E419605DF80162938F0121155B
:100EF00031054105510589F70115110529F0B801A2
:100F00008DEE95E00E94FF066FE671E08DEE95E0B4
:100F10000E943507F1E0AF1AB10826E02A9DC00112
:100F20002B9D900D11248C5D994F0E940E07A19668
:100F30000FB6F894DEBF0FBECDBFDF91CF911F91EA
:100F40000F91FF90EF90DF90CF90BF90AF900895FA
:100F5000A701960119A28E010F5D1F4F8AE0C82ECE
:100F6000D12CE12CF12CCA01B901A70196010E94F4
:100F7000E419605DF80162938F0121153105410587
:100F8000510589F7B9CFFB0101900020E9F73197AE
:100F9000AF01461B570B0C94BE042F923F924F9209
:100FA0005F926F927F928F929F92AF92BF92CF92F9
:100FB000DF92EF92FF920F931F93CF93DF93CDB702
:100FC000DEB766970FB6F894DEBF0FBECDBF8C01BB
:100FD0001B01DC0114968C9114978F77863009F4ED
:100FE00063C278F48230B0F0843008F044C21296C4
:100FF0004D915C9113976D917C91C1010E94BE044B
:1010000036C28C3069F160F4883009F448C28A3005
:1010100009F437C262E771E0C1010E94C30727C229
:10102000803209F4FCC18034A9F76BE5C1010E944C
:10103000A904F801008111810115110509F4EAC123
:10104000B101C8010E94CD07C8010E947E058C0134
:10105000892B09F4DFC16CE2C1010E94A904ECCF25
:10106000F801C080D180E280F380A7019601C7011A
:10107000B6010E94D417882331F062E771E0C10104
:101080000E94C3079FC120E030E0A901C701B6015B
:101090000E94D417882371F0A7019601C701B601F9
:1010A0000E9430199B01AC01C701B6010E94D41700
:1010B000882319F320E030E0A901C701B6010E949E
:1010C000D41787FF08C06DE2C1010E94A904F7FA96
:1010D000F094F7F8F09420E836E948E15BE4C701C2
:1010E000B6010E94CB1987FD81C064E1A62EB12C08
:1010F00000E210E01A8A198AF501E856FF4F25919F
:10110000359145915491C701B6010E94CB1987FDD5
:1011100013C0F501E859FF4F259135914591549140
:10112000C701B6010E943A186B017C0129893A89EE
:10113000200F311F3A8B298B1595079534E0A31AA0
:10114000B1088CEFA8168FEFB806B1F655245A9463
:1011500020E030E0A901C701B6010E94CB191816A2
:101160000CF04BC02CEA35EC47E257E3C701B6015F
:101170000E94D41718160CF440C0A52DB4E0AB02A1
:10118000C0011124B12CA12CFC01E058FF4F3F01FC
:101190009C0128563F4F49013FEF531671F1F3016F
:1011A000EA0DFB1D6591759185919491A7019601BA
:1011B0000E94CB1918169CF4F401EA0DFB1D259131
:1011C000359145915491C701B6010E943A186B01BF
:1011D0007C0189899A89801B910B9A8B898B159543
:1011E00007955A9494E0A91AB108D6CF00E210E00E
:1011F00045E0542E1A8A198AABCFC701B6010E9466
:101200009C194B015C012B013C0106E080E492E457
:10121000AFE0B0E08B8B9C8BAD8BBE8B102F015061
:101220009AE04916510461047104C8F06B897C8905
:101230008D899E892AE030E040E050E00E94E41968
:101240002B8B3C8B4D8B5E8BC301B2012AE030E0CF
:1012500040E050E00E94E41929013A01DFCFC501C6
:10126000B4010E94D9179B01AC01C701B6010E94CD
:101270002F196B017C016B897C898D899E890E9465
:10128000D9179B01AC01C701B6010E943A182B0186
:101290003C010E949C196B017C010E94D9179B01A3
:1012A000AC01C301B2010E942F199B01AC010E9445
:1012B00030190E949C19C60ED71EE81EF91E8B8994
:1012C0009C89AD89BE89C816D906EA06FB06D8F006
:1012D0009FEF891A990AA90AB90AA989BA89AB2B79
:1012E00039F1BAE08B169104A104B10408F1E9893F
:1012F000FA893196FA8BE98BC12CD12C7601812C9D
:10130000912C540183949AE0492E512C612C712C1C
:10131000C701B601A30192010E94E419672B682B53
:10132000692B51F4111644F469017A011150F0CF80
:10133000C12CD12C7601E7CFB501A401C1010E94D7
:101340000505112371F14E01F1E18F0E911C012F62
:1013500054018AE0482E512C612C712C015068F008
:10136000C701B601A30192010E94E419605DD40196
:101370006E934D0169017A01F1CF812F90E0BC019C
:1013800060957095F501E81BF90B31978EE280832B
:1013900044275527461B570B6A0D7B1DC1010E9430
:1013A000BE04E989FA89F7FF2AC067E771E0C10145
:1013B0000E94C30769897A89719561957109C10194
:1013C0000E94D304D10112968D919C9166960FB61E
:1013D000F894DEBF0FBECDBFDF91CF911F910F916B
:1013E000FF90EF90DF90CF90BF90AF909F908F9045
:1013F0007F906F905F904F903F902F900895298934
:101400003A89232BF9F265E6C1010E94A904698992
:101410007A89D5CF6DE5C1010E94A904D3CF6BE7CE
:10142000C1010E94A904F801008111810115110573
:10143000D1F0D80116966D917C91C1010E945105A1
:101440006AE3C1010E94A904B101C8010E94CD074D
:10145000C8010E947E058C01892B29F06CE2C10134
:101460000E94A904E3CF6DE7C1010E94A904F10124
:1014700082819381ABCF6D917C91C1010E94510516
:10148000F6CFCD90DD90ED90FC906DE2C1010E9411
:10149000A904B701A601C1010E940505E8CF4D913D
:1014A0005D916D917C91F7CFF80180819181A2814E
:1014B000B3816AE771E0892B8A2B8B2B09F0DFCD92
:1014C0006FE771E0DCCDCF93DF9300D000D000D088
:1014D000CDB7DEB77A8369831C821B82BE016F5F42
:1014E0007F4F0A960E94CD0726960FB6F894DEBF6E
:1014F0000FBECDBFDF91CF9108950F931F93CF9370
:10150000DF938C01EB01FC01808191810097E1F078
:101510006881798161157105A9F0428153812C811F
:101520003D814217530770F00E94141C8C819D81ED
:10153000F801958384831D821C82DF91CF911F91D6
:101540000F9108950E94BC1A88819981F8019183B6
:1015500080838A819B81938382838C819D81958303
:101560008483198218821B821A82E5CF0F931F93FE
:10157000CF93DF93EC0188819981009759F02A81FC
:101580003B812617370730F081E0DF91CF911F9123
:101590000F9108958B016F5F7F4F0E94451B00974D
:1015A00059F0998388831B830A832C813D81232BE7
:1015B00059F7FC011082E8CF80E0E7CFEF92FF926D
:1015C0000F931F93CF93DF936115710541F480E072
:1015D000DF91CF911F910F91FF90EF9008954115EA
:1015E0005105B1F07B01EC010C811D81040F151F29
:1015F000B8010E94B60A882351F3288139818C8171
:101600009D81B701820F931F0E94141C1D830C83C0
:1016100081E0DECFEF92FF920F931F93CF93DF9382
:10162000EC017B018A01BA010E94B60A81110BC04C
:10163000CE010E94E506CE01DF91CF911F910F915F
:10164000FF90EF9008951D830C83B70188819981E5
:101650000E94141CF0CFFB0101900020E9F73197A4
:10166000AF01461B570B0C940A0BFB01DC011196D2
:101670001C921E9213961C921E92129715961C9203
:101680001E9214978617970749F060817181611542
:10169000710521F0448155810C940A0B0895FC01D9
:1016A000118210821382128215821482FB01019032
:1016B0000020E9F73197AF01461B570B0C940A0B3A
:1016C0000F931F93CF93DF9300D0CDB7DEB78C017C
:1016D00068E671E00E944F0B0E94760397FD0BC0F5
:1016E00089831A8241E050E0BE016F5F7F4FC801DD
:1016F0000E94DE0AF1CFC8010F900F90DF91CF91C9
:101700001F910F9108951F93CF93DF9385ED8093E1
:10171000BC008091250490912604A0912704B091EB
:1017200028040796A11DB11D23E0B695A7959795AE
:1017300087952A95D1F72091BC0024FD03C0109213
:101740006D0452C0409125045091260460912704F5
:1017500070912804452B462B472B69F30097A10570
:10176000B10541F025E32A95F1F700000197A109A1
:10177000B109E1CF80912404C1E0C0932304882300
:1017800099F1D091B8001091BA008091BC008A7B89
:101790008093BC0060E082E10E94450260E083E14A
:1017A0000E94450210926D04C0936F0410926E0463
:1017B00061E082E10E94450261E083E10E9445020E
:1017C0008091B9008E7F8093B9008091B9008D7FA0
:1017D0008093B90088E48093B80085E48093BC00CE
:1017E0001093BA00D093B800DF91CF911F91089564
:1017F000CF92DF92EF92FF920F931F93CF93DF93DD
:10180000FC018481982F9F7739F4807880628483EB
:101810001182108213821282848185FD0CC0D0E077
:10182000C0E0CE01DF91CF911F910F91FF90EF901B
:10183000DF90CF9008956115710589F37A016B01EE
:101840008F01C081D1812097C1F16E817F816C159C
:101850007D0539F36115710529F0C6010E940B1C45
:10186000892BF9F2CE010E947E05EC01ECCFE90153
:101870002897F701D583C483209789F2D80112965F
:10188000ED91FC911397309791F0CE018E1B9F0B39
:1018900023E0959587952A95E1F785831396DC9348
:1018A000CE9312971D821C82DF82CE82BACFF801BE
:1018B000D183C083D383C283F5CFD70114962D91F2
:1018C0003C91159712968D919C910896281739078F
:1018D00070F681E0D70118968C93A3CFAF92BF9298
:1018E000CF92DF92EF92FF920F931F93CF93DF93EC
:1018F000EC01892BE9F1DB012D913C91211531059A
:1019000029F48C8180788C8381E033C05A01DA011C
:10191000ED91FC91119712960D911C91E017F10732
:1019200090F47901CF01D7014D917D016C01BFEF9A
:10193000CB1ADB0ADC015C91451326C0C6014111BC
:10194000F2CF3097C9F5FB01E480F580C70101961D
:10195000800F911FD50114962D913C911597281752
:101960003907C0F481E018968C938C8180788C8341
:1019700080E0DF91CF911F910F91FF90EF90DF906A
:10198000CF90BF90AF900895FC014191CF014111DC
:10199000FBCFC4CFF501938382830115110529F391
:1019A000DB016D917C91A701C8010E94021CF80126
:1019B000EE0DFF1D1082F8018C81807885608C838C
:1019C000F983E883A1CF1F920F920FB60F921124D3
:1019D0002F933F934F935F936F937F938F939F9337
:1019E000AF93BF93EF93FF9381EE94E00E94610168
:1019F000FF91EF91BF91AF919F918F917F916F91E7
:101A00005F914F913F912F910F900FBE0F901F90BC
:101A100018951F920F920FB60F9211242F938F9348
:101A20009F93EF93FF93E091F104F091F204808192
:101A3000E091F704F091F80482FD1BC09081809141
:101A4000FA048F5F8F732091FB04821741F0E091BD
:101A5000FA04F0E0EF51FB4F958F8093FA04FF9169
:101A6000EF919F918F912F910F900FBE0F901F902C
:101A700018958081F4CF1F920F920FB60F92112408
:101A80002F933F938F939F93AF93BF938091D404F1
:101A90009091D504A091D604B091D7043091D3048D
:101AA00023E0230F2D3758F50196A11DB11D20937A
:101AB000D3048093D4049093D504A093D604B09318
:101AC000D7048091D8049091D904A091DA04B09100
:101AD000DB040196A11DB11D8093D8049093D90415
:101AE000A093DA04B093DB04BF91AF919F918F91E3
:101AF0003F912F910F900FBE0F901F90189526E8E1
:101B0000230F0296A11DB11DD2CF1F920F920FB6C7
:101B10000F9211242F933F934F935F936F937F9373
:101B20008F939F93AF93BF93EF93FF93E091DE0466
:101B3000F091DF04309749F0A685B7858585968DAD
:101B400091FF14C09C918923A1F4FF91EF91BF9163
:101B5000AF919F918F917F916F915F914F913F9145
:101B60002F910F900FBE0F901F9018959C91892375
:101B700061F7A389B4899C918589809589238C9389
:101B8000868997890197F1F7608D718DA685B78554
:101B9000558538E020E0CB010197F1F7822F90E0E6
:101BA00095958795282F4C91452309F02068315051
:101BB00091F7868D81FD20958091DD0490E001965E
:101BC0008F7399273091DC04381799F0A091DD04C8
:101BD000B0E0AD56BB4F2C938093DD04828D938D86
:101BE0000197F1F7A389B4898C919589892B8C93FE
:101BF000ACCF868D8160868FF1CF1F920F920FB68A
:101C00000F9211242F933F934F935F936F937F9382
:101C10008F939F93AF93BF93EF93FF938091B900FE
:101C2000887F803609F44AC0F0F5883209F4A5C0EF
:101C300018F5803109F499C0B8F4882309F4F5C087
:101C4000883009F492C0FF91EF91BF91AF919F91BD
:101C50008F917F916F915F914F913F912F910F9055
:101C60000FBE0F901F901895883109F486C08032FE
:101C700051F780936C0414C0803409F49BC040F485
:101C80008033B9F38833F9F680936C0485ECAEC0E9
:101C9000803509F483C0883509F494C0883499F6F6
:101CA0000E94830BD0CF883909F48AC038F5883771
:101CB00029F050F4883611F0803729F683E08093BC
:101CC0006D0410926B0455C0883809F479C08039CE
:101CD00019F0803809F0B7CF80916B04803208F09A
:101CE0006FC0E0916B0481E08E0F80936B04809154
:101CF000BB00F0E0E55BFB4F80833BC0803B39F0ED
:101D0000D0F4803A09F477C0883A09F09CCF84E097
:101D100080936D0410924A0410924904F0E0E0E0D0
:101D200009958091490481110FC081E08093490495
:101D30001092290409C0803C09F4A8CF883C09F41A
:101D4000A5CF883B09F07FCFE0914A0481E08E0F58
:101D500080934A04F0E0E75DFB4F80818093BB00F5
:101D600090914A048091490429C080919204809303
:101D7000BB0085EC8093BC0066CF9091910480916C
:101D80009004981758F5E091910481E08E0F8093AC
:101D90009104F0E0E059FB4F8081E9CFE09191049C
:101DA00081E08E0F809391048091BB00F0E0E059B8
:101DB000FB4F808390919104809190049817C8F212
:101DC00085E8D8CFE091910481E08E0F8093910453
:101DD0008091BB00F0E0E059FB4F808380916F045D
:101DE00081115ECF81E080936E0484EA8093BC0011
:101DF00010926D0428CF85EC8093BC0010926D0486
:101E000080916B04803230F4E0916B04F0E0E55B8C
:101E1000FB4F108260916B0470E08BE494E0F0E083
:101E2000E0E0099510926B040ECF10926C0438CF4D
:101E3000CF93DF931092E4041092E30488EE93E0D2
:101E4000A0E0B0E08093E5049093E604A093E7045B
:101E5000B093E80482E291E09093E2048093E1047D
:101E600085EC90E09093EE048093ED0484EC90E098
:101E70009093F0048093EF0480EC90E09093F20450
:101E80008093F10481EC90E09093F4048093F30448
:101E900082EC90E09093F6048093F50486EC90E059
:101EA0009093F8048093F7041092FA041092FB04C4
:101EB0001092FC041092FD0468E671E08AEB96E053
:101EC0000E944F0B68E671E084EB96E00E944F0B96
:101ED00068E671E08EEA96E00E944F0B68E671E0DA
:101EE00088EA96E00E944F0B65E871E082EA96E08E
:101EF0000E944F0B61E971E08CE996E00E944F0B64
:101F000066E971E084E296E00E944F0B6DE971E0B2
:101F10008AE296E00E944F0B64EA71E080E396E06B
:101F20000E944F0B6BEA71E086E396E00E944F0B34
:101F300062EB71E08CE396E00E944F0B69EB71E07D
:101F400082E496E00E944F0B60EC71E088E496E03A
:101F50000E944F0B67EC71E08EE496E00E944F0BFD
:101F60006EEC71E084E596E00E944F0BD0E0C0E09B
:101F700068E671E0CE01865A994F0E944F0B269673
:101F8000C234D105A9F7109208061092070688EE10
:101F900093E0A0E0B0E08093090690930A06A09336
:101FA0000B06B0930C068AE491E0909306068093AA
:101FB000050610921C0610921B0610921E06109227
:101FC0001D061092200610921F06109222061092F3
:101FD0002106609123066E7F6D7F609323066695D0
:101FE000617081E0682780E10E94450261E080E144
:101FF0000E947702E6E0F1E0E491E0931506E2EF5B
:10200000F0E0E491F0E0EE0FFF1FE852FF4F859102
:102010009491909317068093160660E081E10E94E8
:1020200077028091230681FD04C061E081E10E9476
:10203000450281E180931106E7E0F1E0E491E0934D
:102040001206E3EFF0E0E491F0E0EE0FFF1FE25341
:10205000FF4F8591949190931406809313061092EC
:10206000F0051092EF058EE391E09093EE058093DA
:10207000ED058DE08093F1058FEF8093F2058CE004
:102080008093F3058BE08093F4058AE08093F50557
:1020900089E08093F60588E08093F7051092F805B3
:1020A0001092F9051092FA051092FB051092FC05AA
:1020B00061E080E10E943006109280051092840554
:1020C000109283051092850584E391E090937F053B
:1020D00080937E05EAE9F5E010821482138215826E
:1020E000369685E0E63DF807B9F784E091E09093F5
:1020F000E1058093E00580E091E09093E305809313
:10210000E20584E08093E4058093E50588E091E0B2
:102110009093DF058093DE058AE090E09093E705D9
:102120008093E60584EF91E09093E9058093E805BC
:102130001092EC051092EB051092DA051092DB0577
:102140001092DC051092DD051092EA05DF91CF9127
:102150000895CF93DF93CDB7DEB7C255D1090FB63F
:10216000F894DEBF0FBECDBF789484B5826084BD85
:1021700084B5816084BD85B5826085BD85B581608B
:1021800085BD80916E00816080936E001092810009
:1021900080918100826080938100809181008160C4
:1021A0008093810080918000816080938000809185
:1021B000B10084608093B1008091B0008160809311
:1021C000B00080917A00846080937A0080917A00D8
:1021D000826080937A0080917A00816080937A0097
:1021E00080917A00806880937A001092C10061E04B
:1021F0008FE00E94770260E08FE00E94450264E079
:1022000084E10E943006E091F104F091F20482E052
:102210008083E091ED04F091EE041082E091EF04F0
:10222000F091F0048FEC80831092F904E091F504B2
:10223000F091F60486E08083E091F304F091F404D9
:10224000808180618083E091F304F091F4048081C7
:1022500088608083E091F304F091F40480818068C9
:102260008083E091F304F091F40480818F7D80837A
:102270001092200610921F0610921E0610921D0644
:1022800010921C0610921B068DE991E09093220695
:102290008093210690911106963108F047C02DEBEE
:1022A00030E030931C0620931B062BE931E030937D
:1022B0001E0620931D062CE231E030932006209369
:1022C0001F062091680084E0983048F031E09E308D
:1022D00008F430E081E001C0880F3A95EAF7822BDC
:1022E000809368002DE630E0983050F02BE630E027
:1022F0009E3030F02CE630E0963110F030E020E0F7
:102300003093190620931806292F30E0983008F0F2
:10231000DDC181E001C0880F9A95EAF780931A0623
:1023200080912106909122060197F1F780911F0676
:1023300090912006892B49F1E091DE04F091DF04B1
:1023400026E0E530F20709F1309739F0A389B48926
:102350009C918589809589238C93809123068E7F1B
:10236000809323061092DD041092DC0485E096E051
:102370009093DF048093DE04E0911806F091190633
:10238000808190911A06892B808381EE94E00E94CF
:102390004101892BD1F3CE0101960E94600BBE0151
:1023A0006F5F7F4F88EA96E00E947D0ACE0101961A
:1023B0000E94F70668EA76E0CE01865B9F4F0E9496
:1023C000350B66ED73E0CE0101960E944F0B65ED73
:1023D00071E0CE0107960E944F0B69ED71E0CE01CE
:1023E0000D960E944F0B6DED71E0CE0143960E9459
:1023F0004F0B0E94280661EE71E08DEE95E00E9481
:10240000210761E080E00E94D00662EA76E08DEE6E
:1024100095E00E94D50063EF71E08DEE95E00E949B
:10242000210762E081E00E94D006BE01665B7F4F1B
:10243000CE018C5B9F4F0E94350B2A964EAD5FAD4F
:102440002A9726962EAD3FAD2697FE01799690E00D
:1024500080E04E2E6196FFAF61978417950730F4A8
:10246000D901A80FB91F2115310521F41092E004FC
:10247000A0EEB4E06C91619301968A30910569F702
:10248000FE01B3968BE090E07E2E6F2E84179507A9
:1024900030F4D901A80FB91F2115310521F410928C
:1024A000E004A0EEB4E06C91619301968331910554
:1024B00069F7672D762DCE018C960E944F0B642D07
:1024C00061967FAD6197CE01C8960E944F0BBE0109
:1024D000685C7F4FCE01C2960E94350B42E050E00F
:1024E00067ED73E0CE01C2960E94DE0A811104C03E
:1024F000CE01C2960E94E50648A959A96CA57DA502
:10250000CE01C2960E94DE0A811104C0CE01C2969D
:102510000E94E506BE016E5C7F4FCE01CE960E9402
:10252000350BCE01C2960E94F706CE01C8960E94D6
:10253000F706CE018C960E94F706BE01625C7F4FC3
:102540008DEE95E00E94D500CE01CE960E94F70652
:10255000CE018C5B9F4F0E94F70664E670E080E03E
:1025600090E00E94DC0210E000E056E0F52E63E00F
:102570008AE00E94D0066CEF71E08DEE95E00E943B
:102580003507C80183709927F89EB001F99E700D38
:10259000112481E090E08C0F9D1F680F791F8DEE54
:1025A00095E00E94D50068EC70E080E090E00E9429
:1025B000DC020F5F1F4F0C301105C9F669E671E0B0
:1025C00081EE94E00E94FF0664E072E081EE94E008
:1025D0000E9421076BE372E081EE94E00E942107E4
:1025E00064E072E081EE94E00E94210768E671E009
:1025F00081EE94E00E94210762E772E081EE94E0B0
:102600000E94210760EC72E081EE94E00E942107B5
:10261000CE0143960E94F706CE010D960E94F70662
:10262000CE0107960E94F706CE0101960E94F7069A
:10263000CE01865B9F4F0E94F70664EF71E080E059
:1026400090E00E94DC020E94280668E671E088EAB9
:1026500096E00E942B0B68E671E0872D962D0E9474
:102660004F0B43E0242E312CF12CE12C91E0909380
:10267000EA050E940E030091DA051091DB05209116
:10268000DC053091DD05AB01BC01401B510B620B39
:10269000730B8091E6059091E705B0E0A0E0841708
:1026A0009507A607B70708F068C110E08091E40518
:1026B0001817C8F4E091E005F091E105E10FF11D74
:1026C00062E080810E9477021F5FF0CF9E3040F46D
:1026D0002850310981E001C0880F2A95EAF71ECE03
:1026E0002E503109F7CF512C8091E505581608F08E
:1026F0006BC0C52CD12CE091E205F091E305EC0D07
:10270000FD1D61E080810E947702E091E205F09179
:10271000E305EC0DFD1D60E080810E94450281E033
:1027200090E0A0E0B0E0052C04C0880F991FAA1F1C
:10273000BB1F0A94D2F74C01FC01E095F09563961B
:10274000FFAFEEAF6397B12C8091E405B81628F582
:102750000B2D10E0E091E005F091E105E00FF11F95
:1027600080810E9419020C5F1F4F000F111FF8019A
:10277000E258FA4F892B41F4808191818829992967
:1027800091838083B394E0CF8081918163962EAD55
:102790003FAD639782239323F3CFE091E205F0915D
:1027A000E305EC0DFD1D61E080810E9445028091F2
:1027B000E2059091E305C80ED91E60E0F601808124
:1027C0000E947702539490CF2EE7C22E25E0D22E9E
:1027D0008601F801878D90A1892B31F4148E2FEF9B
:1027E0003FEF368F258F11A20A5F1F4F8AEB95E0CE
:1027F0008017910771F7B12C8091E405B81608F0A5
:1028000053C0A12C8B2C912C880C991CF401EA57F5
:10281000FA4F4F012091E505A21608F043C0F401DC
:10282000608171810A2C02C0769567950A94E2F75F
:10283000B29E900111242A0D311DEEE7F5E080E0F3
:10284000458D568D2417350709F4FAC28F5F3696E9
:102850008A30B1F760FF24C0EEE7F5E090E080E059
:10286000448D411118C0E091DE05F091DF05E20FC3
:10287000F31F408156E0589FF001599FF00D11243D
:10288000E258FA4F448F368F258F10A2178E61E0E1
:102890000E941A0305C0019636968A30910501F709
:1028A000A394B8CFB394A8CFB12CF60181A1811124
:1028B000B82EF6E0CF0ED11CC016D106B1F70E949B
:1028C0000E036093DA057093DB058093DC0590932B
:1028D000DD05BB2009F451C080919F05882309F4D0
:1028E0004CC080919D0590919E05019709F045C0CF
:1028F00010919A05113409F0C1C0872D962D0E94C0
:10290000F7060E94280660E081E00E94D0066EE291
:1029100073E08DEE95E00E94210761E081E00E9466
:10292000D0066EE373E08DEE95E00E9435071E142D
:102930001F040CF0E4C062E05AE0E516F1040CF468
:10294000F9C081E00E94D00660E573E08DEE95E06D
:102950000E94210764EF71E080E090E00E94DC02B9
:1029600080E090E0892B09F470CE0E944D0188230D
:1029700009F46BCE0E94000068CE1092EA0510E0C8
:10298000E114F10409F481C0812F012E000C990B90
:10299000C0970A9798F419831A8241E050E0BE016B
:1029A0006F5F7F4F872D962D0E94DE0A8BA19CA121
:1029B000009709F4A0C00E9463177B010E942806BB
:1029C00061E08FE00E94D0066EE073E08DEE95E04E
:1029D0000E94210762E08FE00E94D00664E173E06C
:1029E0008DEE95E00E94210763E08FE00E94D00603
:1029F00064ED73E08DEE95E00E94210763E08FE0C7
:102A00000E94D006872D962D0E940E0760E080E080
:102A10000E94D0066AE173E08DEE95E00E942107E6
:102A200061E080E00E94D006C10102970E94370752
:102A300062E080E00E94D006C10101970E94370742
:102A400063E080E00E94D006C1010E94370768EC75
:102A500070E080E090E00E94DC022FEF221A320A40
:102A60003AE0231631041CF083E0282E312C6AE072
:102A700070E080E090E00E94DC02F8CD1A3229F08C
:102A8000123419F0E114F10441F468E671E0872D85
:102A9000962D0E942B0BF12CE12C133409F074CFEE
:102AA000C7016AE070E00E94D0197B011A8E198E6E
:102AB0001C8E1B8E1E8E1D8E4AE0BE016F5F7F4FE7
:102AC000C7010E948A17BE016F5F7F4F842D6196F8
:102AD0009FAD61970E942B0B642D61967FAD61972E
:102AE000872D962D0E947D0A842D61969FAD61975A
:102AF0000E94F70649CF60E070E0CB015ECF61E055
:102B000081E00E94D00664E673E08DEE95E00E94BD
:102B1000210762E081E00E94D00663E773E08DEE5A
:102B200095E00E94210763E081E00E94D00663E8FF
:102B300073E00CCF85E00E94D00681E0E81AF1082E
:102B400096E09E9D80019F9D100D11240C5D194FF4
:102B5000C8010E940E0763E088E00E94D00666ED7F
:102B600073E0CE0101960E944F0B65ED71E0CE013E
:102B700007960E944F0B69ED71E0CE010D960E9401
:102B80004F0B6DED71E0CE0143960E944F0B61E05B
:102B90008FE00E944502F12CE12C63E089E00E9465
:102BA000D00667E973E08DEE95E00E943507C70116
:102BB00083709927E6E0E89FB001E99F700D11242A
:102BC00021E030E02C0F3D1F620F731F8DEE95E06A
:102BD0000E94D50068EC70E080E090E00E94DC028A
:102BE0003FEFE31AF30A5CE0E516F104B1F660E0AA
:102BF0008FE00E944502CE0143960E94F706CE0167
:102C00000D960E94F706CE0107960E94F706CE01A8
:102C100001960E94F70661E081E00E94D00660EA1A
:102C200073E08DEE95E00E94210762E081E00E9452
:102C3000D00665EB73E08DEE95E00E94210763E01E
:102C400085E00E94D00669EC73E08DEE95E00E946D
:102C50003507C8010E940E0762ED73E08DEE95E026
:102C60000E94210767ED73E081EE94E00E94350732
:102C70006CE976E081EE94E00E94D5006DEC73E0A3
:102C800081EE94E00E94350762EA76E081EE94E0FE
:102C90000E94D50060ED73E081EE94E00E9435075C
:102CA000B80181EE94E00E94D50064EF71E080E00D
:102CB00090E00E94DC0281EE94E00E944101892BA9
:102CC000D1F3CE0101960E94600BBE016F5F7F4F72
:102CD00088EA96E00E947D0ACE0101960E94F706DE
:102CE00068EA76E0CE0149960E94350BB801CE0124
:102CF00083960E94350B6CE976E0CE018C960E949B
:102D0000350B80E890E00E94201A9C0120583F4F2C
:102D1000009711F430E020E09B838A839D838C83AD
:102D20003F832E83398728871A868F8580788F87FF
:102D3000AE014E5F5F4F6AED73E0CE010B960E94CD
:102D4000F80BAE014E5F5F4FBE01645D7F4F0E9486
:102D50006E0CAE014E5F5F4F64EE73E0CE010B96DA
:102D60000E94F80BAE014E5F5F4FBE016D5D7F4F5D
:102D70000E946E0CAE014E5F5F4F60EF73E0CE01BC
:102D80000B960E94F80BAE014E5F5F4FBE01675E6F
:102D90007F4F0E946E0C65E076E0CE0101960E94A6
:102DA000630A69EF73E081EE94E00E94350761EEFB
:102DB00074E0CE0101960E94630A68E671E081EE3C
:102DC00094E00E9421070E94280660E086E00E94AD
:102DD000D00660E074E08DEE95E00E94350761E07A
:102DE00086E00E94D00667E074E08DEE95E00E94D8
:102DF000350762E081E00E94D0066EE074E08DEE5F
:102E000095E00E9435078A819B819D838C8328856C
:102E100039853F832E831A862F8520782F87009748
:102E200011F00E94BC1ACE018C960E94F706CE01CA
:102E300083960E94F706CE0149960E94F7068ACD36
:102E4000617026CDCF93DF938AE491E090930606DC
:102E5000809305068091DE049091DF0485509640B2
:102E600071F4E0911806F0911906908180911A068C
:102E70008095892380831092DF041092DE04CCE9D0
:102E8000D6E02697CE010E94F70686E0C432D80726
:102E9000C1F78CE996E00E94F70682EA96E00E946C
:102EA000F70688EA96E00E94F7068EEA96E00E940E
:102EB000F70684EB96E00E94F7068AEB96E0DF9136
:102EC000CF910C94F7061F93FC0199278827BC012A
:102ED000E89411911032E9F3193010F01E30C8F364
:102EE0001B3251F01D3249F4689406C00E949517B8
:102EF000610F711D811D911D119110531A30B0F396
:102F00003EF490958095709561957F4F8F4F9F4FC0
:102F10001F910895BB274A3031F4992322F4BDE272
:102F2000909581959F4F0C94AB17592F482F372FB1
:102F3000262F660F771F881F991F660F771F881F20
:102F4000991F620F731F841F951F660F771F881FBD
:102F5000991F0895BB27FB015527AA27880F991FA2
:102F6000AA1FA41710F0A41B83955051B9F7A05DB8
:102F7000AA3308F0A95DA193009779F7B111B19335
:102F80001192CB010C94C417DC01FC01672F7191E5
:102F90007723E1F7329704C07C916D93708362913F
:102FA000AE17BF07C8F308950E94161808F481E011
:102FB0000895E89409C097FB3EF49095809570952C
:102FC00061957F4F8F4F9F4F9923A9F0F92F96E975
:102FD000BB279395F695879577956795B795F111EA
:102FE000F8CFFAF4BB0F11F460FF1BC06F5F7F4F87
:102FF0008F4F9F4F16C0882311F096E911C0772399
:1030000021F09EE8872F762F05C0662371F096E8A1
:10301000862F70E060E02AF09A95660F771F881F70
:10302000DAF7880F9695879597F90895990F000814
:10303000550FAA0BE0E8FEEF16161706E807F9078A
:10304000C0F012161306E407F50798F0621B730B25
:10305000840B950B39F40A2661F0232B242B252BA6
:1030600021F408950A2609F4A140A6958FEF811D49
:10307000811D08950E944D180C94BE180E94B0182E
:1030800038F00E94B71820F0952311F00C94A7187F
:103090000C94AD1811240C94F2180E94CF1870F300
:1030A000959FC1F3950F50E0551F629FF001729FED
:1030B000BB27F00DB11D639FAA27F00DB11DAA1FFC
:1030C000649F6627B00DA11D661F829F2227B00D49
:1030D000A11D621F739FB00DA11D621F839FA00DD4
:1030E000611D221F749F3327A00D611D231F849F24
:1030F000600D211D822F762F6A2F11249F5750407B
:103100009AF0F1F088234AF0EE0FFF1FBB1F661FF5
:10311000771F881F91505040A9F79E3F510580F0BE
:103120000C94A7180C94F2185F3FE4F3983ED4F384
:10313000869577956795B795F795E7959F5FC1F762
:10314000FE2B880F911D9695879597F9089597F90D
:103150009F6780E870E060E008959FEF80EC08953D
:1031600000240A9416161706180609060895002466
:103170000A9412161306140605060895092E0394E0
:10318000000C11F4882352F0BB0F40F4BF2B11F454
:1031900060FF04C06F5F7F4F8F4F9F4F089557FDB3
:1031A0009058440F551F59F05F3F71F04795880FB5
:1031B00097FB991F61F09F3F79F08795089512164C
:1031C00013061406551FF2CF4695F1DF08C01616F8
:1031D00017061806991FF1CF8695710561050894A9
:1031E0000895E894BB2766277727CB0197F90895C0
:1031F0002F923F924F925F926F927F928F929F9207
:10320000AF92BF92CF92DF92EF92FF920F931F93F4
:10321000CF93DF93CDB7DEB7CA1BDB0B0FB6F894A5
:10322000DEBF0FBECDBF09942A88398848885F84E5
:103230006E847D848C849B84AA84B984C884DF8056
:10324000EE80FD800C811B81AA81B981CE0FD11D3A
:103250000FB6F894DEBF0FBECDBFED0108955058F4
:10326000BB27AA270E9447190C94BE180E94B018C9
:1032700038F00E94B71820F039F49F3F19F426F473
:103280000C94AD180EF4E095E7FB0C94A718E92F09
:103290000E94CF1858F3BA1762077307840795077F
:1032A00020F079F4A6F50C94F1180EF4E0950B2EAD
:1032B000BA2FA02D0B01B90190010C01CA01A00188
:1032C0001124FF27591B99F0593F50F4503E68F1E3
:1032D0001A16F040A22F232F342F4427585FF3CF24
:1032E000469537952795A795F0405395C9F77EF4F5
:1032F0001F16BA0B620B730B840BBAF09150A1F03E
:10330000FF0FBB1F661F771F881FC2F70EC0BA0FC3
:10331000621F731F841F48F4879577956795B7954B
:10332000F7959E3F08F0B0CF9395880F08F0992746
:10333000EE0F9795879508950E94D71888F09F57AC
:1033400098F0B92F9927B751B0F0E1F0660F771FC9
:10335000881F991F1AF0BA95C9F714C0B13091F0BF
:103360000E94F118B1E008950C94F118672F782F9E
:103370008827B85F39F0B93FCCF386957795679584
:10338000B395D9F73EF490958095709561957F4FF0
:103390008F4F9F4F08950E94161808F48FEF0895DD
:1033A00097FB072E16F4009407D077FD09D00E94F2
:1033B000061A07FC05D03EF4909581959F4F08951D
:1033C000709561957F4F0895A1E21A2EAA1BBB1B31
:1033D000FD010DC0AA1FBB1FEE1FFF1FA217B307E1
:1033E000E407F50720F0A21BB30BE40BF50B661FF7
:1033F000771F881F991F1A9469F7609570958095BB
:1034000090959B01AC01BD01CF010895AA1BBB1B88
:1034100051E107C0AA1FBB1FA617B70710F0A61BD4
:10342000B70B881F991F5A95A9F780959095BC01F5
:10343000CD010895EE0FFF1F0590F491E02D099442
:103440000F931F93CF93DF938230910510F482E0A6
:1034500090E0E091C206F091C30630E020E0B0E0D9
:10346000A0E0309799F42115310509F44AC0281BD2
:10347000390B24303105D8F58A819B81611571059E
:1034800089F1FB0193838283FE0111C04081518148
:103490000281138148175907E0F04817590799F43A
:1034A000109761F012960C93129713961C93329614
:1034B000CF01DF91CF911F910F9108950093C20624
:1034C0001093C306F4CF2115310551F0421753076D
:1034D00038F0A901DB019A01BD01DF01F801C1CF7C
:1034E000EF01F9CF9093C3068093C206CDCFFE01C2
:1034F000E20FF31F8193919322503109398328837E
:10350000D7CF2091C0063091C106232B41F42091E2
:103510001A0130911B013093C1062093C0062091FF
:103520001801309119012115310541F42DB73EB72D
:1035300040911C0150911D01241B350BE091C006E8
:10354000F091C106E217F307A0F42E1B3F0B2817DA
:10355000390778F0AC014E5F5F4F2417350748F00C
:103560004E0F5F1F5093C1064093C0068193919305
:103570009FCFF0E0E0E09CCFCF93DF930097E9F09E
:10358000FC01329713821282A091C206B091C30649
:10359000ED0130E020E01097A1F420813181820F0D
:1035A000931F2091C0063091C1062817390709F0F2
:1035B00061C0F093C106E093C006DF91CF910895FA
:1035C000EA01CE17DF07E8F54A815B819E014115CC
:1035D0005105B1F7E901FB83EA8349915991C40F81
:1035E000D51FEC17FD0761F4808191810296840F4D
:1035F000951FE90199838883828193819B838A83C4
:10360000F0E0E0E012968D919C9113970097B9F548
:103610002D913C911197CD010296820F931F20911D
:10362000C0063091C1062817390739F6309751F591
:103630001092C3061092C206B093C106A093C006B2
:10364000BCCFD383C28340815181840F951FC8179B
:10365000D90761F44E5F5F4F88819981480F591FE8
:10366000518340838A819B81938382832115310515
:1036700009F0B0CFF093C306E093C2069ECFFD01E0
:10368000DC01C0CF13821282D7CFB0E0A0E0EBE420
:10369000FBE10C94FA188C01009751F4CB010E94C5
:1036A000201A8C01C801CDB7DEB7E0E10C941619E1
:1036B000FC01E60FF71F9C0122503109E217F307C6
:1036C00008F49DC0D901CD91DC911197C617D70799
:1036D00098F0C530D10530F3CE01049786179707CF
:1036E00008F3C61BD70B2297C193D1936D937C939C
:1036F000CF010E94BC1AD6CF5B01AC1ABD0A4C01A7
:103700008C0E9D1EA091C206B091C306512C412C77
:10371000F12CE12C109731F58091C0069091C106F3
:103720008815990509F05CC04616570608F058C080
:103730008091180190911901009741F48DB79EB7BF
:1037400040911C0150911D01841B950BE817F9074E
:1037500008F055C0F093C106E093C006F9017183EB
:103760006083A0CF8D919C91119712966C901297C7
:1037700013967C901397A815B90559F56C0142E092
:10378000C40ED11CCA14DB0420F1AC014A195B0938
:10379000DA011296159780F062827382518340831A
:1037A000D9016D937C93E114F10471F0D701139664
:1037B000FC93EE93129776CF22968C0F9D1FF90102
:1037C00091838083F301EFCFF093C306E093C206A9
:1037D00069CF4816590608F42C017D01D3019ACF10
:1037E000CB010E94201A7C01009749F0AE01B8017C
:1037F0000E94021CC8010E94BC1A870153CF10E02E
:1038000000E050CFFB01DC0102C001900D9241505D
:103810005040D8F70895FB01DC018D91019080198B
:103820000110D9F3990B0895FB01DC0101900D9271
:103830000020E1F7089510E0C6E8D0E004C0FE01E2
:103840000E941A1A2196C738D107C9F7F894FFCFFA
:103850000302010007060504373839413435364282
:10386000313233432A3023440000C4068000000074
:1038700000008301E3001001D00141011F01330169
:1038800000000000B3027302420200000000DF06E5
:10389000E300A604D40000000000C103E300A60476
:1038A000C0031D043504A8032F2F22225C5C62088C
:1038B000660C6E0A720D7409000D0A00205B005D33
:1038C00020006E756C6C00652D0074727565006665
:1038D000616C73650053746174696F6E5F4F6E65E0
:1038E000003030303100646573745F31006465739B
:1038F000745F3200646573745F3300646573745F72
:103900003400646573745F3500646573745F3600FA
:10391000646573745F3700646573745F3800646551
:1039200073745F39002E2020002E2E20002E2E2EA4
:1039300000202057656C636F6D6520546F204556DD
:103940004443002053746174696F6E004C6F61646E
:10395000696E6700202020202020202020202020A9
:103960002020202020202020202020202020202057
:103970002020202A2A2A2A2A2A2A2A2A2A2A2A2AC5
:103980002A2A2A2A2A2A2A2A2A2A002020202020F3
:103990002020202020202020202020202020202027
:1039A000202020202020202020202A2047534D2086
:1039B0004D45535341474520546F204556444320BD
:1039C0002A0020204D616368696E654944202020EB
:1039D0002020202053746174696F6E204E616D65E4
:1039E000202020202020202044657374696E61749B
:1039F000696F6E202020202020202054696D6520D2
:103A000020202020202020202020204461746500D8
:103A100020203D3D3D3D3D3D3D3D3D2020202020A1
:103A200020203D3D3D3D3D3D3D3D3D3D3D3D20203A
:103A30002020202020203D3D3D3D3D3D3D3D3D3D64
:103A40003D20202020202020203D3D3D3D202020E5
:103A50002020202020202020203D3D3D3D00496E9B
:103A6000707574002D2D2D2D2D002043686F6F7300
:103A7000652044657374696E6174696F6E002020FF
:103A80002045564443205365727669636500596F3B
:103A90007520686176652063686F6F73656E2000BE
:103AA000496E76616C69642044657374696E6174F3
:103AB000696F6E00496E76616C696420496E70753D
:103AC000742100596F75204D75737420456E7465AF
:103AD000722000612044657374696E6174696F6E51
:103AE000204669727374005072696E74696E670063
:103AF000202020205468616E6B20796F7521212071
:103B000020202020004861766520412053616665B1
:103B1000204A6F75726E657900546F200020202056
:103B2000202020202020202020006D616368696E05
:103B30006549440064657374696E6174696F6E00F1
:103B40007265675F64617465004A534F4E3A2000A6
:103B5000537461747573003D3D3D3D3D3D004461CE
:103B600074612053656E7420746F2053657276659E
:023B70007200E1
:107E0000112484B714BE81FFF0D085E080938100F7
:107E100082E08093C00088E18093C10086E0809377
:107E2000C20080E18093C4008EE0C9D0259A86E02C
:107E300020E33CEF91E0309385002093840096BBD3
:107E4000B09BFECF1D9AA8958150A9F7CC24DD24C4
:107E500088248394B5E0AB2EA1E19A2EF3E0BF2EE7
:107E6000A2D0813461F49FD0082FAFD0023811F036
:107E7000013811F484E001C083E08DD089C08234E0
:107E800011F484E103C0853419F485E0A6D080C0E4
:107E9000853579F488D0E82EFF2485D0082F10E0AE
:107EA000102F00270E291F29000F111F8ED06801E7
:107EB0006FC0863521F484E090D080E0DECF843638
:107EC00009F040C070D06FD0082F6DD080E0C81688
:107ED00080E7D80618F4F601B7BEE895C0E0D1E017
:107EE00062D089930C17E1F7F0E0CF16F0E7DF06D8
:107EF00018F0F601B7BEE89568D007B600FCFDCFD4
:107F0000A601A0E0B1E02C9130E011968C91119780
:107F100090E0982F8827822B932B1296FA010C0160
:107F200087BEE89511244E5F5F4FF1E0A038BF0790
:107F300051F7F601A7BEE89507B600FCFDCF97BE46
:107F4000E89526C08437B1F42ED02DD0F82E2BD052
:107F50003CD0F601EF2C8F010F5F1F4F84911BD097
:107F6000EA94F801C1F70894C11CD11CFA94CF0C13
:107F7000D11C0EC0853739F428D08EE10CD085E9AC
:107F80000AD08FE07ACF813511F488E018D01DD067
:107F900080E101D065CF982F8091C00085FFFCCF94
:107FA0009093C60008958091C00087FFFCCF809118
:107FB000C00084FD01C0A8958091C6000895E0E648
:107FC000F0E098E1908380830895EDDF803219F02E
:107FD00088E0F5DFFFCF84E1DECF1F93182FE3DFCA
:107FE0001150E9F7F2DF1F91089580E0E8DFEE27F6
:047FF000FF270994CA
:027FFE00040479
:00000001FF
