:020000040000FA
:100000000C9487000C94AF000C94AF000C94660C19
:100010000C94660C0C94660C0C94AF000C94AF001E
:100020000C94AF000C94AF000C94AF000C94DE0C59
:100030000C94AF000C94AF000C94AF000C94AF0084
:100040000C941C0C0C94AF000C94EA0B0C94C40B95
:100050000C94AF000C94AF000C94AF000C94AF0064
:100060000C949A0D0C94AF00CDCCCC3D0AD7233C18
:1000700017B7D13877CC2B329595E6241FB14F0AAC
:100080000000803FCDCCCC3D6F12833A95BFD63374
:100090007D1D9026B3CE010C000020410000C84217
:1000A00000401C4620BCBE4CCA1B0E5AAEC59D74F7
:1000B00000000000240027002A00000000080002C1
:1000C0000100000304070000000000000000000021
:1000D0000000230026002900000000002500280061
:1000E0002B000404040404040404020202020202B9
:1000F00003030303030301020408102040800102EC
:1001000004081020010204081020B50ED516112491
:100110001FBECFEFD8E0DEBFCDBF13E0A0E0B1E05F
:10012000E8E2F8E302C005900D92A231B107D9F7D9
:1001300025E0A2E1B3E001C01D92A13CB207E1F7C6
:1001400010E0C6E8D0E004C02197FE010E94061A24
:10015000C538D107C9F70E9442100C94071C0C94B3
:10016000000096E0899FD0011124AA56BB4F9096BB
:100170007C936E935F9791E091969C939197E09119
:100180000305F091040590910205992339F0309709
:1001900051F0811108C08091B2040994309719F090
:1001A0005C968C91FACF08950895DB0114964D91D9
:1001B0005C9115976D917C91DC01ED91FC91028031
:1001C000F381E02D0994AF92BF92CF92DF92EF922C
:1001D000FF920F931F93CF93DF936C017B018B01F1
:1001E000040F151FEB015E01AE18BF08C017D10741
:1001F00059F06991D601ED91FC910190F081E02DCB
:10020000C6010995892B79F7C501DF91CF911F911F
:100210000F91FF90EF90DF90CF90BF90AF90089537
:10022000FC01538D448D252F30E0842F90E0821BFC
:10023000930B541710F0CF96089501970895FC0181
:10024000918D828D981761F0A28DAE0FBF2FB11DD9
:100250005D968C91928D9F5F9F73928F90E0089531
:100260008FEF9FEF0895FC01918D828D981731F0EB
:10027000828DE80FF11D858D90E008958FEF9FEF3F
:100280000895FC01918D228D892F90E0805C9F4F15
:10029000821B91098F739927089584ED93E00E9442
:1002A000410121E0892B09F420E0822F089580E0AC
:1002B00090E0892B29F00E944D0181110C940000DF
:1002C0000895FC01A48DA80FB92FB11DA35ABF4FEB
:1002D0002C91848D90E001968F739927848FA68945
:1002E000B7892C93A089B1898C91837080648C9399
:1002F000938D848D981306C00288F389E02D808148
:100300008F7D80830895EF92FF920F931F93CF9379
:10031000DF93EC0181E0888F9B8D8C8D98131AC040
:10032000E889F989808185FF15C09FB7F894EE8927
:10033000FF896083E889F989808183708064808384
:100340009FBF81E090E0DF91CF911F910F91FF90CF
:10035000EF900895F62E0B8D10E00F5F1F4F0F7377
:100360001127E02E8C8D8E110CC00FB607FCFACF32
:10037000E889F989808185FFF5CFCE010E9461016E
:10038000F1CFEB8DEC0FFD2FF11DE35AFF4FF08203
:100390009FB7F8940B8FEA89FB8980818062CFCF69
:1003A000CF93DF93EC01888D8823B9F0AA89BB89AC
:1003B000E889F9898C9185FD03C0808186FD0DC097
:1003C0000FB607FCF7CF8C9185FFF2CF808185FFB8
:1003D000EDCFCE010E946101E9CFDF91CF91089569
:1003E000833081F028F4813099F08230A9F00895AB
:1003F0008730A9F08830C9F08430B1F48091800052
:100400008F7D03C0809180008F7780938000089556
:1004100084B58F7784BD089584B58F7DFBCF80919F
:10042000B0008F778093B00008958091B0008F7DE9
:10043000F9CFCF93DF93282F30E0F901E654FF4F37
:100440008491F901EA50FF4FD491F901EE51FF4F29
:10045000C491CC23A1F081110E94F001EC2FF0E0B7
:10046000EE0FFF1FE253FF4FA591B491EC91ED23E6
:1004700081E090E009F480E0DF91CF91089580E081
:1004800090E0FACF862F0C9419021F93CF93DF933D
:10049000282F30E0F901E654FF4F8491F901EA502A
:1004A000FF4FD491F901EE51FF4FC491CC23A9F035
:1004B000162F81110E94F001EC2FF0E0EE0FFF1FCC
:1004C000E852FF4FA591B4918FB7F894EC911111B8
:1004D00008C0D095DE23DC938FBFDF91CF911F91B1
:1004E0000895DE2BF8CF862F642F0C944502CF930E
:1004F000DF9390E0FC01EA50FF4F24918E519F4F13
:10050000FC0184918823C9F090E0880F991FFC01B9
:10051000E055FF4FA591B491FC01E852FF4FC59102
:10052000D49161110DC09FB7F8948C9120958223CE
:100530008C938881282328839FBFDF91CF910895D2
:10054000623051F49FB7F8943C91822F80958323B9
:100550008C93E8812E2BEFCF8FB7F894EC912E2B54
:100560002C938FBFEACF862F642F0C9477023FB76E
:10057000F8948091C9039091CA03A091CB03B091E4
:10058000CC0326B5A89B05C02F3F19F00196A11DED
:10059000B11D3FBFBA2FA92F982F8827BC01CD01CD
:1005A000620F711D811D911D42E0660F771F881F2C
:1005B000991F4A95D1F708958F929F92AF92BF925B
:1005C000CF92DF92EF92FF924B015C010E94B70243
:1005D0006B017C010E94B7026C197D098E099F098D
:1005E000683E734081059105A8F321E0821A9108C5
:1005F000A108B10888EEC80E83E0D81EE11CF11CEA
:1006000081149104A104B10429F7FF90EF90DF90C9
:10061000CF90BF90AF909F908F9008952FB7F89490
:100620006091C5037091C6038091C7039091C80380
:100630002FBF08950F931F93CF93DF93C82FD62F0B
:1006400086E0C89FF0011124EA56FB4F11A2878D66
:1006500090A181309105F1F058F082309105F1F1CF
:10066000039709F440C0DF91CF911F910F91089536
:100670006623C9F361E070E08C2F0E94B1000E94F4
:100680000E036093EE047093EF048093F004909354
:10069000F104E9CF0E940E030091EE041091EF04E3
:1006A0002091F0043091F104AB01BC01401B510BCF
:1006B000620B730B8091000590910105B0E0A0E002
:1006C00084179507A607B70748F462E070E08C2FFF
:1006D000DF91CF911F910F910C94B10063E070E016
:1006E000D111C1CFF4CF70E060E0F1CF0F931F9331
:1006F0000E940E036093DC037093DD038093DE039E
:100700009093DF0384ED93E00E941F0197FF1DC0CB
:100710000E940E030091DC031091DD032091DE03A3
:100720003091DF03601B710B820B930B0091D80398
:100730001091D9032091DA033091DB036017710720
:1007400082079307F8F28FEF9FEF1F910F910895A3
:100750002091CF033091D0032817390771F490917D
:10076000CD038091CE03981741F0E091CD03F0E0E6
:10077000EC57FC4F808190E008958FEF9FEF089534
:100780000895EF92FF920F931F93CF93DF93DC01B5
:100790005C96ED90FC905D97E114F10479F481E0B2
:1007A00090E013969C938E93129790E080E0DF91F7
:1007B000CF911F910F91FF90EF9008955196ED9179
:1007C000FC91529750968C915097982F90950FB717
:1007D0005E962C915E97122F127021FD6095F89411
:1007E0002081112319F1282B2083E7012197F1F7AC
:1007F00028E0462F50E0308160FF1AC0382B30834C
:10080000E7012197F1F7BA0175956795215089F7AE
:10081000112381F08081892380830FBF5C968D91A5
:100820009C910197F1F781E090E0C1CF2923DCCFC3
:100830003923E5CF9081892BEFCF2091CF033091E1
:10084000D0032817390771F48091CE032091CD038E
:1008500090E0805C9F4F821B910960E470E00E94F1
:10086000DE19089590E080E008952091CF03309143
:10087000D00328173907B9F49091CD038091CE03A6
:10088000981789F0E091CD03F0E0EC57FC4F8081A0
:100890002091CD0330E02F5F3F4F2F7333272093FC
:1008A000CD0390E008958FEF9FEF089520913903D5
:1008B000260F3327331F21323105ECF420915D03DD
:1008C000FC0190E080E0243069F082E00895A0917E
:1008D00039032191AC01475E5C4FA40FB52FB11DC8
:1008E0002C930196861798F380913903680F6093D3
:1008F000390380E0089581E008958FEF9FEF089518
:100900008FEF9FEF08958091120390E0919581956C
:1009100091090895CF93DF93CB01EA01642F0E94E0
:100920005604CE01DF91CF910895CF93DF931F92AC
:10093000CDB7DEB7698361E0CE0101960E9456040F
:1009400081E090E00F90DF91CF91089590E080E0FA
:100950000895CF93DF93EC0188819981DC01ED91BB
:10096000FC910190F081E02D09952A813B81820F55
:10097000931F9B838A83DF91CF910895CF93DF9359
:10098000EC0188819981DC01ED91FC910280F38179
:10099000E02D09952A813B81820F931F9B838A83D7
:1009A000DF91CF910895EF92FF920F931F93CF9312
:1009B000DF93CDB7DEB766970FB6F894DEBF0FBEF4
:1009C000CDBF8C01CB01FE0177969F014AE0E42E5A
:1009D000F12CB7010E94DE19805D8293CB01009754
:1009E000C1F7A9014E1B5F0BBF01C8010E94BE04E5
:1009F00066960FB6F894DEBF0FBECDBFDF91CF91E4
:100A00001F910F91FF90EF9008958F929F92AF9258
:100A1000BF92CF92DF92EF92FF920F931F93CF93EB
:100A2000DF93CDB7DEB766970FB6F894DEBF0FBE83
:100A3000CDBF6C018E01095E1F4F78018AE0882EC0
:100A4000912CA12CB12CCB01BA01A50194010E94DB
:100A50000019942F852F605DF80162938F01A90121
:100A6000692F782F411551056105710561F7A701BF
:100A70004E1B5F0BBF01C6010E94BE0466960FB6F7
:100A8000F894DEBF0FBECDBFDF91CF911F910F91C4
:100A9000FF90EF90DF90CF90BF90AF909F908F909E
:100AA0000895EF92FF920F931F93CF93DF93EC0182
:100AB0007B0162E20E94A9048701F80161918F0124
:100AC000662391F0E8E5F1E0F280FF2049F03296EC
:100AD00081816813F9CF6CE5CE010E94A9046F2DC6
:100AE000CE010E94A904E9CF62E2CE01DF91CF914D
:100AF0001F910F91FF90EF900C94A904FC012581A8
:100B0000222339F0F8E02F0290011124820F931F65
:100B1000089590E080E00895CF93DF93EC0160E0CA
:100B20008E810E94450261E08E810E94450260E054
:100B30008E810E9445028BE891E00197F1F7DF91E9
:100B4000CF910895CF92DF92EF92FF920F931F9370
:100B5000CF93DF936C017C0187E0E80EF11CD0E0BD
:100B6000C0E0062F10E0B8010C2E02C07595679505
:100B70000A94E2F76170F70181917F010E944502BA
:100B80002196C430D10579F7C601DF91CF911F912D
:100B90000F91FF90EF90DF90CF900C948C05CF9247
:100BA000DF92EF92FF920F931F93CF93DF93EC01AD
:100BB000F62E642F8C810E9445028D818F3F19F0A3
:100BC00060E00E9445020F2D10E08F8584FF25C054
:100BD0006E0187E0C80ED11CF12CE12CB8010E2C5F
:100BE00002C0759567950A94E2F76170F6018191EC
:100BF0006F010E944502FFEFEF1AFF0A88E0E81636
:100C0000F10461F7CE01DF91CF911F910F91FF9019
:100C1000EF90DF90CF900C948C05B80184E075952F
:100C200067958A95E1F7CE010E94A2056F2DCE014E
:100C3000DF91CF911F910F91FF90EF90DF90CF90B8
:100C40000C94A20540E0682F85E095E00C94CF0558
:100C500081E00E9422068BE39FE10197F1F708955E
:100C6000CF93DF93823029F490911405986090938C
:100C70001405809318051092190580E480931A05D5
:100C800080E180931B0580E580931C0561E08091E5
:100C900009050E94770280910A058F3F19F061E0F3
:100CA0000E94770261E080910B050E947702C5E007
:100CB000D5E09E01255035408091140584FD0BC080
:100CC00084E090E021962817390744F461E08E8192
:100CD0000E947702EECF88E090E0F4CF8BE39DE0B6
:100CE0000197F1F760E0809109050E94450260E0FC
:100CF00080910B050E94450280910A058F3F19F0F3
:100D000060E00E9445028091140584FD34C063E0D8
:100D100085E095E00E94A205CBE4D6E4CE010197E0
:100D2000F1F763E085E095E00E94A2052197F1F7D5
:100D300063E085E095E00E94A20583E592E00197DB
:100D4000F1F762E085E095E00E94A205809114052C
:100D500080620E94220684E0809315058CE00E9448
:100D600022060E94280682E08093160586E0DF9125
:100D7000CF910C94220680620E9422068BE496E4B6
:100D80000197F1F78091140580620E94220683E5A5
:100D900092E00197F1F78091140580620E9422068B
:100DA000D5CF90911805691710F06FEF690FE62FF6
:100DB000F0E0EB5FFA4F9489890F80680C9422066B
:100DC00041E00E94CF0581E090E00895FC01019090
:100DD0000020E9F73197AF01481B590BBC0185E0B2
:100DE00095E00C94E300CF93DF930E94E606EC01BC
:100DF00089E691E00E94E6068C0F9D1FDF91CF915E
:100E00000895FB0101900020E9F73197AF01461BDF
:100E1000570B0C94BE042F923F924F925F926F92A9
:100E20007F928F929F92AF92BF92CF92DF92EF927A
:100E3000FF920F931F93CF93DF93CDB7DEB76697E3
:100E40000FB6F894DEBF0FBECDBF8C011B01DC01D5
:100E500014968C9114978F77863009F463C278F4D6
:100E60008230B0F0843008F044C212964D915C910B
:100E700013976D917C91C1010E94BE0436C28C30E3
:100E800069F160F4883009F448C28A3009F437C245
:100E90006CE671E0C1010E94010727C2803209F4AB
:100EA000FCC18034A9F76BE5C1010E94A904F801D7
:100EB000008111810115110509F4EAC1B101C801D0
:100EC0000E940B07C8010E947E058C01892B09F442
:100ED000DFC16CE2C1010E94A904ECCFF801C0801F
:100EE000D180E280F380A7019601C701B6010E947C
:100EF0007317882331F06CE671E0C1010E9401078D
:100F00009FC120E030E0A901C701B6010E9473171C
:100F1000882371F0A7019601C701B6010E9432191A
:100F20009B01AC01C701B6010E947317882319F316
:100F300020E030E0A901C701B6010E94731787FFC6
:100F400008C06DE2C1010E94A904F7FAF094F7F815
:100F5000F09420E836E948E15BE4C701B6010E945D
:100F6000CD1987FD81C064E1A62EB12C00E210E00E
:100F70001A8A198AF501E856FF4F25913591459156
:100F80005491C701B6010E94CD1987FD13C0F50128
:100F9000E859FF4F2591359145915491C701B6010C
:100FA0000E94D9176B017C0129893A89200F311FD2
:100FB0003A8B298B1595079534E0A31AB1088CEF6D
:100FC000A8168FEFB806B1F655245A9420E030E009
:100FD000A901C701B6010E94CD1918160CF04BC02B
:100FE0002CEA35EC47E257E3C701B6010E947317BC
:100FF00018160CF440C0A52DB4E0AB02C0011124BA
:10100000B12CA12CFC01E058FF4F3F019C01285658
:101010003F4F49013FEF531671F1F301EA0DFB1DFC
:101020006591759185919491A70196010E94CD19C2
:1010300018169CF4F401EA0DFB1D2591359145919C
:101040005491C701B6010E94D9176B017C018989AF
:101050009A89801B910B9A8B898B159507955A94C9
:1010600094E0A91AB108D6CF00E210E045E0542E72
:101070001A8A198AABCFC701B6010E949E194B018B
:101080005C012B013C0106E080E492E4AFE0B0E0BB
:101090008B8B9C8BAD8BBE8B102F01509AE0491629
:1010A000510461047104C8F06B897C898D899E8923
:1010B0002AE030E040E050E00E9400192B8B3C8B8E
:1010C0004D8B5E8BC301B2012AE030E040E050E07E
:1010D0000E94001929013A01DFCFC501B4010E9425
:1010E00078179B01AC01C701B6010E9431196B0151
:1010F0007C016B897C898D899E890E9478179B0170
:10110000AC01C701B6010E94D9172B013C010E9416
:101110009E196B017C010E9478179B01AC01C301F1
:10112000B2010E9431199B01AC010E9432190E9448
:101130009E19C60ED71EE81EF91E8B899C89AD89A3
:10114000BE89C816D906EA06FB06D8F09FEF891AB1
:10115000990AA90AB90AA989BA89AB2B39F1BAE067
:101160008B169104A104B10408F1E989FA8931963A
:10117000FA8BE98BC12CD12C7601812C912C540156
:1011800083949AE0492E512C612C712CC701B60131
:10119000A30192010E940019672B682B692B51F45F
:1011A000111644F469017A011150F0CFC12CD12CF1
:1011B0007601E7CFB501A401C1010E940505112305
:1011C00071F14E01F1E18F0E911C012F54018AE063
:1011D000482E512C612C712C015068F0C701B601CA
:1011E000A30192010E940019605DD4016E934D012C
:1011F00069017A01F1CF812F90E0BC016095709573
:10120000F501E81BF90B31978EE2808344275527BF
:10121000461B570B6A0D7B1DC1010E94BE04E98964
:10122000FA89F7FF2AC061E771E0C1010E94010756
:1012300069897A89719561957109C1010E94D30408
:10124000D10112968D919C9166960FB6F894DEBFEF
:101250000FBECDBFDF91CF911F910F91FF90EF9007
:10126000DF90CF90BF90AF909F908F907F906F90C6
:101270005F904F903F902F90089529893A89232BB2
:10128000F9F265E6C1010E94A90469897A89D5CF7E
:101290006DE5C1010E94A904D3CF6BE7C1010E9493
:1012A000A904F8010081118101151105D1F0D801BF
:1012B00016966D917C91C1010E9451056AE3C101AE
:1012C0000E94A904B101C8010E940B07C8010E9435
:1012D0007E058C01892B29F06CE2C1010E94A904D2
:1012E000E3CF6DE7C1010E94A904F10182819381DE
:1012F000ABCF6D917C91C1010E945105F6CFCD908D
:10130000DD90ED90FC906DE2C1010E94A904B7014F
:10131000A601C1010E940505E8CF4D915D916D9137
:101320007C91F7CFF80180819181A281B38164E73C
:1013300071E0892B8A2B8B2B09F0DFCD69E771E0F7
:10134000DCCDCF93DF93EC0188819981009711F078
:101350000E94A81A198218821D821C821B821A827E
:10136000DF91CF910895FC0180819181009711F068
:101370000C94A81A08950F931F93CF93DF93EC0159
:1013800088819981009759F02A813B812617370778
:1013900030F081E0DF91CF911F910F9108958B0183
:1013A0006F5F7F4F0E94311B009759F099838883AC
:1013B0001B830A832C813D81232B59F7FC0110826A
:1013C000E8CF80E0E7CFEF92FF920F931F93CF9388
:1013D000DF936115710541F480E0DF91CF911F919A
:1013E0000F91FF90EF90089541155105B1F07B01E9
:1013F000EC010C811D81040F151FB8010E94BB096F
:10140000882351F3288139818C819D81B701820F16
:10141000931F0E94001C1D830C8381E0DECFEF929E
:10142000FF920F931F93CF93DF93EC017B018A010F
:10143000BA010E94BB0981110BC0CE010E94A10913
:10144000CE01DF91CF911F910F91FF90EF90089502
:101450001D830C83B701888199810E94001CF0CF05
:10146000FC01118210821382128215821482FB0108
:1014700001900020E9F73197AF01461B570B0C9400
:101480000F0A0F931F93CF93DF9300D0CDB7DEB732
:101490008C0168E671E00E94300A0E94760397FD95
:1014A0000BC089831A8241E050E0BE016F5F7F4F1D
:1014B000C8010E94E309F1CFC8010F900F90DF919E
:1014C000CF911F910F9108951F93CF93DF9385EDD7
:1014D0008093BC008091150390911603A09117038F
:1014E000B09118030796A11DB11D23E0B695A795ED
:1014F000979587952A95D1F72091BC0024FD03C0CC
:1015000010925D0352C040911503509116036091F3
:10151000170370911803452B462B472B69F300974F
:10152000A105B10541F025E32A95F1F700000197E7
:10153000A109B109E1CF80911403C1E0C093130365
:10154000882399F1D091B8001091BA008091BC0025
:101550008A7B8093BC0060E082E10E94450260E0EB
:1015600083E10E94450210925D03C0935F031092D5
:101570005E0361E082E10E94450261E083E10E9436
:1015800045028091B9008E7F8093B9008091B900A7
:101590008D7F8093B90088E48093B80085E48093C0
:1015A000BC001093BA00D093B800DF91CF911F9187
:1015B0000895CF92DF92EF92FF920F931F93CF93F4
:1015C000DF93FC018481982F9F7739F480788062C3
:1015D00084831182108213821282848185FD0CC063
:1015E000D0E0C0E0CE01DF91CF911F910F91FF902D
:1015F000EF90DF90CF9008956115710589F37A011E
:101600006B018F01C081D1812097C1F16E817F81F3
:101610006C157D0539F36115710529F0C6010E942D
:10162000F71B892BF9F2CE010E947E05EC01ECCF6D
:10163000E9012897F701D583C483209789F2D8015F
:101640001296ED91FC911397309791F0CE018E1B7D
:101650009F0B23E0959587952A95E1F7858313964F
:10166000DC93CE9312971D821C82DF82CE82BACF8A
:10167000F801D183C083D383C283F5CFD7011496F9
:101680002D913C91159712968D919C910896281753
:10169000390770F681E0D70118968C93A3CFAF92EB
:1016A000BF92CF92DF92EF92FF920F931F93CF934F
:1016B000DF93EC01892BE9F1DB012D913C912115A0
:1016C000310529F48C8180788C8381E033C05A0104
:1016D000DA01ED91FC91119712960D911C91E01792
:1016E000F10790F47901CF01D7014D917D016C0193
:1016F000BFEFCB1ADB0ADC015C91451326C0C601A3
:101700004111F2CF3097C9F5FB01E480F580C701A4
:101710000196800F911FD50114962D913C9115973C
:1017200028173907C0F481E018968C938C81807853
:101730008C8380E0DF91CF911F910F91FF90EF900C
:10174000DF90CF90BF90AF900895FC014191CF0101
:101750004111FBCFC4CFF50193838283011511059D
:1017600029F3DB016D917C91A701C8010E94EE1B5A
:10177000F801EE0DFF1D1082F8018C8180788560E4
:101780008C83F983E883A1CF1F920F920FB60F923B
:1017900011242F933F934F935F936F937F938F9376
:1017A0009F93AF93BF93EF93FF9384ED93E00E94D9
:1017B0006101FF91EF91BF91AF919F918F917F91C7
:1017C0006F915F914F913F912F910F900FBE0F90AE
:1017D0001F9018951F920F920FB60F9211242F93FE
:1017E0008F939F93EF93FF93E091E403F091E503D0
:1017F0008081E091EA03F091EB0382FD1BC09081B0
:101800008091ED038F5F8F732091EE03821741F07B
:10181000E091ED03F0E0EC52FC4F958F8093ED03E7
:10182000FF91EF919F918F912F910F900FBE0F908D
:101830001F9018958081F4CF1F920F920FB60F92D0
:1018400011242F933F938F939F93AF93BF938091D6
:10185000C5039091C603A091C703B091C80330910E
:10186000C40323E0230F2D3758F50196A11DB11DA8
:101870002093C4038093C5039093C603A093C7032A
:10188000B093C8038091C9039091CA03A091CB0380
:10189000B091CC030196A11DB11D8093C903909313
:1018A000CA03A093CB03B093CC03BF91AF919F9198
:1018B0008F913F912F910F900FBE0F901F90189511
:1018C00026E8230F0296A11DB11DD2CF1F920F92C1
:1018D0000FB60F9211242F933F934F935F936F9303
:1018E0007F938F939F93AF93BF93EF93FF93E09179
:1018F000CF03F091D003309749F0A685B785858551
:10190000968D91FF14C09C918923A1F4FF91EF91D2
:10191000BF91AF919F918F917F916F915F914F9107
:101920003F912F910F900FBE0F901F9018959C9193
:10193000892361F7A389B4899C918589809589233E
:101940008C93868997890197F1F7608D718DA685B3
:10195000B785558538E020E0CB010197F1F7822F5C
:1019600090E095958795282F4C91452309F02068A4
:10197000315091F7868D81FD20958091CE0390E0C6
:1019800001968F7399273091CD03381799F0A09164
:10199000CE03B0E0AC57BC4F2C938093CE03828D26
:1019A000938D0197F1F7A389B4898C919589892B3F
:1019B0008C93ACCF868D8160868FF1CF1F920F9272
:1019C0000FB60F9211242F933F934F935F936F9312
:1019D0007F938F939F93AF93BF93CF93DF93EF93B7
:1019E000FF9380918303C0919504D0E087FF24C0CA
:1019F0001092850010928400809183038F5F809302
:101A0000830380918303082E000C990B8C179D078C
:101A100024F4809183038C30C4F1809184009091F0
:101A20008500049680349C4908F47AC08091840033
:101A300090918500049676C080918303082E000C57
:101A4000990B8C179D07C4F6E09183038E2FEE0F40
:101A5000990BFC01EE0FFF1FE80FF91FEF58FB4F2A
:101A6000808186FFC9CFE09183038E2FEE0F990B03
:101A7000FC01EE0FFF1FE80FF91FEF58FB4F8081AD
:101A800060E08F730E944502B7CF209184003091AF
:101A90008500E09183038E2FEE0F990BFC01EE0F72
:101AA000FF1FE80FF91FEF58FB4F81819281820FD2
:101AB000931F9093890080938800E09183038E2F79
:101AC000EE0F990BFC01EE0FFF1FE80FF91FEF5807
:101AD000FB4F808186FF11C0E09183038E2FEE0FB4
:101AE000990BFC01EE0FFF1FE80FF91FEF58FB4F9A
:101AF000808161E08F730E944502FF91EF91DF9139
:101B0000CF91BF91AF919F918F917F916F915F9195
:101B10004F913F912F910F900FBE0F901F901895EE
:101B200080E49CE990938900809388008FEF8093F4
:101B30008303E3CF1F920F920FB60F9211242F93BE
:101B40003F934F935F936F937F938F939F93AF9345
:101B5000BF93EF93FF938091B900887F803609F49B
:101B60004AC0F0F5883209F4A5C018F5803109F4AF
:101B700099C0B8F4882309F4F5C0883009F492C0FC
:101B8000FF91EF91BF91AF919F918F917F916F9155
:101B90005F914F913F912F910F900FBE0F901F902B
:101BA0001895883109F486C0803251F780935C0320
:101BB00014C0803409F49BC040F48033B9F38833F7
:101BC000F9F680935C0385ECAEC0803509F483C0E0
:101BD000883509F494C0883499F60E94640AD0CFFD
:101BE000883909F48AC038F5883729F050F48836E6
:101BF00011F0803729F683E080935D0310925B0338
:101C000055C0883809F479C0803919F0803809F056
:101C1000B7CF80915B03803208F06FC0E0915B0327
:101C200081E08E0F80935B038091BB00F0E0E55C68
:101C3000FC4F80833BC0803B39F0D0F4803A09F4FC
:101C400077C0883A09F09CCF84E080935D031092BE
:101C50003A0310923903F0E0E0E0099580913903EE
:101C600081110FC081E0809339031092190309C0DC
:101C7000803C09F4A8CF883C09F4A5CF883B09F043
:101C80007FCFE0913A0381E08E0F80933A03F0E03A
:101C9000E75EFC4F80818093BB0090913A03809176
:101CA000390329C0809182038093BB0085EC809327
:101CB000BC0066CF9091810380918003981758F5FE
:101CC000E091810381E08E0F80938103F0E0E05A80
:101CD000FC4F8081E9CFE091810381E08E0F8093FA
:101CE00081038091BB00F0E0E05AFC4F808390912B
:101CF0008103809180039817C8F285E8D8CFE091DE
:101D0000810381E08E0F809381038091BB00F0E01E
:101D1000E05AFC4F808380915F0381115ECF81E0A8
:101D200080935E0384EA8093BC0010925D0328CF09
:101D300085EC8093BC0010925D0380915B03803240
:101D400030F4E0915B03F0E0E55CFC4F10826091C1
:101D50005B0370E08BE393E0F0E0E0E00995109224
:101D60005B030ECF10925C0338CFCF93DF931092BA
:101D7000D7031092D60388EE93E0A0E0B0E0809302
:101D8000D8039093D903A093DA03B093DB0382E2E4
:101D900091E09093D5038093D40385EC90E09093E9
:101DA000E1038093E00384EC90E09093E30380935D
:101DB000E20380EC90E09093E5038093E40381ECF0
:101DC00090E09093E7038093E60382EC90E0909399
:101DD000E9038093E80386EC90E09093EB03809313
:101DE000EA031092ED031092EE031092EF031092AB
:101DF000F0036FE771E087EB95E00E94300A64E83A
:101E000071E08FE395E00E94300A6BE871E085E4B1
:101E100095E00E94300A62E971E08BE495E00E944F
:101E2000300A69E971E081E595E00E94300A60EAD4
:101E300071E087E595E00E94300A67EA71E08DE580
:101E400095E00E94300A6EEA71E083E695E00E9418
:101E5000300A65EB71E089E695E00E94300A6CEB90
:101E600071E08FE695E00E94300AD0E0C0E068E6BD
:101E700071E0CE018B589A4F0E94300A2696C234E8
:101E8000D105A9F7809195048C3008F0F7C091E056
:101E9000980F9093950480933C0590E0FC01EE0F21
:101EA000FF1FE80FF91FEF58FB4F88EB9BE0928371
:101EB00081831092200510921F0588EE93E0A0E028
:101EC000B0E08093210590932205A0932305B09361
:101ED00024058AE491E090931E0580931D051092DD
:101EE0003405109233051092360510923505109284
:101EF00038051092370510923A0510923905609115
:101F00003B056E7F6D7F60933B056695617081E058
:101F1000682782E10E94450261E082E10E94770227
:101F2000E8E0F1E0E491E0932D05E4EFF0E0E491E6
:101F3000F0E0EE0FFF1FE852FF4F859194919093D0
:101F40002F0580932E0560E083E10E947702809147
:101F50003B0581FD04C061E083E10E94450283E10D
:101F600080932905E9E0F1E0E491E0932A05E5EFAB
:101F7000F0E0E491F0E0EE0FFF1FE253FF4F859198
:101F8000949190932C0580932B0510920805109244
:101F900007058EE391E0909306058093050588E0A0
:101FA000809309058FEF80930A0589E080930B05E4
:101FB0008AE080930C058BE080930D058CE0809384
:101FC0000E058DE080930F051092100510921105FB
:101FD00010921205109213051092140581E00E94D0
:101FE00030061092980410929C0410929B04109258
:101FF0009D0484E391E09093970480939604E2EB30
:10200000F4E01082148213821582369684E0EE3E4C
:10201000F807B9F784E091E09093F9048093F8040D
:1020200080E091E09093FB048093FA0484E0809335
:10203000FC048093FD0488E091E09093F704809382
:10204000F6048AE090E09093FF048093FE0484EF0E
:1020500091E0909301058093000510920405109281
:1020600003051092F2041092F3041092F4041092FB
:10207000F50410920205DF91CF9108958FEF8093C0
:102080003C0517CFCF93DF93CDB7DEB7A8970FB638
:10209000F894DEBF0FBECDBF789484B5826084BD56
:1020A00084B5816084BD85B5826085BD85B581605C
:1020B00085BD80916E00816080936E0010928100DA
:1020C0008091810082608093810080918100816095
:1020D0008093810080918000816080938000809156
:1020E000B10084608093B1008091B00081608093E2
:1020F000B00080917A00846080937A0080917A00A9
:10210000826080937A0080917A00816080937A0067
:1021100080917A00806880937A001092C10082E0FA
:102120000E94300680913C058C3008F051C061E07F
:1021300081E10E94770280913C05282F30E0F9016F
:10214000EE0FFF1FE20FF31FEF58FB4F9081907CC3
:102150009161908310923D0510923E052CE0622F14
:102160000E94D219829FB001112430E020E0AB011F
:10217000420F531FFA01EE0FFF1FE40FF51FEF5838
:10218000FB4F908196FD16C02F5F3F4F2C303105DD
:1021900071F781110FC01092800082E0809381005E
:1021A0001092850010928400B19A80916F00826035
:1021B00080936F00E0913C058E2F90E0FC01EE0FC4
:1021C000FF1FE80FF91FEF58FB4F80818064808369
:1021D000E091E403F091E50382E08083E091E00385
:1021E000F091E1031082E091E203F091E3038FECC0
:1021F00080831092EC03E091E803F091E90386E01C
:102200008083E091E603F091E70380818061808321
:10221000E091E603F091E703808188608083E0919C
:10222000E603F091E703808180688083E091E60314
:10223000F091E70380818F7D8083109238051092A2
:10224000370510923605109235051092340510921C
:1022500033058DE991E090933A058093390590918B
:102260002905963108F047C02DEB30E03093340556
:10227000209333052BE931E0309336052093350563
:102280002CE231E030933805209337052091680027
:1022900084E0983048F031E09E3008F430E081E08E
:1022A00001C0880F3A95EAF7822B809368002DE6EB
:1022B00030E0983050F02BE630E09E3030F02CE6E5
:1022C00030E0963110F030E020E03093310520937B
:1022D0003005292F30E0983008F030C181E001C08E
:1022E000880F9A95EAF7809332058091390590918D
:1022F0003A050197F1F78091370590913805892BC0
:1023000049F1E091CF03F091D00325E0ED31F207E0
:1023100009F1309739F0A389B4899C91858980951A
:1023200089238C9380913B058E7F80933B0510928F
:10233000CE031092CD038DE195E09093D00380936E
:10234000CF03E0913005F091310580819091320505
:10235000892B80831092D3031092D20360ED72E038
:10236000AE014F5F5F4F3A01CA010E94300A63EC31
:1023700071E0CE0107960E94300A67EC71E0CE0151
:102380000D960E94300A6BEC71E0CE0143960E94DC
:10239000300A8FEC91E00E94E60661E080E10E9445
:1023A000450264EF71E080E090E00E94DC0261E0B1
:1023B00080E00E94D106CE0149960E94410A4D8DCF
:1023C0005E8D4115510509F4C6C0698D7A8D8091E5
:1023D000D10322E030E02417350718F461157105A8
:1023E00009F480E02F5F3F4F2A303105A1F72BE041
:1023F00030E02417350718F46115710509F480E001
:102400002F5F3F4F23313105A1F78093D103CE01D8
:1024100049960E94B30968EE73E080E090E00E9464
:10242000DC0260E080E10E9445020E94280660E034
:1024300085E00E94D10680EF91E00E94F30661E002
:1024400080E00E94D10686EF91E00E94F30668EEDC
:1024500073E080E090E00E94DC0210E000E086E0A3
:10246000F82E61E080E00E94D10687E092E00E94B1
:10247000E606C80183709927F89EB001F99E700D99
:102480001124660D771D85E095E00E94D5006CE271
:1024900071E080E090E00E94DC020F5F1F4F0C3083
:1024A0001105F9F6CE0143960E94B309CE010D96AF
:1024B0000E94B309CE0107960E94B309C3010E948E
:1024C000B3090E94280668E671E0CE014F960E948B
:1024D000300AF12CE12C55245394B6E04B2E509247
:1024E00002050E940E030091F2041091F304209162
:1024F000F4043091F504AB01BC01401B510B620B9D
:10250000730B8091FE049091FF04B0E0A0E084176B
:102510009507A607B70708F05EC110E08091FC049C
:102520001817F0F4E091F804F091F904E10FF11DAF
:1025300062E080810E9477021F5FF0CF9E3040F4FE
:102540002850310981E001C0880F2A95EAF7CBCEE7
:102550002E503109F7CF8CED91E00E94E60657CF5F
:10256000312C8091FD04381608F063C0C32CD12CA7
:10257000E091FA04F091FB04EC0DFD1D61E0808117
:102580000E947702E091FA04F091FB04EC0DFD1D2E
:1025900060E080810E94450281E090E0A0E0B0E030
:1025A000032C04C0880F991FAA1FBB1F0A94D2F7DF
:1025B0004C015C01A094B094212C8091FC0428165D
:1025C00008F5022D10E0E091F804F091F904E00F15
:1025D000F11F80810E9419020C5F1F4F000F111F15
:1025E000F801EA56FB4F892B41F4808191818829BB
:1025F0009929918380832394E0CF808191818A21DE
:102600009B21F7CFE091FA04F091FB04EC0DFD1D46
:1026100061E080810E9445028091FA049091FB0460
:10262000C80ED91E60E0F60180810E9477023394C3
:1026300098CFF6E9CF2EF4E0DF2E8601F801878DE2
:1026400090A1892B31F4148E2FEF3FEF368F258F19
:1026500011A20A5F1F4F42ED54E04017510771F776
:10266000912C8091FC04981608F052C0812CA92C62
:10267000B12CAA0CBB1CC50182569B4F5C0120915A
:10268000FD04821608F042C0F50160817181082CBA
:1026900002C0769567950A94E2F7929E9001112404
:1026A000280D311DE6E9F4E080E0458D568D2417B4
:1026B000350709F478C38F5F36968A30B1F760FF2B
:1026C00023C0E6E9F4E090E080E0448D411117C0BA
:1026D000E091F604F091F704E20FF31F4081489E69
:1026E000F001499EF00D1124EA56FB4F448F368FBE
:1026F000258F10A2178E61E00E941A0305C0019673
:1027000036968A30910509F78394B9CF9394A9CF6F
:10271000B12CF60181A18111B82EF6E0CF0ED11CAB
:102720000C151D05B1F70E940E036093F20470931F
:10273000F3048093F4049093F504BB2009F44BC098
:10274000D090B704DD2009F446C08091B504909183
:10275000B604019709F03FC01091B204153409F096
:102760007FC0CE014F960E94B3090E94280660E008
:1027700080E00E94D10681E392E00E94E6061E14EA
:102780001F040CF0D1C02AE0E216F1040CF4E9C0F9
:1027900061E080E00E94D10682E492E00E94F306AC
:1027A00064EF71E080E090E00E94DC0268EE73E08C
:1027B00080E090E00E94DC020E94280680E090E029
:1027C000892B09F480CE0E944D01882309F47BCE29
:1027D0000E94000078CE1092020510E0E114F1048E
:1027E00009F443C0812F012E000C990BC0970A9762
:1027F00088F419831A8241E050E0B301CE014F966C
:102800000E94E3098F8D98A1009709F489C00E9466
:1028100002177B010E94280660E080E00E94D1063A
:1028200085E192E00E94F30661E080E00E94D1061B
:1028300089E292E00E94E606BE01615E7F4F85E07C
:1028400095E00E94D50089E691E00E94E6060E948C
:1028500028066AE070E080E090E00E94DC023FCE53
:10286000183519F0E114F10451F450E040E068E645
:1028700071E0CE014F960E940F0AF12CE12C133427
:1028800009F0B0CFC7016AE070E00E94DE197B0159
:102890001A8E198E1C8E1B8E1E8E1D8E4AE0B30161
:1028A000C7010E942917F30101900020E9F7319731
:1028B000AF0146195709B301CE0149960E940F0A8C
:1028C0008F8D98A10097D9F0698D7A8D611571056A
:1028D000A1F049A15AA12D8D3E8D4217530768F0F2
:1028E0000E94001C8D8D9E8D9CA38BA31E8E1D8E21
:1028F000CE0149960E94B30975CF0E94A81A898D0E
:102900009A8D98A38F8F8B8D9C8D9AA389A38D8D83
:102910009E8D9CA38BA31A8E198E1C8E1B8EE6CFC8
:1029200060E070E0CB0175CF61E080E00E94D106ED
:1029300083E592E00E94F30664EF71E080E090E0AE
:102940000E94DC0260E080E00E94D10684E692E012
:102950000E94F30661E080E00E94D10685E792E0E4
:102960001DCF68E671E0CE0149960E94300A61E011
:1029700080E00E94D106A701415051095EA34DA3FA
:1029800026E0249FC001259F900D1124FC01E15CED
:10299000FA4FF8A7EFA3BF0185E095E00E94D500AC
:1029A00089E691E00E94E60664EF71E080E090E045
:1029B0000E94DC0260ED72E0C3010E94300A63EC09
:1029C00071E0CE0107960E94300A67EC71E0CE01FB
:1029D0000D960E94300A6BEC71E0CE0143960E9486
:1029E000300A0E94280660E080E00E94D10686E856
:1029F00092E00E94F3066CE271E080E090E00E94B9
:102A0000DC0274ECE72EFF24FA944701F7FE04C0C1
:102A1000882499248E189F08C0903C05FBE0FC1583
:102A200008F451C080913E0548E5A42E42E0B42E42
:102A3000A81AB10887FDB394AA0CBB1CAA0CBB1C36
:102A400080913D0508E810E0081B110987FD1395EA
:102A5000000F111F000F111F1801012E000C440858
:102A6000550895010B2C000C440B550B221933090A
:102A700044095509D4010E94C11824EB30E040E01C
:102A800050E00E949718BA01A901420D531D641D20
:102A9000751D401751072CF085014A155B050CF494
:102AA0008A0102501109000F111F2FB7F8948C2DC5
:102AB00090E0FC01EE0FFF1FE80FF91FEF58FB4FEE
:102AC000128301832FBF61E080E00E94D10689EB71
:102AD00092E00E94E606C40164E170E00E94DE1903
:102AE00026E0269FC001279F900D1124B301680F97
:102AF000791F85E095E00E94D50061E080E10E94A9
:102B000045026CE271E080E090E00E94DC0260E04F
:102B100080E10E9445026CE271E080E090E00E945A
:102B2000DC0234E1E30EF11C40E5E416F10409F0A7
:102B30006CCFCE0143960E94B309CE010D960E9440
:102B4000B309CE0107960E94B309C3010E94B309DD
:102B500060E080E00E94D10687E992E00E94F306DF
:102B600061E080E00E94D10688EA92E00E94F306CC
:102B700061ED72E0C3010E94300A4091BB055091A3
:102B8000BC056091B7057091B805C3010E94E309C7
:102B9000811103C0C3010E94A1094CE050E067EC21
:102BA00072E0CE0101960E94E309811104C0CE01BA
:102BB00001960E94A10986E02DA13EA1829FF0010D
:102BC000839FF00D1124E15CFA4F448155816081AF
:102BD0007181CE0101960E94E309811104C0CE01EA
:102BE00001960E94A10969817A816115710509F434
:102BF000CEC04D815E81CE0149960E940F0ACE0162
:102C000001960E94B309BE01675E7F4F84ED93E099
:102C10000E94D50064EF71E080E090E00E94DC0249
:102C2000CE0149960E94B30980E890E00E940C1AF8
:102C30009C0120583F4F009711F430E020E09B8327
:102C40008A839D838C833F832E83398728871A86C6
:102C50008F8580788F878091D2039091D3038C30B9
:102C6000910509F099C01092D3031092D203AE01DE
:102C70004E5F5F4F64ED72E0CE010B960E94D90A61
:102C8000AE014E5F5F4F67EB75E00E944F0BAE01E8
:102C90004E5F5F4F6EED72E0CE010B960E94D90A37
:102CA000AE014E5F5F4F6FA178A50E944F0BCE0122
:102CB00049960E94410AAE014E5F5F4F6AEE72E094
:102CC000CE010B960E94D90AAE014E5F5F4FBE0146
:102CD000675E7F4F0E944F0BCE0149960E94B30959
:102CE000AE014E5F5F4F63EF72E0CE010B960E9424
:102CF000D90AFC01892B61F09481907896609483C5
:102D00004D2D50E070E060E0408351836283738317
:102D10008DE195E09A8F898F1C8E1B8EBE01675EB8
:102D20007F4FCE010B960E940B078A819B819D836A
:102D30008C83888599859F838E831A868F8580787A
:102D40008F8764EF71E080E090E00E94DC020E94D7
:102D5000280660E085E00E94D1068AEF92E00E949A
:102D6000E60661E080E00E94D10681E093E00E94E7
:102D7000E60664EF71E080E090E00E94DC028A8168
:102D80009B81009709F412CD0E94A81A0FCDCE01A5
:102D900049960E94A10933CF01969093D303809363
:102DA000D203D12C64CF6170A7CCCF93DF938AE498
:102DB00091E090931E0580931D058091CF03909123
:102DC000D0038D51954071F4E0913005F0913105BB
:102DD0009081809132058095892380831092D00361
:102DE0001092CF03C7EBD5E02697CE010E94B3091E
:102DF00085E0CF33D807C1F787EB95E0DF91CF911E
:102E00000C94B3091F93FC0199278827BC01E8940F
:102E100011911032E9F3193010F01E30C8F31B3253
:102E200051F01D3249F4689406C00E943417610FB6
:102E3000711D811D911D119110531A30B0F33EF494
:102E400090958095709561957F4F8F4F9F4F1F9103
:102E50000895BB274A3031F4992322F4BDE29095BE
:102E600081959F4F0C944A17592F482F372F262FA3
:102E7000660F771F881F991F660F771F881F991F7E
:102E8000620F731F841F951F660F771F881F991F7E
:102E90000895BB27FB015527AA27880F991FAA1F52
:102EA000A41710F0A41B83955051B9F7A05DAA3365
:102EB00008F0A95DA193009779F7B111B193119230
:102EC000CB010C946317DC01FC01672F7191772310
:102ED000E1F7329704C07C916D9370836291AE17D5
:102EE000BF07C8F308950E94B51708F481E008955C
:102EF000E89409C097FB3EF4909580957095619594
:102F00007F4F8F4F9F4F9923A9F0F92F96E9BB2749
:102F10009395F695879577956795B795F111F8CFC5
:102F2000FAF4BB0F11F460FF1BC06F5F7F4F8F4F30
:102F30009F4F16C0882311F096E911C0772321F026
:102F40009EE8872F762F05C0662371F096E8862FBE
:102F500070E060E02AF09A95660F771F881FDAF715
:102F6000880F9695879597F90895990F0008550F42
:102F7000AA0BE0E8FEEF16161706E807F907C0F0FF
:102F800012161306E407F50798F0621B730B840B07
:102F9000950B39F40A2661F0232B242B252B21F4E1
:102FA00008950A2609F4A140A6958FEF811D811D81
:102FB00008950E94EC170C945D180E944F1838F089
:102FC0000E94561820F0952311F00C9446180C948A
:102FD0004C1811240C9491180E946E1870F3959F50
:102FE000C1F3950F50E0551F629FF001729FBB2700
:102FF000F00DB11D639FAA27F00DB11DAA1F649F9C
:103000006627B00DA11D661F829F2227B00DA11D4E
:10301000621F739FB00DA11D621F839FA00D611DD4
:10302000221F749F3327A00D611D231F849F600DF5
:10303000211D822F762F6A2F11249F5750409AF01E
:10304000F1F088234AF0EE0FFF1FBB1F661F771FAA
:10305000881F91505040A9F79E3F510580F00C9475
:1030600046180C9491185F3FE4F3983ED4F386958C
:1030700077956795B795F795E7959F5FC1F7FE2B15
:10308000880F911D9695879597F9089597F99F67F1
:1030900080E870E060E008959FEF80EC08950024E0
:1030A0000A941616170618060906089500240A94AD
:1030B00012161306140605060895092E0394000C33
:1030C00011F4882352F0BB0F40F4BF2B11F460FFC2
:1030D00004C06F5F7F4F8F4F9F4F089557FD9058EB
:1030E000440F551F59F05F3F71F04795880F97FBCC
:1030F000991F61F09F3F79F0879508951216130686
:103100001406551FF2CF4695F1DF08C016161706B4
:103110001806991FF1CF86957105610508940895E9
:10312000E894BB2766277727CB0197F90895052EEA
:1031300097FB1EF400940E94AE1857FD07D00E9422
:10314000001907FC03D04EF40C94AE18509540952E
:10315000309521953F4F4F4F5F4F08959095809543
:10316000709561957F4F8F4F9F4F08950E94221950
:10317000A59F900DB49F900DA49F800D911D1124CB
:103180000895B7FF0C94B6180E94B618821B930BD3
:1031900008952F923F924F925F926F927F928F92FB
:1031A0009F92AF92BF92CF92DF92EF92FF920F93D6
:1031B0001F93CF93DF93CDB7DEB7CA1BDB0B0FB6E0
:1031C000F894DEBF0FBECDBF09942A88398848889D
:1031D0005F846E847D848C849B84AA84B984C88433
:1031E000DF80EE80FD800C811B81AA81B981CE0F2A
:1031F000D11D0FB6F894DEBF0FBECDBFED0108950F
:10320000A1E21A2EAA1BBB1BFD010DC0AA1FBB1FEA
:10321000EE1FFF1FA217B307E407F50720F0A21B5C
:10322000B30BE40BF50B661F771F881F991F1A94C9
:1032300069F760957095809590959B01AC01BD01F3
:10324000CF010895A29FB001B39FC001A39F700D4D
:10325000811D1124911DB29F700D811D1124911D9E
:1032600008955058BB27AA270E9449190C945D184D
:103270000E944F1838F00E94561820F039F49F3FF2
:1032800019F426F40C944C180EF4E095E7FB0C941A
:103290004618E92F0E946E1858F3BA176207730791
:1032A0008407950720F079F4A6F50C9490180EF495
:1032B000E0950B2EBA2FA02D0B01B90190010C0146
:1032C000CA01A0011124FF27591B99F0593F50F45E
:1032D000503E68F11A16F040A22F232F342F4427B6
:1032E000585FF3CF469537952795A795F0405395AE
:1032F000C9F77EF41F16BA0B620B730B840BBAF07E
:103300009150A1F0FF0FBB1F661F771F881FC2F7E8
:103310000EC0BA0F621F731F841F48F487957795FC
:103320006795B795F7959E3F08F0B0CF9395880FB6
:1033300008F09927EE0F9795879508950E947618C3
:1033400088F09F5798F0B92F9927B751B0F0E1F066
:10335000660F771F881F991F1AF0BA95C9F714C016
:10336000B13091F00E949018B1E008950C9490183B
:10337000672F782F8827B85F39F0B93FCCF386954F
:1033800077956795B395D9F73EF4909580957095AC
:1033900061957F4F8F4F9F4F08950E94B51708F496
:1033A0008FEF0895991B79E004C0991F961708F0D4
:1033B000961B881F7A95C9F78095089597FB072E6D
:1033C00016F4009407D077FD09D00E94F21907FC8B
:1033D00005D03EF4909581959F4F08957095619525
:1033E0007F4F0895AA1BBB1B51E107C0AA1FBB1F3B
:1033F000A617B70710F0A61BB70B881F991F5A9581
:10340000A9F780959095BC01CD010895EE0FFF1F9F
:103410000590F491E02D09940F931F93CF93DF93C0
:103420008230910510F482E090E0E091BF05F091C8
:10343000C00530E020E0B0E0A0E0309799F421151D
:10344000310509F44AC0281B390B24303105D8F561
:103450008A819B816115710589F1FB0193838283C8
:10346000FE0111C040815181028113814817590723
:10347000E0F04817590799F4109761F012960C93F1
:10348000129713961C933296CF01DF91CF911F9123
:103490000F9108950093BF051093C005F4CF211537
:1034A000310551F04217530738F0A901DB019A01A9
:1034B000BD01DF01F801C1CFEF01F9CF9093C00545
:1034C0008093BF05CDCFFE01E20FF31F819391934F
:1034D0002250310939832883D7CF2091BD053091FF
:1034E000BE05232B41F420911A0130911B0130932A
:1034F000BE052093BD0520911801309119012115B9
:10350000310541F42DB73EB740911C0150911D018A
:10351000241B350BE091BD05F091BE05E217F307C2
:10352000A0F42E1B3F0B2817390778F0AC014E5F33
:103530005F4F2417350748F04E0F5F1F5093BE05AD
:103540004093BD05819391939FCFF0E0E0E09CCF45
:10355000CF93DF930097E9F0FC0132971382128238
:10356000A091BF05B091C005ED0130E020E01097BB
:10357000A1F420813181820F931F2091BD053091EC
:10358000BE052817390709F061C0F093BE05E09326
:10359000BD05DF91CF910895EA01CE17DF07E8F569
:1035A0004A815B819E0141155105B1F7E901FB8319
:1035B000EA8349915991C40FD51FEC17FD0761F4B7
:1035C000808191810296840F951FE90199838883F8
:1035D000828193819B838A83F0E0E0E012968D9153
:1035E0009C9113970097B9F52D913C911197CD01BE
:1035F0000296820F931F2091BD053091BE052817BA
:10360000390739F6309751F51092C0051092BF0571
:10361000B093BE05A093BD05BCCFD383C2834081C8
:103620005181840F951FC817D90761F44E5F5F4F12
:1036300088819981480F591F518340838A819B81DA
:10364000938382832115310509F0B0CFF093C00533
:10365000E093BF059ECFFD01DC01C0CF1382128233
:10366000D7CFB0E0A0E0E7E3FBE10C94CB188C01EE
:10367000009751F4CB010E940C1A8C01C801CDB700
:10368000DEB7E0E10C94E718FC01E60FF71F9C01A0
:1036900022503109E217F30708F49DC0D901CD91FA
:1036A000DC911197C617D70798F0C530D10530F3D4
:1036B000CE0104978617970708F3C61BD70B2297EE
:1036C000C193D1936D937C93CF010E94A81AD6CF5A
:1036D0005B01AC1ABD0A4C018C0E9D1EA091BF056A
:1036E000B091C005512C412CF12CE12C109731F5F3
:1036F0008091BD059091BE058815990509F05CC0C3
:103700004616570608F058C080911801909119018B
:10371000009741F48DB79EB740911C0150911D0157
:10372000841B950BE817F90708F055C0F093BE0508
:10373000E093BD05F90171836083A0CF8D919C91C9
:10374000119712966C90129713967C901397A81568
:10375000B90559F56C0142E0C40ED11CCA14DB0452
:1037600020F1AC014A195B09DA011296159780F035
:103770006282738251834083D9016D937C93E114FB
:10378000F10471F0D7011396FC93EE93129776CF64
:1037900022968C0F9D1FF90191838083F301EFCF57
:1037A000F093C005E093BF0569CF4816590608F4A9
:1037B0002C017D01D3019ACFCB010E940C1A7C0110
:1037C000009749F0AE01B8010E94EE1BC8010E94AB
:1037D000A81A870153CF10E000E050CFFB01DC01B5
:1037E00002C001900D9241505040D8F70895FB015E
:1037F000DC018D91019080190110D9F3990B089586
:10380000FB01DC0101900D920020E1F7089510E02A
:10381000C6E8D0E004C0FE010E94061A2196C7380F
:10382000D107C9F7F894FFCF040506070E0F02036E
:103830003132334534353643373839582A3023440A
:103840000000C1058000000000008301E3001001BA
:10385000D00141011F01330100000000B3027302D7
:10386000420200000000E006E300A604D4000000CD
:103870000000C103E300A604C0031D043504A8032F
:103880002F2F22225C5C6208660C6E0A720D74098E
:10389000000D0A006E756C6C00652D007472756504
:1038A0000066616C7365003030303100646573749C
:1038B0005F3100646573745F3200646573745F33F5
:1038C00000646573745F3400646573745F3500640D
:1038D0006573745F3600646573745F370064657385
:1038E000745F3800646573745F39002E2020002EE9
:1038F0002E20002E2E2E00496E697469616C697A43
:10390000696E6700303030302D30302D303020304F
:10391000303A30303A303000455644435300576512
:103920006C636F6D6520546F204556444320002022
:1039300020202020204C6F6164696E67002043685E
:103940006F6F73652044657374696E6174696F6E1F
:1039500000496E7075743A2000596F752068617661
:10396000652063686F6F73656E00496E76616C6980
:10397000642043686F69636520200020496E76618A
:103980006C696420496E707574212100596F75202F
:103990004D75737420456E746572206100446573C3
:1039A00074696E6174696F6E20467273740051752C
:1039B000657565204E6F205072696E746572005493
:1039C00068616E6B20796F752121204861766500F2
:1039D00020412053616665204A6F75726E657920BB
:1039E0000020202020205072696E74696E670020CC
:1039F0002020202020202020202020006D616368CE
:103A0000696E6549440064657374696E6174696FB9
:103A10006E007265675F64617465006173736967E6
:103A20006E00537461747573002053656E74207456
:0A3A30006F20536572766572200066
:107E0000112484B714BE81FFF0D085E080938100F7
:107E100082E08093C00088E18093C10086E0809377
:107E2000C20080E18093C4008EE0C9D0259A86E02C
:107E300020E33CEF91E0309385002093840096BBD3
:107E4000B09BFECF1D9AA8958150A9F7CC24DD24C4
:107E500088248394B5E0AB2EA1E19A2EF3E0BF2EE7
:107E6000A2D0813461F49FD0082FAFD0023811F036
:107E7000013811F484E001C083E08DD089C08234E0
:107E800011F484E103C0853419F485E0A6D080C0E4
:107E9000853579F488D0E82EFF2485D0082F10E0AE
:107EA000102F00270E291F29000F111F8ED06801E7
:107EB0006FC0863521F484E090D080E0DECF843638
:107EC00009F040C070D06FD0082F6DD080E0C81688
:107ED00080E7D80618F4F601B7BEE895C0E0D1E017
:107EE00062D089930C17E1F7F0E0CF16F0E7DF06D8
:107EF00018F0F601B7BEE89568D007B600FCFDCFD4
:107F0000A601A0E0B1E02C9130E011968C91119780
:107F100090E0982F8827822B932B1296FA010C0160
:107F200087BEE89511244E5F5F4FF1E0A038BF0790
:107F300051F7F601A7BEE89507B600FCFDCF97BE46
:107F4000E89526C08437B1F42ED02DD0F82E2BD052
:107F50003CD0F601EF2C8F010F5F1F4F84911BD097
:107F6000EA94F801C1F70894C11CD11CFA94CF0C13
:107F7000D11C0EC0853739F428D08EE10CD085E9AC
:107F80000AD08FE07ACF813511F488E018D01DD067
:107F900080E101D065CF982F8091C00085FFFCCF94
:107FA0009093C60008958091C00087FFFCCF809118
:107FB000C00084FD01C0A8958091C6000895E0E648
:107FC000F0E098E1908380830895EDDF803219F02E
:107FD00088E0F5DFFFCF84E1DECF1F93182FE3DFCA
:107FE0001150E9F7F2DF1F91089580E0E8DFEE27F6
:047FF000FF270994CA
:027FFE00040479
:00000001FF
