:020000040000FA
:100000000C9463000C948B000C948B000C940505ED
:100010000C9405050C9405050C948B000C948B0036
:100020000C948B000C948B000C948B000C948B0024
:100030000C948B000C948B000C948B000C948B0014
:100040000C94BB040C948B000C9489040C946304F2
:100050000C948B000C948B000C948B000C948B00F4
:100060000C940F050C948B00000000002500280064
:100070002B00040404040404040402020202020229
:10008000030303030303010204081020408001025C
:1000900004081020010204081020000000080002DB
:1000A00001000003040700000000000000003136DA
:1000B0003A35343A3234004E6F76203234203230C2
:1000C000323000002E0611241FBECFEFD8E0DEBF75
:1000D000CDBF22E0A6E4B1E001C01D92A43BB2076F
:1000E000E1F711E0A0E0B1E0E6EDF8E102C0059033
:1000F0000D92A634B107D9F710E0C3E6D0E004C0F2
:100100002197FE010E94C209C236D107C9F70E9499
:1001100067060C94690C0C94000008950895AF9242
:10012000BF92CF92DF92EF92FF920F931F93CF93E4
:10013000DF936C017B018B01040F151FEB015E0146
:10014000AE18BF08C017D10759F06991D601ED91DB
:10015000FC910190F081E02DC6010995892B79F77A
:10016000C501DF91CF911F910F91FF90EF90DF902C
:10017000CF90BF90AF900895FC01538D448D252FF3
:1001800030E0842F90E0821B930B541710F0CF9631
:10019000089501970895FC01918D828D981761F063
:1001A000A28DAE0FBF2FB11D5D968C91928D9F5F7A
:1001B0009F73928F90E008958FEF9FEF0895FC0159
:1001C000918D828D981731F0828DE80FF11D858D0C
:1001D00090E008958FEF9FEF0895FC01918D228D9F
:1001E000892F90E0805C9F4F821B91098F73992724
:1001F00008958BE092E00E94ED0021E0892B09F444
:1002000020E0822F089580E090E0892B29F00E9461
:10021000F90081110C9400000895FC01A48DA80F31
:10022000B92FB11DA35ABF4F2C91848D90E0019638
:100230008F739927848FA689B7892C93A089B18958
:100240008C91837080648C93938D848D981306C0F9
:100250000288F389E02D80818F7D80830895EF925D
:10026000FF920F931F93CF93DF93EC0181E0888F70
:100270009B8D8C8D98131AC0E889F989808185FF40
:1002800015C09FB7F894EE89FF896083E889F989E2
:1002900080818370806480839FBF81E090E0DF91E4
:1002A000CF911F910F91FF90EF900895F62E0B8D37
:1002B00010E00F5F1F4F0F731127E02E8C8D8E11F2
:1002C0000CC00FB607FCFACFE889F989808185FF59
:1002D000F5CFCE010E940D01F1CFEB8DEC0FFD2F7C
:1002E000F11DE35AFF4FF0829FB7F8940B8FEA8914
:1002F000FB8980818062CFCFCF93DF93EC01888D23
:100300008823B9F0AA89BB89E889F9898C9185FD90
:1003100003C0808186FD0DC00FB607FCF7CF8C911E
:1003200085FFF2CF808185FFEDCFCE010E940D01C8
:10033000E9CFDF91CF91089590E0FC01E656FF4FA1
:100340002491FC01EA57FF4F3491FC01EE58FF4F16
:10035000E491EE23C9F0222339F0233001F1A8F40F
:10036000213019F1223029F1F0E0EE0FFF1FE8599A
:10037000FF4FA591B4918FB7F894EC91611126C00D
:1003800030953E233C938FBF08952730A9F0283045
:10039000C9F0243049F7809180008F7D03C080919F
:1003A00080008F7780938000DFCF84B58F7784BD06
:1003B000DBCF84B58F7DFBCF8091B0008F778093AA
:1003C000B000D2CF8091B0008F7DF9CF3E2BDACF35
:1003D0003FB7F8948091910190919201A09193017F
:1003E000B091940126B5A89B05C02F3F19F0019646
:1003F000A11DB11D3FBFBA2FA92F982F8827BC017F
:10040000CD01620F711D811D911D42E0660F771FA6
:10041000881F991F4A95D1F708958F929F92AF92A6
:10042000BF92CF92DF92EF92FF924B015C010E944C
:10043000E8016B017C010E94E8016C197D098E09BD
:100440009F09683E734081059105A8F321E0821A57
:100450009108A108B10888EEC80E83E0D81EE11CFF
:10046000F11C81149104A104B10429F7FF90EF90CD
:10047000DF90CF90BF90AF909F908F900895FC0138
:10048000908190539A3008F090E0818180532AE067
:10049000929F800D1124089520916701260F332724
:1004A000331F21323105ECF42091E101FC0190E091
:1004B00080E0243069F082E00895A09167012191E5
:1004C000AC01495B5E4FA40FB52FB11D2C93019673
:1004D000861798F380916701680F6093670180E049
:1004E000089581E008951092E10181E08093E00198
:1004F0001092BB0161E082E10E949C0161E083E116
:100500000E949C01E9EBF0E080818E7F80838081F6
:100510008D7F808388E48093B80085E48093BC005D
:100520000895CF93DF9391E0909346018823B9F02B
:10053000C091B800D091BA008091BC008A7B8093B2
:10054000BC0060E082E10E949C0160E083E10E94C7
:100550009C010E947302D093BA00C093B800DF914F
:10056000CF9108958F929F92AF92BF92CF92DF92D8
:10057000EF92FF920F931F93CF93DF93D0910A02D4
:10058000D13208F0D7C0182FC09109020E94E801AB
:100590006B017C018091E10181116BC082E080934D
:1005A000E1011093E0018FEF8093DF011092DE01F3
:1005B000D093DD01A9EEB1E0EDEBF1E080E0D813DE
:1005C00091C01092BC018091BC01CC0FC82BC0938C
:1005D000BC018091BB01813009F088C01092BB0141
:1005E0000E94E8016B017C018091BC018093BB00FB
:1005F0008091E3019091E401A091E501B091E601C1
:10060000892B8A2B8B2BA1F00E94E8010091E3013A
:100610001091E4012091E5013091E6016C197D090A
:100620008E099F09061717072807390708F442C0E3
:100630008091BC0083FDD8CF85EC8093BC000E94E4
:10064000E8016B017C018091E101823009F450C026
:100650008091DF018F3F09F46FC08091DF0180320C
:1006600009F46CC08091DF01803309F469C084E033
:1006700026C08091E3019091E401A091E501B09141
:10068000E601892B8A2B8B2B09F484CF0E94E80189
:100690008090E3019090E401A090E501B090E60124
:1006A0006C197D098E099F0986169706A806B9065A
:1006B00008F070CF8091E2010E94910285E01092D3
:1006C000E80110920A021092E701DF91CF911F9189
:1006D0000F91FF90EF90DF90CF90BF90AF909F90E1
:1006E0008F9008959D9191938F5F69CF85EEA5CFEF
:1006F0008091E3019091E401A091E501B091E601C0
:10070000892B8A2B8B2B09F49ECF0E94E801009144
:10071000E3011091E4012091E5013091E6016C19AB
:100720007D098E099F09061717072807390708F062
:100730008ACFC0CF81E0C3CF80E0C1CF82E0BFCFFE
:1007400083E0BDCF0895E0919A0180919901E81767
:1007500030F4F0E0E556FE4F808190E008958FEF91
:100760009FEF089590919A01809199012FEF3FEFAB
:10077000981748F4E92FF0E0E556FE4F208130E06D
:100780009F5F90939A01C90108958091990190917A
:100790009A01891B990B0895CF92DF92EF92FF92F5
:1007A0000F931F93CF93DF937C01CB018A0120919C
:1007B000E701222389F0EB016B01C40ED51ECC1595
:1007C000DD0569F06991D701ED91FC910190F0810F
:1007D000E02DC7010995F3CF642F0E944C02C80198
:1007E000DF91CF911F910F91FF90EF90DF90CF900D
:1007F0000895CF93DF931F92CDB7DEB76983209121
:10080000E7012223F9F020910A02203258F021E07A
:1008100030E0FC013383228390E080E00F90DF9191
:10082000CF9108958091E801E82FF0E0E751FE4F65
:10083000998190838F5F8093E80180930A0281E021
:1008400090E0ECCF61E0CE0101960E944C02F7CF20
:1008500090E080E0089585ED8093BC008091E301F5
:100860009091E401A091E501B091E6010796A11DE8
:10087000B11D23E0B695A795979587952A95D1F751
:100880002091BC0024FD03C01092E1010895409125
:10089000E3015091E4016091E5017091E601452B7F
:1008A000462B472B69F30097A105B10541F025E3DD
:1008B0002A95F1F700000197A109B109E1CF8091D4
:1008C000E2010C9491021F920F920FB60F92112425
:1008D0002F933F934F935F936F937F938F939F9348
:1008E000AF93BF93EF93FF938BE092E00E940D01D3
:1008F000FF91EF91BF91AF919F918F917F916F91F8
:100900005F914F913F912F910F900FBE0F901F90CD
:1009100018951F920F920FB60F9211242F938F9359
:100920009F93EF93FF93E0911B02F0911C02808153
:10093000E0912102F091220282FD1BC09081809102
:1009400024028F5F8F7320912502821741F0E0917E
:100950002402F0E0E55FFD4F958F80932402FF9124
:10096000EF919F918F912F910F900FBE0F901F903D
:1009700018958081F4CF1F920F920FB60F92112419
:100980002F933F938F939F93AF93BF9380918D014C
:1009900090918E01A0918F01B091900130918C01C6
:1009A00023E0230F2D3758F50196A11DB11D20938B
:1009B0008C0180938D0190938E01A0938F01B09351
:1009C00090018091910190919201A0919301B09139
:1009D00094010196A11DB11D809391019093920104
:1009E000A0939301B0939401BF91AF919F918F9188
:1009F0003F912F910F900FBE0F901F90189526E8F2
:100A0000230F0296A11DB11DD2CF1F920F920FB6D8
:100A10000F9211240F900FBE0F901F9018951F92E8
:100A20000F920FB60F9211242F933F934F935F9322
:100A30006F937F938F939F93AF93BF93EF93FF93A6
:100A40008091B900887F803609F44AC0F0F5883279
:100A500009F4A7C018F5803109F49BC0B8F48823C5
:100A600009F4F9C0883009F494C0FF91EF91BF9167
:100A7000AF919F918F917F916F915F914F913F9136
:100A80002F910F900FBE0F901F901895883109F489
:100A900088C0803251F78093DF0114C0803409F49C
:100AA0009DC040F48033B9F38833F9F68093DF01B9
:100AB00085ECB0C0803509F485C0883509F496C04E
:100AC000883499F60E942B04D0CF883909F48CC061
:100AD00038F5883729F050F4883611F0803729F638
:100AE00083E08093E1011092890157C0883809F4AE
:100AF0007BC0803919F0803809F0B7CF8091890127
:100B0000803208F071C0E091890181E08E0F8093FE
:100B100089018091BB00F0E0E759FE4F80833DC022
:100B2000803B39F0E0F4803A09F479C0883A09F062
:100B30009CCF84E08093E1011092680110926701DC
:100B4000E0919701F09198010995809167018111D9
:100B50000FC081E0809367011092470109C0803C7B
:100B600009F4A6CF883C09F4A3CF883B09F07DCFD8
:100B7000E091680181E08E0F80936801F0E0E95B0D
:100B8000FE4F80818093BB00909168018091670146
:100B900029C08091BC018093BB0085EC8093BC0090
:100BA00064CF9091DE018091DD01981758F5E091B6
:100BB000DE0181E08E0F8093DE01F0E0E354FE4F12
:100BC0008081E9CFE091DE0181E08E0F8093DE012C
:100BD0008091BB00F0E0E354FE4F80839091DE01F2
:100BE0008091DD019817C8F285E8D8CFE091DE0149
:100BF00081E08E0F8093DE018091BB00F0E0E35432
:100C0000FE4F80838091E00181115CCF81E0809371
:100C1000BB0184EA8093BC001092E10126CF85ECF1
:100C20008093BC001092E10180918901803230F400
:100C3000E0918901F0E0E759FE4F1082609189014F
:100C400070E0E0919501F091960189E691E00995B7
:100C5000109289010ACF1092DF0134CFEBE0F2E06D
:100C60001382128288EE93E0A0E0B0E08483958343
:100C7000A683B78324E031E03183208325EC30E084
:100C80003587248724EC30E03787268720EC30E056
:100C9000318B208B21EC30E0338B228B22EC30E047
:100CA000358B248B26EC30E0378B268B118E128E01
:100CB000138E148EE8EAF2E0138212828483958305
:100CC000A683B78386E191E0918380830895CF93D3
:100CD000DF93CDB7DEB7E2970FB6F894DEBF0FBE55
:100CE000CDBF789484B5826084BD84B5816084BDB5
:100CF00085B5826085BD85B5816085BD80916E00BA
:100D0000816080936E0010928100809181008260EA
:100D10008093810080918100816080938100809127
:100D200080008160809380008091B1008460809316
:100D3000B1008091B00081608093B00080917A0012
:100D4000846080937A0080917A00826080937A0038
:100D500080917A00816080937A0080917A00806827
:100D600080937A001092C100E0911B02F0911C0266
:100D700082E08083E0911702F09118021082E091E6
:100D80001902F0911A028FEC808310922302E091F5
:100D90001F02F091200286E08083E0911D02F09115
:100DA0001E02808180618083E0911D02F0911E020D
:100DB000808188608083E0911D02F0911E02808115
:100DC00080688083E0911D02F0911E0280818F7DFA
:100DD000808310929A01109299011092E80110926A
:100DE0000A020E9473028DE890E09093980180932C
:100DF00097018EE890E090939601809395014BE0E7
:100E000050E067EB70E08E010F5F1F4FC8010E943A
:100E10007609CE010A960E943F02E82EE981E1544C
:100E2000E331E0F40E2E000CFF0BE75EF84F0C945C
:100E3000C20951082E072E076C082E072C072E0713
:100E40002E072E0742082E072E075A086908660843
:100E50002E072E072E07630892E0F92ECE01059685
:100E60000E943F02C82E48E050E06EEA70E0C801E0
:100E70000E947609C8010E943F02B82ECE01049656
:100E80000E943F02A82ECE0107960E943F02982E94
:100E900081E08093E70188E6809309021092E801DF
:100EA00010920A0260E088EA92E00E94F903FAE0F8
:100EB000DF2E892D6D2D0E94B609682F660F680FF1
:100EC000660F690D88EA92E00E94F9038A2D6D2D64
:100ED0000E94B609682F660F680F660F6A0D88EAD0
:100EE00092E00E94F9038B2D6D2D0E94B609682FA8
:100EF000660F680F660F6B0D88EA92E00E94F90397
:100F000060E088EA92E00E94F9038C2D6D2D0E942A
:100F1000B609682F660F680F660F6C0D88EA92E0BD
:100F20000E94F9038F2D6D2D0E94B609682F660F60
:100F3000680F660F6F0D88EA92E00E94F9038E2D0C
:100F40006D2D0E94B609682F660F680F660F6E0D33
:100F500088EA92E00E94F90381E00E94B20264EF05
:100F600071E080E090E00E940D02FF24F394A5EE72
:100F70003A2EB5EC8B2E84E2C82E81E0D82E90E07C
:100F8000A92E90E0B92EEE24EA9426E0922EF0925B
:100F9000E70188E6809309021092E80110920A02A4
:100FA00060E088EA92E00E94F90381E00E94B202C8
:100FB0000E94E8012B013C018091E10181118FC069
:100FC000F092E101F092E001E092DF011092DE0187
:100FD0009092DD01F092BC018091BC01806D809304
:100FE000BC018091BB01813009F059C11092BB0155
:100FF0000E94E8012B013C018091BC018093BB0061
:101000008091E3019091E401A091E501B091E601A6
:10101000892B8A2B8B2BA1F00E94E8012091E30100
:101020003091E4014091E5015091E60164197509A0
:1010300086099709261737074807590708F470C02B
:101040008091BC0083FDD8CF8092BC000E94E80153
:101050002B013C018091E101813009F423C1809191
:10106000DE01873008F040C18091DE01EDEBF1E058
:10107000ABE9B1E090E0981709F457C021912D93A6
:101080009F5FF9CF8A81FF24F394813609F4E6CE7D
:101090008B81B6E0FB2E8E3609F4E0CE87E0F82E89
:1010A000DDCE8B81A8E0FA2E823709F0D7CEF4E0AE
:1010B000FF2ED4CE8B81E5E0FE2E823709F0CECE16
:1010C00073E0F72ECBCE69E0F62EC8CE5AE0F52EAF
:1010D000C5CE4BE0F42EC2CE3CE0F32EBFCE8091C5
:1010E000E3019091E401A091E501B091E601892B23
:1010F0008A2B8B2B09F460CF0E94E8012091E30139
:101100003091E4014091E5015091E60164197509BF
:1011100086099709261737074807590708F04CCF63
:101120008091E2010E94910280E010929A018093E6
:10113000990188EA92E00E94B2038F77282F30E06D
:1011400094E0359527959A95E1F7922F990F990F8D
:10115000222E291A220C280E88EA92E00E94B2035D
:101160009C0144E0359527954A95E1F72F70332788
:10117000922F990F990F422E491A440C480E88EA73
:1011800092E00E94B2039C0154E0359527955A9550
:10119000E1F72F703327922F990F990F522E591A7A
:1011A000550C580E88EA92E00E94B20388EA92E059
:1011B0000E94B2039C0164E0359527956A95E1F79A
:1011C0002F703327922F990F990F622E691A660C90
:1011D000680E88EA92E00E94B2039C0174E03595A3
:1011E00027957A95E1F72F703327922F990F990F52
:1011F000722E791A770C780E88EA92E00E94B20378
:101200001F922F921F924F921F925F921F926F9286
:101210001F927F929C01E4E035952795EA95E1F7CE
:101220002F703327922F990F990F291B220F820FAE
:1012300090E08053984F9F938F93DF92CF921F93AC
:101240000F930E94C809F80101900020E9F7319737
:10125000AF01401B510BB8018BE092E00E948F0060
:1012600042E050E063E471E08BE092E00E948F0086
:1012700068EE73E080E090E00E940D020FB6F894F3
:10128000DEBF0FBECDBFA114B10409F480CE0E9411
:10129000F900882309F47BCE0E94000078CE3092BA
:1012A000BC00D4CE8091E3019091E401A091E501CE
:1012B000B091E601892B8A2B8B2B09F4CBCE0E94AF
:1012C000E8012091E3013091E4014091E501509162
:1012D000E601641975098609970926173707480733
:1012E000590708F0B7CE1CCF87E0C0CEFB01DC0168
:1012F00002C005900D9241505040D8F708952F92AA
:101300003F924F925F926F927F928F929F92AF9295
:10131000BF92CF92DF92EF92FF920F931F93CF93E2
:10132000DF93CDB7DEB7CA1BDB0B0FB6F894DEBF79
:101330000FBECDBF09942A88398848885F846E849F
:101340007D848C849B84AA84B984C884DF80EE80E9
:10135000FD800C811B81AA81B981CE0FD11D0FB6F2
:10136000F894DEBF0FBECDBFED010895991B79E063
:1013700004C0991F961708F0961B881F7A95C9F725
:1013800080950895EE0FFF1F0590F491E02D0994CC
:10139000AEE0B0E0EEECF9E00C948D090D891E8909
:1013A00086E08C831A8309838FEF9FE79E838D836A
:1013B000AE01475E5F4F6F89788DCE0101960E9426
:1013C000EB092F813885020F131FF80110822E962A
:1013D000E4E00C94A909ABE0B0E0E1EFF9E00C9493
:1013E0007F097C013B018A01FC01178216828381FF
:1013F00081FFC8C1CE0101965C01F7019381F30121
:1014000093FD859193FF81913F01882309F453C196
:10141000853239F493FD859193FF81913F018532A7
:1014200029F4B70190E00E94DB0BE7CF912C212C2F
:10143000312CFFE1F31538F08B3211F190F480324A
:1014400009F1833229F137FC3CC020ED280F2A3006
:1014500050F536FE20C08AE0989E200D1124922E71
:1014600006C08D3291F0803371F7689430F8F30143
:1014700093FD859193FF81913F018111DACF21C0C6
:10148000689431F8689432F8F2CF689433F8EFCF6B
:10149000689434F8ECCFEAE02E9E200D1124222E21
:1014A000689435F8E4CF8E3229F436FC04C1689490
:1014B00036F8DDCF8C3619F4689437F8D8CF8836F3
:1014C000B1F2982F9F7D95549330E0F08336A1F1CF
:1014D0008337C1F1833509F063C02801F2E04F0E74
:1014E000511CF801C080D180692D70E036FC02C02B
:1014F0006FEF7FEFC6010E94C50B4C01689437F86F
:1015000082010AC00C5F1F4FFFE3F9838824839494
:10151000912C6501E89437F833FE2DC0522C8114CC
:10152000910471F5552009F468CFB70180E290E08D
:101530000E94DB0B5A94F6CFF801808189830E5FFD
:101540001F4FE4CF2801F2E04F0E511CF801C0807C
:10155000D180692D70E036FC02C06FEF7FEFC601CD
:101560000E94D00B4C018201D5CFB70180E290E000
:101570000E94DB0B2A942814190409F0B0F7CECF8F
:10158000F60137FC859137FE81916F01B70190E03C
:101590000E94DB0B51105A94F1E08F1A9108BFCFD3
:1015A000843619F0893609F077C0F80137FE6BC030
:1015B00060817181828193810C5F1F4FF32DFF76D3
:1015C0003F2E97FF09C090958095709561957F4F4C
:1015D0008F4F9F4F689437F82AE030E0A5010E94B2
:1015E0000B0CC82ECA188C2C432C36FE0CC0E89469
:1015F00040F8C91440F434FE05C032FC03C0F32D9A
:10160000FE7E4F2E892C44FE95C0FE01EC0DF11D8F
:101610008081803309F087C0242D297E422E842DBD
:101620008870582E43FC95C040FE8FC09C2C8214BD
:1016300018F42C0C922C981844FE91C0B70180E34A
:1016400090E00E94DB0B42FE09C088E790E041FE7B
:1016500002C088E590E0B7010E94DB0BC91408F4D2
:101660008AC0CA94D12C9FEFC91AD90ACA0CDB1CB4
:10167000F60182916F01B70190E00E94DB0BAC1480
:10168000BD04B1F74FCF60817181072E000C880B2C
:10169000990B0E5F1F4F92CFD32CE894D4F82AE019
:1016A00030E0853739F1232D297FD22E8F3601F195
:1016B00048F48835A9F0F701868197812B96E2E1FD
:1016C0000C949B09803749F08837A9F7D4FE02C0F3
:1016D0006894D2F820E130E00DC06894D4F8F6CFD9
:1016E00034FE03C0822F8660D82E20E132E002C093
:1016F00028E030E0F801D7FE0FC06081718182815F
:1017000093810C5F1F4FA5010E940B0CC82ECA18B5
:101710003D2CE89437F867CF6081718190E080E0DC
:101720000E5F1F4FF0CF42FC02C0839478CF8394AA
:10173000839475CF842D867809F471CFF6CFB701E5
:1017400080E290E00E94DB0B83948214C0F3512C62
:1017500073CF522C5818821408F46ECFF8CF842D12
:10176000867809F47BCF8BE241FE80E247FC8DE274
:10177000B70190E071CFB70180E390E00E94DB0BEE
:101780009A946CCF8FEF9FEF99CFFC010590615039
:1017900070400110D8F7809590958E0F9F1F089587
:1017A000FC016150704001900110D8F78095909530
:1017B0008E0F9F1F08950F931F93CF93DF93182FC2
:1017C000092FEB018B8181FD09C01FEF0FEF812FE6
:1017D000902FDF91CF911F910F91089582FF14C038
:1017E0002E813F818C819D81281739073CF4E88147
:1017F000F981CF0101969983888310838E819F811F
:1018000001969F838E83E3CFE885F985812F099523
:10181000892BA1F3DACFFA01AA27283051F1203120
:1018200081F1E8946F936E7F6E5F7F4F8F4F9F4F74
:10183000AF4FB1E03ED0B4E03CD0670F781F891FB6
:101840009A1FA11D680F791F8A1F911DA11D6A0F84
:10185000711D811D911DA11D20D009F468943F9137
:101860002AE0269F11243019305D3193DEF6CF0136
:101870000895462F4770405D4193B3E00FD0C9F7FC
:10188000F6CF462F4F70405D4A3318F0495D31FD69
:101890004052419302D0A9F7EACFB4E0A6959795BC
:1018A000879577956795BA95C9F700976105710592
:1018B00008959B01AC010A2E0694579547953795DC
:1018C0002795BA95C9F7620F731F841F951FA01D36
:1018D0000895F894FFCF000000002F018F00BC0096
:1018E0007C01ED00CB00DF0000000000F903CC0319
:1018F0002804A203C503B203A303253034642D25B5
:101900003032642D2530326454253032643A25302B
:0C19100032643A253032645A000D0A009F
:107E0000112484B714BE81FFF0D085E080938100F7
:107E100082E08093C00088E18093C10086E0809377
:107E2000C20080E18093C4008EE0C9D0259A86E02C
:107E300020E33CEF91E0309385002093840096BBD3
:107E4000B09BFECF1D9AA8958150A9F7CC24DD24C4
:107E500088248394B5E0AB2EA1E19A2EF3E0BF2EE7
:107E6000A2D0813461F49FD0082FAFD0023811F036
:107E7000013811F484E001C083E08DD089C08234E0
:107E800011F484E103C0853419F485E0A6D080C0E4
:107E9000853579F488D0E82EFF2485D0082F10E0AE
:107EA000102F00270E291F29000F111F8ED06801E7
:107EB0006FC0863521F484E090D080E0DECF843638
:107EC00009F040C070D06FD0082F6DD080E0C81688
:107ED00080E7D80618F4F601B7BEE895C0E0D1E017
:107EE00062D089930C17E1F7F0E0CF16F0E7DF06D8
:107EF00018F0F601B7BEE89568D007B600FCFDCFD4
:107F0000A601A0E0B1E02C9130E011968C91119780
:107F100090E0982F8827822B932B1296FA010C0160
:107F200087BEE89511244E5F5F4FF1E0A038BF0790
:107F300051F7F601A7BEE89507B600FCFDCF97BE46
:107F4000E89526C08437B1F42ED02DD0F82E2BD052
:107F50003CD0F601EF2C8F010F5F1F4F84911BD097
:107F6000EA94F801C1F70894C11CD11CFA94CF0C13
:107F7000D11C0EC0853739F428D08EE10CD085E9AC
:107F80000AD08FE07ACF813511F488E018D01DD067
:107F900080E101D065CF982F8091C00085FFFCCF94
:107FA0009093C60008958091C00087FFFCCF809118
:107FB000C00084FD01C0A8958091C6000895E0E648
:107FC000F0E098E1908380830895EDDF803219F02E
:107FD00088E0F5DFFFCF84E1DECF1F93182FE3DFCA
:107FE0001150E9F7F2DF1F91089580E0E8DFEE27F6
:047FF000FF270994CA
:027FFE00040479
:00000001FF
