:020000040000FA
:100000000C946E000C9496000C9496000C941606BA
:100010000C9416060C9416060C9496000C949600FC
:100020000C9496000C9496000C9496000C949600F8
:100030000C9496000C9496000C9496000C949600E8
:100040000C94CC050C9496000C949A050C947405B1
:100050000C9496000C9496000C9496000C949600C8
:100060000C948E060C94960000000008000201001B
:1000700000030407000000000000000030383A349C
:10008000373A3134004E6F762032332032303230FE
:1000900000000000002300260029000000000024CA
:1000A0000027002A0000000000250028002B000483
:1000B000040404040404040202020202020303030F
:1000C0000303030102040810204080010204081009
:1000D0002001020408102000AD07E40C11241FBE0B
:1000E000CFEFD8E0DEBFCDBF24E0A8E6B2E001C08C
:1000F0001D92AB33B207E1F712E0A0E0B1E0E4E318
:10010000F4E202C005900D92A836B107D9F710E0CD
:10011000CDE6D0E004C02197FE010E94600DCC36F0
:10012000D107C9F70E94A8080C940D120C94000086
:1001300008950895AF92BF92CF92DF92EF92FF920F
:100140000F931F93CF93DF936C017B018B01040FFF
:10015000151FEB015E01AE18BF08C017D10759F09B
:100160006991D601ED91FC910190F081E02DC601DD
:100170000995892B79F7C501DF91CF911F910F91D7
:10018000FF90EF90DF90CF90BF90AF900895FC016B
:10019000538D448D252F30E0842F90E0821B930BEC
:1001A000541710F0CF96089501970895FC01918D92
:1001B000828D981761F0A28DAE0FBF2FB11D5D9695
:1001C0008C91928D9F5F9F73928F90E008958FEF37
:1001D0009FEF08952FB7F89480911B0390911C0313
:1001E000A0911D03B0911E032FBF809377039093BE
:1001F0007803A0937903B0937A038FE693E00E948B
:10020000D60097FF26C02FB7F89480911B039091DA
:100210001C03A0911D03B0911E032FBF40917703D3
:10022000509178036091790370917A03841B950B48
:10023000A60BB70B40917303509174036091750343
:100240007091760384179507A607B707B0F28FEF72
:100250009FEF0895FC01918D828D981731F0828D6A
:10026000E80FF11D858D90E008958FEF9FEF0895C1
:10027000FC01918D228D892F90E0805C9F4F821B25
:1002800091098F73992708958FE693E00E943801B2
:1002900021E0892B09F420E0822F089580E090E08E
:1002A000892B29F00E94440181110C9400000895CB
:1002B000FC01A48DA80FB92FB11DA35ABF4F2C91DB
:1002C000848D90E001968F739927848FA689B789D2
:1002D0002C93A089B1898C91837080648C93938DC9
:1002E000848D981306C00288F389E02D80818F7D6C
:1002F00080830895EF92FF920F931F93CF93DF9324
:10030000EC0181E0888F9B8D8C8D98131AC0E88951
:10031000F989808185FF15C09FB7F894EE89FF8920
:100320006083E889F98980818370806480839FBFBE
:1003300081E090E0DF91CF911F910F91FF90EF90BE
:100340000895F62E0B8D10E00F5F1F4F0F731127CE
:10035000E02E8C8D8E110CC00FB607FCFACFE88909
:10036000F989808185FFF5CFCE010E945801F1CF38
:10037000EB8DEC0FFD2FF11DE35AFF4FF0829FB77D
:10038000F8940B8FEA89FB8980818062CFCFCF936D
:10039000DF93EC01888D8823B9F0AA89BB89E889AD
:1003A000F9898C9185FD03C0808186FD0DC00FB653
:1003B00007FCF7CF8C9185FFF2CF808185FFEDCFD1
:1003C000CE010E945801E9CFDF91CF91089590E0CE
:1003D000FC01E859FF4F2491FC01ED53FF4F34918C
:1003E000FC01E155FF4FE491EE23C9F0222339F0DF
:1003F000233001F1A8F4213019F1223029F1F0E085
:10040000EE0FFF1FEB55FF4FA591B4918FB7F894F6
:10041000EC91611126C030953E233C938FBF089527
:100420002730A9F02830C9F0243049F780918000A6
:100430008F7D03C0809180008F7780938000DFCF15
:1004400084B58F7784BDDBCF84B58F7DFBCF809162
:10045000B0008F778093B000D2CF8091B0008F7DB5
:10046000F9CF3E2BDACF3FB7F8948091ED0290910F
:10047000EE02A091EF02B091F00226B5A89B05C054
:100480002F3F19F00196A11DB11D3FBFBA2FA92F13
:10049000982F8827BC01CD01620F711D811D911D10
:1004A00042E0660F771F881F991F4A95D1F708957C
:1004B0002091F3023091F4022817390771F49091DA
:1004C000F1028091F202981741F0E091F102F0E020
:1004D000E455FD4F808190E008958FEF9FEF0895E0
:1004E0000895EF92FF920F931F93CF93DF93DC0158
:1004F0005C96ED90FC905D97E114F10479F481E055
:1005000090E013969C938E93129790E080E0DF9199
:10051000CF911F910F91FF90EF9008955196ED911B
:10052000FC91529750968C915097982F90950FB7B9
:100530005E962C915E97122F127021FD6095F894B3
:100540002081112319F1282B2083E7012197F1F74E
:1005500028E0462F50E0308160FF1AC0382B3083EE
:10056000E7012197F1F7BA0175956795215089F751
:10057000112381F08081892380830FBF5C968D9148
:100580009C910197F1F781E090E0C1CF2923DCCF66
:100590003923E5CF9081892BEFCF2091F302309161
:1005A000F4022817390771F48091F2022091F102C8
:1005B00090E0805C9F4F821B910960E470E00E9494
:1005C0004C0D089590E080E008952091F302309161
:1005D000F40228173907B9F49091F1028091F202E0
:1005E000981789F0E091F102F0E0E455FD4F808129
:1005F0002091F10230E02F5F3F4F2F73332720937C
:10060000F10290E008958FEF9FEF0895FC01908133
:1006100090539A3008F090E0818180532AE0929FB5
:10062000800D1124089520918902260F3327331F4E
:1006300021323105ECF420914503FC0190E080E08B
:10064000243069F082E00895A09189022191AC01E3
:1006500047595D4FA40FB52FB11D2C9301968617F6
:1006600098F380918902680F6093890280E0089571
:1006700081E008951092450381E080934403109235
:100680001F0361E082E10E94E70161E083E10E94D3
:10069000E701E9EBF0E080818E7F808380818D7FB0
:1006A000808388E48093B80085E48093BC0008953B
:1006B000CF93DF9391E0909368028823B9F0C091C3
:1006C000B800D091BA008091BC008A7B8093BC00B6
:1006D00060E082E10E94E70160E083E10E94E701BF
:1006E0000E943A03D093BA00C093B800DF91CF9133
:1006F00008958F929F92AF92BF92CF92DF92EF9226
:10070000FF920F931F93CF93DF93D0916E03D1325B
:1007100008F0D7C0182FC0916D030E9433026B01FF
:100720007C018091450381116BC082E08093450379
:10073000109344038FEF8093430310924203D093AE
:100740004103ADE4B3E0E1E2F3E080E0D81391C00F
:100750001092200380912003CC0FC82BC09320035C
:1007600080911F03813009F088C010921F030E94FE
:1007700033026B017C01809120038093BB00809148
:10078000470390914803A0914903B0914A03892BF4
:100790008A2B8B2BA1F00E9433020091470310910A
:1007A00048032091490330914A036C197D098E0951
:1007B0009F09061717072807390708F442C08091D8
:1007C000BC0083FDD8CF85EC8093BC000E9433022F
:1007D0006B017C0180914503823009F450C0809107
:1007E00043038F3F09F46FC080914303803209F4C3
:1007F0006CC080914303803309F469C084E026C053
:100800008091470390914803A0914903B0914A0316
:10081000892B8A2B8B2B09F484CF0E943302809082
:10082000470390904803A0904903B0904A036C1985
:100830007D098E099F0986169706A806B90608F055
:1008400070CF809146030E94580385E010924C03BC
:1008500010926E0310924B03DF91CF911F910F9175
:10086000FF90EF90DF90CF90BF90AF909F908F90D0
:1008700008959D9191938F5F69CF85EEA5CF80916B
:10088000470390914803A0914903B0914A03892BF3
:100890008A2B8B2B09F49ECF0E94330200914703D1
:1008A000109148032091490330914A036C197D0946
:1008B0008E099F09061717072807390708F08ACFFE
:1008C000C0CF81E0C3CF80E0C1CF82E0BFCF83E063
:1008D000BDCFE091FA028091F902E81730F4F0E020
:1008E000E550FD4F808190E008958FEF9FEF0895D0
:1008F0009091FA028091F9022FEF3FEF981748F498
:10090000E92FF0E0E550FD4F208130E09F5F9093AC
:10091000FA02C90108958091F9029091FA02891BA7
:10092000990B0895CF92DF92EF92FF920F931F934E
:10093000CF93DF937C01CB018A0120914B032223CB
:1009400089F0EB016B01C40ED51ECC15DD0569F0F5
:100950006991D701ED91FC910190F081E02DC701E3
:100960000995F3CF642F0E941303C801DF91CF9143
:100970001F910F91FF90EF90DF90CF900895CF934C
:10098000DF931F92CDB7DEB7698320914B032223FB
:10099000F9F020916E03203258F021E030E0FC01A4
:1009A0003383228390E080E00F90DF91CF91089510
:1009B00080914C03E82FF0E0E35BFC4F998190833A
:1009C0008F5F80934C0380936E0381E090E0ECCFC7
:1009D00061E0CE0101960E941303F7CF90E080E022
:1009E0000895FB0101900020E9F73197AF01461B04
:1009F000570BDC01ED91FC910280F381E02D09940D
:100A00000F931F93CF93DF93EC010E94F1048C01AD
:100A10006CE371E0CE010E94F104800F911FDF9121
:100A2000CF911F910F9108950F931F93CF93DF9351
:100A3000EC0188819981009759F02A813B81261722
:100A4000370730F081E0DF91CF911F910F9108952A
:100A50008B016F5F7F4F0E949F0E009759F0998323
:100A600088831B830A832C813D81232B59F7FC014A
:100A70001082E8CF80E0E7CF85ED8093BC008091C5
:100A8000470390914803A0914903B0914A03079608
:100A9000A11DB11D23E0B695A795979587952A9539
:100AA000D1F72091BC0024FD03C0109245030895A6
:100AB00040914703509148036091490370914A0364
:100AC000452B462B472B69F30097A105B10541F053
:100AD00025E32A95F1F700000197A109B109E1CFBB
:100AE000809146030C9458031F920F920FB60F92F9
:100AF00011242F933F934F935F936F937F938F9323
:100B00009F93AF93BF93EF93FF938FE693E00E9481
:100B10005801FF91EF91BF91AF919F918F917F917C
:100B20006F915F914F913F912F910F900FBE0F905A
:100B30001F9018951F920F920FB60F9211242F93AA
:100B40008F939F93EF93FF93E0917F03F091800346
:100B50008081E0918503F091860382FD1BC0908126
:100B6000809188038F5F8F7320918903821741F0F2
:100B7000E0918803F0E0E159FC4F958F8093880362
:100B8000FF91EF919F918F912F910F900FBE0F903A
:100B90001F9018958081F4CF1F920F920FB60F927D
:100BA00011242F933F938F939F93AF93BF93809183
:100BB0001B0390911C03A0911D03B0911E03309163
:100BC000EC0223E0230F2D3758F50196A11DB11D2E
:100BD0002093EC0280931B0390931C03A0931D03AE
:100BE000B0931E038091ED029091EE02A091EF026E
:100BF000B091F0020196A11DB11D8093ED0290937A
:100C0000EE02A093EF02B093F002BF91AF919F91DB
:100C10008F913F912F910F900FBE0F901F901895BD
:100C200026E8230F0296A11DB11DD2CF1F920F926D
:100C30000FB60F9211242F933F934F935F936F93AF
:100C40007F938F939F93AF93BF93EF93FF93E09125
:100C5000F302F091F402309749F0A685B7858585B7
:100C6000968D91FF14C09C918923A1F4FF91EF917F
:100C7000BF91AF919F918F917F916F915F914F91B4
:100C80003F912F910F900FBE0F901F9018959C9140
:100C9000892361F7A389B4899C91858980958923EB
:100CA0008C93868997890197F1F7608D718DA68560
:100CB000B785558538E020E0CB010197F1F7822F09
:100CC00090E095958795282F4C91452309F0206851
:100CD000315091F7868D81FD20958091F20290E050
:100CE00001968F7399273091F102381799F0A091EE
:100CF000F202B0E0A455BD4F2C938093F202828D96
:100D0000938D0197F1F7A389B4898C919589892BEB
:100D10008C93ACCF868D8160868FF1CF1F920F921E
:100D20000FB60F9211242F933F934F935F936F93BE
:100D30007F938F939F93AF93BF93EF93FF93809194
:100D4000B900887F803609F44AC0F0F5883209F48A
:100D5000A7C018F5803109F49BC0B8F4882309F4C2
:100D6000F9C0883009F494C0FF91EF91BF91AF9121
:100D70009F918F917F916F915F914F913F912F91B3
:100D80000F900FBE0F901F901895883109F488C0FE
:100D9000803251F78093430314C0803409F49DC01E
:100DA00040F48033B9F38833F9F68093430385EC3C
:100DB000B0C0803509F485C0883509F496C0883400
:100DC00099F60E943C05D0CF883909F48CC038F5DB
:100DD000883729F050F4883611F0803729F683E0FF
:100DE000809345031092AB0257C0883809F47BC04A
:100DF000803919F0803809F0B7CF8091AB0280328A
:100E000008F071C0E091AB0281E08E0F8093AB02DD
:100E10008091BB00F0E0E557FD4F80833DC0803BF3
:100E200039F0E0F4803A09F479C0883A09F09CCFAF
:100E300084E08093450310928A0210928902E09127
:100E4000F702F091F80209958091890281110FC093
:100E500081E0809389021092690209C0803C09F404
:100E6000A6CF883C09F4A3CF883B09F07DCFE09161
:100E70008A0281E08E0F80938A02F0E0E759FD4FED
:100E800080818093BB0090918A028091890229C061
:100E9000809120038093BB0085EC8093BC0064CFDD
:100EA0009091420380914103981758F5E0914203D5
:100EB00081E08E0F80934203F0E0EF5DFC4F808174
:100EC000E9CFE091420381E08E0F8093420380914D
:100ED000BB00F0E0EF5DFC4F808390914203809176
:100EE00041039817C8F285E8D8CFE091420381E02A
:100EF0008E0F809342038091BB00F0E0EF5DFC4FCA
:100F000080838091440381115CCF81E080931F0333
:100F100084EA8093BC001092450326CF85EC809331
:100F2000BC00109245038091AB02803230F4E09116
:100F3000AB02F0E0E557FD4F10826091AB0270E02C
:100F4000E091F502F091F6028BE892E0099510929B
:100F5000AB020ACF1092430334CF0F931F93CF936A
:100F6000DF93109272031092710388EE93E0A0E079
:100F7000B0E08093730390937403A0937503B093D0
:100F800076032AE031E03093700320936F0325EC61
:100F900030E030937C0320937B0324EC30E03093EB
:100FA0007E0320937D0320EC30E030938003209378
:100FB0007F0321EC30E0309382032093810322EC05
:100FC00030E0309384032093830326EC30E03093A9
:100FD0008603209385031092880310928903109250
:100FE0008A0310928B0310920F0410920E048093C8
:100FF000100490931104A0931204B09313042CE1F5
:1010000031E030930D0420930C0410921B041092D5
:101010001A0480931C0490931D04A0931E04B093A3
:101020001F048EE291E090931904809318041092AB
:101030002F0410922E04109231041092300410925A
:1010400033041092320410923504109234046091EB
:1010500036046E7F6D7F609336046695617081E023
:1010600068278AE00E94E7014DEC50E0FA016491A4
:1010700089EB90E0FC012491222399F030E0220FCB
:10108000331FF901E556FF4FA591B491F901EB55D6
:10109000FF4F259134912FB7F8943C91632B6C93BB
:1010A0002FBFFA01449140932804FC018491E82F5A
:1010B000F0E0EE0FFF1FEB55FF4F85919491909359
:1010C0002A04809329040CEC10E0F8012491C8EB69
:1010D000D0E0FE0184918823C9F090E0880F991F29
:1010E000FC01E556FF4FA591B491FC01EB55FF4F74
:1010F000459154913FB7F8949C91822F8095982305
:101100009C93FA019081892380833FBF80913604AC
:1011100081FD04C061E089E00E94E70189E08093DD
:101120002404F801049100932504FE01C491EC2FDE
:10113000F0E0EE0FFF1FEF56FF4F859194919093D3
:10114000270480932604DF91CF911F910F9108957A
:10115000CF93DF93CDB7DEB7E4970FB6F894DEBF39
:101160000FBECDBF789484B5826084BD84B58160A4
:1011700084BD85B5826085BD85B5816085BD809162
:101180006E00816080936E001092810080918100DA
:1011900082608093810080918100816080938100D2
:1011A000809180008160809380008091B100846094
:1011B0008093B1008091B00081608093B0008091F5
:1011C0007A00846080937A0080917A0082608093B4
:1011D0007A0080917A00816080937A0080917A0011
:1011E000806880937A001092C100E0917F03F091B3
:1011F000800382E08083E0917B03F0917C03108286
:10120000E0917D03F0917E038FEC80831092870341
:10121000E0918303F091840386E08083E091810371
:10122000F0918203808180618083E0918103F0915D
:101230008203808188608083E0918103F091820342
:10124000808180688083E0918103F09182038081B6
:101250008F7D8083109233041092320410923104F7
:101260001092300410922F0410922E048DE991E018
:10127000909335048093340490912404963108F0BF
:1012800047C02DEB30E030932F0420932E042BE940
:1012900031E030933104209330042CE231E030937C
:1012A0003304209332042091680084E0983048F0A1
:1012B00031E09E3008F430E081E001C0880F3A95BB
:1012C000EAF7822B809368002DE630E0983050F0EA
:1012D0002BE630E09E3030F02CE630E0963110F016
:1012E00030E020E030932C0420932B04292F30E0B1
:1012F000983008F080C081E001C0880F9A95EAF725
:1013000080932D0480913404909135040197F1F776
:101310008091320490913304892B49F1E091F302DA
:10132000F091F40224E0E831F20709F1309739F046
:10133000A389B4899C918589809589238C93809118
:1013400036048E7F809336041092F2021092F102DE
:1013500088E194E09093F4028093F302E0912B04EF
:10136000F0912C04808190912D04892B8083109220
:10137000FA021092F90210924C0310926E030E942E
:101380003A0388E990E09093F8028093F70289E9A4
:1013900090E09093F6028093F5024BE050E065E810
:1013A00070E08E010F5F1F4FC8010E94000DCE013B
:1013B0000A960E940603E82EE981E154E33108F021
:1013C00033C00E2E000CFF0BE851F64F0C94600D4D
:1013D000360B140A140A510B140A540B140A140A7B
:1013E000140A080A140A140A3F0B4E0B4B0B140A7A
:1013F000140A140A480B9E3040F42850310981E049
:1014000001C0880F2A95EAF77BCF2E503109F7CF1C
:101410008A81FF24F394813639F08B8126E0F22E05
:101420008E3611F097E0F92ECE0105960E94060344
:10143000C82E48E050E06CE770E0C8010E94000D43
:10144000C8010E940603B82ECE0104960E9406032E
:10145000A82ECE0107960E940603982E81E0809365
:101460004B0388E680936D0310924C0310926E0339
:1014700060E08CE094E00E94BF042AE0D22E892D27
:101480006D2D0E94400D682F660F680F660F690D65
:101490008CE094E00E94BF048A2D6D2D0E94400DC7
:1014A000682F660F680F660F6A0D8CE094E00E944B
:1014B000BF048B2D6D2D0E94400D682F660F680FA5
:1014C000660F6B0D8CE094E00E94BF0460E08CE03E
:1014D00094E00E94BF048C2D6D2D0E94400D682F5A
:1014E000660F680F660F6C0D8CE094E00E94BF04DD
:1014F0008F2D6D2D0E94400D682F660F680F660FAF
:101500006F0D8CE094E00E94BF048E2D6D2D0E9423
:10151000400D682F660F680F660F6E0D8CE094E02B
:101520000E94BF0481E00E9479036CE371E08FE6C2
:1015300093E00E94F1046FE371E08FE693E00E9474
:10154000000566E771E08FE693E00E9400056FE317
:1015500071E08FE693E00E9400056EE371E08FE694
:1015600093E00E9400056DEA71E08FE693E00E942F
:1015700000056BEF71E08FE693E00E9400050E948A
:1015800033024B015C0134EFC32EDD24D394E12CF4
:10159000F12C0E943302681979098A099B09683E77
:1015A000734081059105A8F381E0C81AD108E108CC
:1015B000F10898EE890E93E0991EA11CB11CC1148C
:1015C000D104E104F10429F789E4A82E82E0B82EC1
:1015D00090E0892E90E0992EDD24D394F6E06F2ED2
:1015E000A5EECA2EB5EC7B2E88E194E00E94CD02D8
:1015F000892B09F478C01A8219821C821B821E82F0
:101600001D8270E060E0C8010E94140529813A81C2
:1016100081114DC02115310519F0C9010E94160E26
:101620001A8219821E821D821C821B820E94EA007D
:101630004D815E8197FD43C08BAB1CAA7A018FEF71
:10164000E81AF80AB701C8010E941405882371F34B
:1016500029813A818D819E81BE016D5C7F4F820F11
:10166000931F0E94650FFE82ED82E0CF8B81B8E070
:10167000FB2E823709F0D8CE84E0F82ED5CE8B81B0
:10168000A3E0FA2E823709F4CFCEF5E0FF2ECCCEC0
:10169000E9E0FE2EC9CE7AE0F72EC6CE6BE0F62E3C
:1016A000C3CE5CE0F52EC0CE42E0F42EBDCE1E824D
:1016B0001D826EE371E0C9010E94650FB7CF698199
:1016C0007A818FE693E00E949A006CE371E08FE6E6
:1016D00093E00E94F10489819A81009709F484CFF4
:1016E0000E94160E81CFD0924B0398E690936D0323
:1016F00010924C0310926E0360E08CE094E00E9424
:10170000BF0481E00E9479030E9433021B012C0177
:1017100080914503811162C0D0924503D092440369
:101720002FEF209343031092420360924103D09223
:10173000200380912003806D8093200380911F03FC
:10174000813009F01AC110921F030E9433021B015D
:101750002C01809120038093BB00809147039091DE
:101760004803A0914903B0914A03892B8A2B8B2B04
:10177000A1F00E9433022091470330914803409129
:10178000490350914A036219730984099509261780
:1017900037074807590708F442C08091BC0083FD11
:1017A000D8CF7092BC000E9433021B012C018091A3
:1017B0004503813009F4E4C080914203873008F08A
:1017C00001C180914203A1E2B3E0EBEFF2E090E0CF
:1017D000981751F12D9121939F5FFACF8091470384
:1017E00090914803A0914903B0914A03892B8A2B19
:1017F0008B2B09F48DCF0E94330220914703309147
:1018000048034091490350914A03621973098409BE
:101810009509261737074807590708F079CF8091AF
:1018200046030E94580380E01092FA028093F90266
:101830008CE094E00E9478048F77282F30E094E0C9
:10184000359527959A95E1F7922F990F990F322E9A
:10185000391A330C380E8CE094E00E9478049C0115
:1018600044E0359527954A95E1F72F703327922F5D
:10187000990F990F422E491A440C480E8CE094E0BF
:101880000E9478049C0154E0359527955A95E1F71C
:101890002F703327922F990F990F522E591A550CEA
:1018A000580E8CE094E00E9478048CE094E00E9452
:1018B00078049C0164E0359527956A95E1F72F70CF
:1018C0003327922F990F990FE22EE91AEE0CE80EAA
:1018D0008CE094E00E9478049C0174E03595279593
:1018E0007A95E1F72F703327922F990F990FF22EE7
:1018F000F91AFF0CF80E8CE094E00E9478041F9215
:101900003F921F924F921F925F921F92EF921F92EF
:10191000FF929C01E4E035952795EA95E1F72F7059
:101920003327922F990F990F291B220F820F90E0D6
:101930008053984F9F938F93BF92AF921F930F93B3
:101940000E946C0FB80188E194E00E940005B80184
:101950008FE693E00E9400050FB6F894DEBF0FBE3D
:10196000CDBF8114910409F43FCE0E944401882325
:1019700009F434CE0E94000031CEC092BC0013CFD7
:101980008091470390914803A0914903B0914A0385
:10199000892B8A2B8B2B09F40ACF0E9433022091CA
:1019A0004703309148034091490350914A0362191B
:1019B000730984099509261737074807590708F05E
:1019C000F6CE2DCF87E0FFCE8EE291E09093190402
:1019D000809318048091F3029091F402885194400E
:1019E00071F4E0912B04F0912C04908180912D04EE
:1019F0008095892380831092F4021092F302089557
:101A0000FB01DC0102C005900D9241505040D8F717
:101A100008952F923F924F925F926F927F928F9292
:101A20009F92AF92BF92CF92DF92EF92FF920F936D
:101A30001F93CF93DF93CDB7DEB7CA1BDB0B0FB677
:101A4000F894DEBF0FBECDBF09942A883988488834
:101A50005F846E847D848C849B84AA84B984C884CA
:101A6000DF80EE80FD800C811B81AA81B981CE0FC1
:101A7000D11D0FB6F894DEBF0FBECDBFED010895A6
:101A8000991B79E004C0991F961708F0961B881FD0
:101A90007A95C9F78095089597FB072E16F4009460
:101AA00007D077FD09D00E94660D07FC05D03EF4F3
:101AB000909581959F4F0895709561957F4F0895FA
:101AC000EE0FFF1F0590F491E02D0994AA1BBB1B9C
:101AD00051E107C0AA1FBB1FA617B70710F0A61B2E
:101AE000B70B881F991F5A95A9F780959095BC014F
:101AF000CD0108950F931F93CF93DF93823091050B
:101B000010F482E090E0E0913904F0913A0430E082
:101B100020E0B0E0A0E0309799F42115310509F4F8
:101B20004AC0281B390B24303105D8F58A819B81A6
:101B30006115710589F1FB0193838283FE0111C058
:101B4000408151810281138148175907E0F04817FD
:101B5000590799F4109761F012960C931297139607
:101B60001C933296CF01DF91CF911F910F91089571
:101B70000093390410933A04F4CF2115310551F044
:101B80004217530738F0A901DB019A01BD01DF01BB
:101B9000F801C1CFEF01F9CF90933A048093390453
:101BA000CDCFFE01E20FF31F8193919322503109B3
:101BB00039832883D7CF2091370430913804232BE1
:101BC00041F42091020130910301309338042093B5
:101BD000370420910001309101012115310541F4B4
:101BE0002DB73EB74091040150910501241B350BE0
:101BF000E0913704F0913804E217F307A0F42E1BAC
:101C00003F0B2817390778F0AC014E5F5F4F241760
:101C1000350748F04E0F5F1F509338044093370448
:101C2000819391939FCFF0E0E0E09CCFCF93DF933F
:101C30000097E9F0FC01329713821282A0913904D7
:101C4000B0913A04ED0130E020E01097A1F420813A
:101C50003181820F931F2091370430913804281767
:101C6000390709F061C0F0933804E0933704DF913D
:101C7000CF910895EA01CE17DF07E8F54A815B812D
:101C80009E0141155105B1F7E901FB83EA834991B2
:101C90005991C40FD51FEC17FD0761F48081918124
:101CA0000296840F951FE90199838883828193812D
:101CB0009B838A83F0E0E0E012968D919C911397CC
:101CC0000097B9F52D913C911197CD010296820FA5
:101CD000931F20913704309138042817390739F6BB
:101CE000309751F510923A0410923904B0933804A9
:101CF000A0933704BCCFD383C28340815181840F2A
:101D0000951FC817D90761F44E5F5F4F888199818D
:101D1000480F591F518340838A819B81938382831B
:101D20002115310509F0B0CFF0933A04E09339045E
:101D30009ECFFD01DC01C0CF13821282D7CFB0E06D
:101D4000A0E0E5EAFEE00C940B0D8C01009751F445
:101D5000CB010E947A0D8C01C801CDB7DEB7E0E15E
:101D60000C94270DFC01E60FF71F9C01225031094E
:101D7000E217F30708F49DC0D901CD91DC911197CA
:101D8000C617D70798F0C530D10530F3CE010497B8
:101D90008617970708F3C61BD70B2297C193D193D9
:101DA0006D937C93CF010E94160ED6CF5B01AC1AC7
:101DB000BD0A4C018C0E9D1EA0913904B0913A04CD
:101DC000512C412CF12CE12C109731F580913704E6
:101DD000909138048815990509F05CC0461657069D
:101DE00008F058C08091000190910101009741F4E2
:101DF0008DB79EB74091040150910501841B950B4E
:101E0000E817F90708F055C0F0933804E093370459
:101E1000F90171836083A0CF8D919C9111971296E7
:101E20006C90129713967C901397A815B90559F5E5
:101E30006C0142E0C40ED11CCA14DB0420F1AC01D9
:101E40004A195B09DA011296159780F06282738253
:101E500051834083D9016D937C93E114F10471F0B7
:101E6000D7011396FC93EE93129776CF22968C0FA0
:101E70009D1FF90191838083F301EFCFF0933A0422
:101E8000E093390469CF4816590608F42C017D0106
:101E9000D3019ACFCB010E947A0D7C01009749F0C3
:101EA000AE01B8010E945C0FC8010E94160E8701A6
:101EB00053CF10E000E050CFFB01DC0102C00190E5
:101EC0000D9241505040D8F70895FB01DC0101907C
:101ED0000D920020E1F70895AEE0B0E0E2E7FFE008
:101EE0000C94170D0D891E8986E08C831A83098353
:101EF0008FEF9FE79E838D83AE01475E5F4F6F89B3
:101F0000788DCE0101960E948F0F2F813885020FA8
:101F1000131FF80110822E96E4E00C94330DABE011
:101F2000B0E0E5E9FFE00C94090D7C013B018A017A
:101F3000FC0117821682838181FFC8C1CE01019600
:101F40005C01F7019381F30193FD859193FF8191EA
:101F50003F01882309F453C1853239F493FD8591FB
:101F600093FF81913F01853229F4B70190E00E94EF
:101F70007F11E7CF912C212C312CFFE1F31538F0A4
:101F80008B3211F190F4803209F1833229F137FC60
:101F90003CC020ED280F2A3050F536FE20C08AE0E4
:101FA000989E200D1124922E06C08D3291F0803320
:101FB00071F7689430F8F30193FD859193FF819157
:101FC0003F018111DACF21C0689431F8689432F86A
:101FD000F2CF689433F8EFCF689434F8ECCFEAE0AE
:101FE0002E9E200D1124222E689435F8E4CF8E32D7
:101FF00029F436FC04C1689436F8DDCF8C3619F428
:10200000689437F8D8CF8836B1F2982F9F7D9554D1
:102010009330E0F08336A1F18337C1F1833509F0C5
:1020200063C02801F2E04F0E511CF801C080D1803E
:10203000692D70E036FC02C06FEF7FEFC6010E9491
:1020400069114C01689437F882010AC00C5F1F4F78
:10205000FFE3F98388248394912C6501E89437F891
:1020600033FE2DC0522C8114910471F5552009F4D2
:1020700068CFB70180E290E00E947F115A94F6CFBA
:10208000F801808189830E5F1F4FE4CF2801F2E0C1
:102090004F0E511CF801C080D180692D70E036FCD4
:1020A00002C06FEF7FEFC6010E9474114C018201E4
:1020B000D5CFB70180E290E00E947F112A942814C6
:1020C000190409F0B0F7CECFF60137FC859137FE41
:1020D00081916F01B70190E00E947F1151105A94D5
:1020E000F1E08F1A9108BFCF843619F0893609F0D4
:1020F00077C0F80137FE6BC0608171818281938166
:102100000C5F1F4FF32DFF763F2E97FF09C0909570
:102110008095709561957F4F8F4F9F4F689437F8EA
:102120002AE030E0A5010E94AF11C82ECA188C2CFD
:10213000432C36FE0CC0E89440F8C91440F434FE39
:1021400005C032FC03C0F32DFE7E4F2E892C44FEC9
:1021500095C0FE01EC0DF11D8081803309F087C030
:10216000242D297E422E842D8870582E43FC95C044
:1021700040FE8FC09C2C821418F42C0C922C9818C2
:1021800044FE91C0B70180E390E00E947F1142FEBF
:1021900009C088E790E041FE02C088E590E0B70101
:1021A0000E947F11C91408F48AC0CA94D12C9FEFF1
:1021B000C91AD90ACA0CDB1CF60182916F01B7015A
:1021C00090E00E947F11AC14BD04B1F74FCF608145
:1021D0007181072E000C880B990B0E5F1F4F92CF59
:1021E000D32CE894D4F82AE030E0853739F1232D58
:1021F000297FD22E8F3601F148F48835A9F0F701F6
:10220000868197812B96E2E10C94250D803749F069
:102210008837A9F7D4FE02C06894D2F820E130E0F4
:102220000DC06894D4F8F6CF34FE03C0822F8660C8
:10223000D82E20E132E002C028E030E0F801D7FEDD
:102240000FC060817181828193810C5F1F4FA50156
:102250000E94AF11C82ECA183D2CE89437F867CFFA
:102260006081718190E080E00E5F1F4FF0CF42FCF3
:1022700002C0839478CF8394839475CF842D86781D
:1022800009F471CFF6CFB70180E290E00E947F1190
:1022900083948214C0F3512C73CF522C581882149B
:1022A00008F46ECFF8CF842D867809F47BCF8BE2CB
:1022B00041FE80E247FC8DE2B70190E071CFB701AB
:1022C00080E390E00E947F119A946CCF8FEF9FEF94
:1022D00099CFFC010590615070400110D8F78095AE
:1022E00090958E0F9F1F0895FC01615070400190E2
:1022F0000110D8F7809590958E0F9F1F08950F932A
:102300001F93CF93DF93182F092FEB018B8181FD52
:1023100009C01FEF0FEF812F902FDF91CF911F91F9
:102320000F91089582FF14C02E813F818C819D8181
:10233000281739073CF4E881F981CF010196998388
:10234000888310838E819F8101969F838E83E3CF44
:10235000E885F985812F0995892BA1F3DACFFA0158
:10236000AA27283051F1203181F1E8946F936E7FD4
:102370006E5F7F4F8F4F9F4FAF4FB1E03ED0B4E0C5
:102380003CD0670F781F891F9A1FA11D680F791F06
:102390008A1F911DA11D6A0F711D811D911DA11D17
:1023A00020D009F468943F912AE0269F1124301927
:1023B000305D3193DEF6CF010895462F4770405DC2
:1023C0004193B3E00FD0C9F7F6CF462F4F70405D71
:1023D0004A3318F0495D31FD4052419302D0A9F7CC
:1023E000EACFB4E0A6959795879577956795BA95C6
:1023F000C9F700976105710508959B01AC010A2E8C
:1024000006945795479537952795BA95C9F7620F62
:10241000731F841F951FA01D089510E0CDE6D0E026
:1024200004C0FE010E94600D2196CE36D107C9F787
:10243000F894FFCF00003B048000000000007A0108
:102440009A00C700C7013801D6002A010000000029
:10245000BF049204EE0470028B0478046904000047
:10246000000071029A00EE047002CD02E5025802EB
:102470000D0A0020202020202020202020202020A5
:10248000202020202020202020202020202020204C
:1024900020202A2A2A2A2A2A2A2A2A2A2A2A2A2AB0
:1024A0002A2A2A2A2A2A2A2A2A00202020202020F2
:1024B000202020202020202020202020202020201C
:1024C0002020202020202020202A2047534D204D4E
:1024D00045535341474520546F2045564443202AD5
:1024E0000020204D616368696E65494420202020EA
:1024F00020202053746174696F6E204E616D6520D9
:102500002020202020202044657374696E61746946
:102510006F6E202020202020202054696D6520200F
:1025200020202020202020202020446174650020CD
:10253000203D3D3D3D3D3D3D3D3D20202020202096
:10254000203D3D3D3D3D3D3D3D3D3D3D3D2020202F
:1025500020202020203D3D3D3D3D3D3D3D3D3D3D3C
:1025600020202020202020203D3D3D3D20202020F7
:1025700020202020202020203D3D3D3D00253034DE
:10258000642D253032642D25303264542530326478
:0C2590003A253032643A253032645A009B
:107E0000112484B714BE81FFF0D085E080938100F7
:107E100082E08093C00088E18093C10086E0809377
:107E2000C20080E18093C4008EE0C9D0259A86E02C
:107E300020E33CEF91E0309385002093840096BBD3
:107E4000B09BFECF1D9AA8958150A9F7CC24DD24C4
:107E500088248394B5E0AB2EA1E19A2EF3E0BF2EE7
:107E6000A2D0813461F49FD0082FAFD0023811F036
:107E7000013811F484E001C083E08DD089C08234E0
:107E800011F484E103C0853419F485E0A6D080C0E4
:107E9000853579F488D0E82EFF2485D0082F10E0AE
:107EA000102F00270E291F29000F111F8ED06801E7
:107EB0006FC0863521F484E090D080E0DECF843638
:107EC00009F040C070D06FD0082F6DD080E0C81688
:107ED00080E7D80618F4F601B7BEE895C0E0D1E017
:107EE00062D089930C17E1F7F0E0CF16F0E7DF06D8
:107EF00018F0F601B7BEE89568D007B600FCFDCFD4
:107F0000A601A0E0B1E02C9130E011968C91119780
:107F100090E0982F8827822B932B1296FA010C0160
:107F200087BEE89511244E5F5F4FF1E0A038BF0790
:107F300051F7F601A7BEE89507B600FCFDCF97BE46
:107F4000E89526C08437B1F42ED02DD0F82E2BD052
:107F50003CD0F601EF2C8F010F5F1F4F84911BD097
:107F6000EA94F801C1F70894C11CD11CFA94CF0C13
:107F7000D11C0EC0853739F428D08EE10CD085E9AC
:107F80000AD08FE07ACF813511F488E018D01DD067
:107F900080E101D065CF982F8091C00085FFFCCF94
:107FA0009093C60008958091C00087FFFCCF809118
:107FB000C00084FD01C0A8958091C6000895E0E648
:107FC000F0E098E1908380830895EDDF803219F02E
:107FD00088E0F5DFFFCF84E1DECF1F93182FE3DFCA
:107FE0001150E9F7F2DF1F91089580E0E8DFEE27F6
:047FF000FF270994CA
:027FFE00040479
:00000001FF
