:100000000C9463000C948B000C948B000C94BF0236
:100010000C94BF020C94BF020C948B000C948B00C8
:100020000C948B000C948B000C948B000C948B0024
:100030000C948B000C948B000C948B000C948B0014
:100040000C9431060C948B000C948D020C94670276
:100050000C948B000C948B000C948B000C948B00F4
:100060000C948B000C948B000000000024002700EF
:100070002A0000000000250028002B0000000000DE
:1000800023002600290004040404040404040202DA
:100090000202020203030303030301020408102007
:1000A0004080010204081020010204081020000012
:1000B0000008000201000003040700000000000027
:1000C0000000F609E00911241FBECFEFD8E0DEBF23
:1000D000CDBF23E0A6E7B2E001C01D92A23CB2076B
:1000E000E1F712E0A0E0B1E0E2EEFAE102C0059033
:1000F0000D92A637B107D9F710E0C2E6D0E004C0F0
:100100002197FE010E94620BC136D107C9F70E94F8
:100110007B060C94640D0C9400000895CF92DF923E
:10012000EF92FF920F931F93CF93DF936C017A01AD
:100130008B01C0E0D0E0CE15DF0581F0D8016D91D4
:100140008D01D601ED91FC910190F081E02DC60169
:100150000995892B11F02196EECF7E01C701DF9121
:10016000CF911F910F91FF90EF90DF90CF90089566
:10017000FC01538D448D252F30E0842F90E0821BAD
:10018000930B541710F0CF96089501970895FC0132
:10019000918D828D981761F0828DDF01A80FB11DBE
:1001A0005D968C91928D9F5F9F73928F90E00895E2
:1001B0008FEF9FEF0895FC01918D828D981731F09C
:1001C000828DE80FF11D858D90E008958FEF9FEFF0
:1001D0000895FC01918D228D892F90E0805C9F4FC6
:1001E000821B91098F73992708958CE792E00E94F2
:1001F000E90021E0892B09F420E0822F0895FC0119
:10020000848DDF01A80FB11DA35ABF4F2C91848D9F
:1002100090E001968F739927848FA689B7892C93D4
:10022000A089B1898C91837080648C93938D848D27
:10023000981306C00288F389E02D80818F7D80832A
:100240000895EF92FF920F931F93CF93DF93EC01EA
:1002500081E0888F9B8D8C8D981305C0E889F98982
:10026000808185FD26C0F62E0B8D10E00F5F1F4F9D
:100270000F731127E02E8C8DE8120CC00FB607FC0F
:10028000FACFE889F989808185FFF5CFCE010E94F8
:10029000FF00F1CF8B8DFE01E80FF11DE35AFF4FF8
:1002A000F0829FB7F8940B8FEA89FB898081806286
:1002B0000AC09FB7F894EE89FF896083E889F989BD
:1002C00080818370806480839FBF81E090E0DF91B4
:1002D000CF911F910F91FF90EF900895CF93DF93EF
:1002E000EC01888D8823C9F0EA89FB89808185FD2E
:1002F00005C0A889B9898C9186FD0FC00FB607FC8F
:10030000F5CF808185FFF2CFA889B9898C9185FFCF
:10031000EDCFCE010E94FF00E7CFDF91CF9108958E
:1003200080E090E0892B29F00E94F50081110C9467
:100330000000089580E090E00895CF93DF93EC01F2
:1003400060E08E810E94EA0461E08E810E94EA04EE
:1003500060E08E810E94EA048BE891E00197F1F75A
:10036000DF91CF9108950E944F0DFC018081918112
:100370000C94000CEF92FF920F931F93CF93DF9397
:10038000EC017B018A0188819981009729F02A81FB
:100390003B8124173507F8F4B8016F5F7F4F0E9447
:1003A000890C009759F0998388831B830A832C81D9
:1003B0003D81232B81F4FC0110820DC0888199813D
:1003C000009711F00E94000C198218821D821C8275
:1003D0001B821A8207C01D830C83B7018881998113
:1003E0000E945D0DCE01DF91CF911F910F91FF9083
:1003F000EF900895CF93DF93EC016115710559F0EB
:10040000FB0101900020E9F73197AF01461B570B24
:100410000E94BA010CC088819981009711F00E9456
:10042000000C198218821D821C821B821A82CE0146
:10043000DF91CF910895FC01118210821382128204
:10044000158214826115710551F0FB0101900020A5
:10045000E9F73197AF01461B570B0C94BA01089589
:10046000DB0114964D915C9115976D917C91DC01A7
:10047000ED91FC910280F381E02D099461157105E5
:1004800079F0FB0101900020E9F73197AF01461B9D
:10049000570BDC01ED91FC910280F381E02D099472
:1004A00080E090E008950F931F93CF93DF93EC01CA
:1004B0000E943E028C0164E271E0CE010E943E0285
:1004C000800F911FDF91CF911F910F9108951F927F
:1004D0000F920FB60F9211242F933F934F935F9378
:1004E0006F937F938F939F93AF93BF93EF93FF93FC
:1004F0008CE792E00E94FF00FF91EF91BF91AF91D6
:100500009F918F917F916F915F914F913F912F912B
:100510000F900FBE0F901F9018951F920F920FB65D
:100520000F9211242F938F939F93EF93FF93E0915A
:100530008C02F0918D028081E0919202F091930201
:1005400082FD12C09081809195028F5F8F73209100
:100550009602821751F0E0919502F0E0E458FD4FC9
:10056000958F8093950201C08081FF91EF919F91BB
:100570008F912F910F900FBE0F901F9018951F9283
:100580000F920FB60F9211240F900FBE0F901F9075
:100590001895CF92DF92EF92FF920F931F93CF9314
:1005A000DF936C017C0187E0E80EF11CC0E0D0E035
:1005B000062F10E0B8010C2E02C0759567950A94BD
:1005C000E2F76170F70181917F010E94EA042196B0
:1005D000C430D10579F7C601DF91CF911F910F91FA
:1005E000FF90EF90DF90CF900C949D01CF92DF921F
:1005F000EF92FF920F931F93CF93DF93EC01F62EB0
:10060000642F8C810E94EA048D818F3F19F060E095
:100610000E94EA048F850F2D10E084FF25C06E0133
:1006200087E0C80ED11CE12CF12CB8010E2C02C0C1
:10063000759567950A94E2F76170F60181916F01F3
:100640000E94EA04FFEFEF1AFF0A88E0E816F104BF
:1006500061F7CE01DF91CF911F910F91FF90EF9045
:10066000DF90CF900C949D01B80184E0759567955B
:100670008A95E1F7CE010E94C9026F2DCE01DF916C
:10068000CF911F910F91FF90EF90DF90CF900C943E
:10069000C90241E00E94F60281E090E008958F9245
:1006A0009F92AF92BF92CF92DF92EF92FF920F9301
:1006B0001F93CF93DF93CDB7DEB7A1970FB6F89412
:1006C000DEBF0FBECDBF8C0167E271E089E193E030
:1006D0000E943E026801012E000CEE08FF08F7FEA2
:1006E00026C041E06DE289E193E00E94F6022227F4
:1006F0003327A9012C193D094E095F0919A2CE0122
:1007000081967C019AE0892E912CA12CB12CCA01F2
:10071000B901A50194010E942C0B605DF701629361
:100720007F01211531054105510589F71AC0A7013F
:10073000960119A2CE0181967C018AE0882E912C27
:10074000A12CB12CCA01B901A50194010E942C0B66
:10075000605DF70162937F01211531054105510567
:1007600089F7B70189E193E00E943E026AE271E0F5
:1007700089E193E00E943E020150110926E0209F8A
:10078000C001219F900D11248F5C9C4F0E94370463
:10079000A1960FB6F894DEBF0FBECDBFDF91CF910B
:1007A0001F910F91FF90EF90DF90CF90BF90AF908F
:1007B0009F908F900895833081F028F4813099F0D4
:1007C0008230A1F008958730A9F08830B9F08430E4
:1007D000D1F4809180008F7D03C0809180008F775D
:1007E00080938000089584B58F7702C084B58F7D93
:1007F00084BD08958091B0008F7703C08091B000D0
:100800008F7D8093B00008953FB7F8948091BA032C
:100810009091BB03A091BC03B091BD0326B5A89BEA
:1008200005C02F3F19F00196A11DB11D3FBFBA2F82
:10083000A92F982F8827820F911DA11DB11DBC01E2
:10084000CD0142E0660F771F881F991F4A95D1F7A7
:10085000089540E0682F89E193E00C94F60281E06E
:100860000E9429048BE39FE10197F1F70895CF934C
:10087000DF93BC0189E193E00E943002EC0164E265
:1008800071E089E193E00E943E028C0F9D1FDF9191
:10089000CF910895643008F063E090912C036917BC
:1008A00010F06FEF690FE62FF0E0E75EFC4F9489E0
:1008B000890F80680C9429040F931F93CF93DF93C3
:1008C0008C01EB01FC01808191810097B1F068817E
:1008D00079816115710579F0428153812C813D81C7
:1008E0004217530740F00E945D0D8C819D81F801F5
:1008F0009583848313C00E94000C88819981F8013C
:10090000918380838A819B81938382838C819D8163
:1009100095838483198218821B821A821D821C820D
:10092000DF91CF911F910F9108950F931F93CF9354
:10093000DF93CDB7DEB762970FB6F894DEBF0FBE78
:10094000CDBF8C01CB01F80111821082138212827B
:10095000158214824AE0BE016F5F7F4F0E94AC0A8D
:10096000BE016F5F7F4FC8010E94FA0162960FB609
:10097000F894DEBF0FBECDBFDF91CF911F910F91D5
:100980000895CF93DF93282F30E0F901E255FF4F10
:100990008491F901E656FF4FD491F901EA57FF4FD0
:1009A000C491CC2391F081110E94DB03EC2FF0E085
:1009B000EE0FFF1FE458FF4FA591B491EC91ED238A
:1009C00081E090E021F480E002C080E090E0DF91DF
:1009D000CF9108951F93CF93DF93282F30E0F90133
:1009E000E255FF4F8491F901E656FF4FD491F9018A
:1009F000EA57FF4FC491CC23C1F0162F81110E94FA
:100A0000DB03EC2FF0E0EE0FFF1FEE58FF4FA59138
:100A1000B4919FB7F894111104C08C91D095D8234C
:100A200002C0EC91DE2BDC939FBFDF91CF911F9131
:100A30000895CF93DF9390E0FC01E656FF4F249199
:100A4000FC01EA57FF4F8491882361F190E0880F01
:100A5000991FFC01E859FF4FC591D491FC01EE5854
:100A6000FF4FA591B491611109C09FB7F894888197
:100A7000209582238883EC912E230BC0623061F491
:100A80009FB7F8948881322F309583238883EC9127
:100A90002E2B2C939FBF06C08FB7F894E8812E2B86
:100AA00028838FBFDF91CF910895CF93DF9362307A
:100AB00028F09091280398609093280360932C036A
:100AC00010922D0390E490932E0380932F0390E0D7
:100AD000805C9F4F8093300361E080911D030E94F2
:100AE000190580911E038F3F19F061E00E941905DE
:100AF00061E080911F030E941905C9E1D3E09E01C6
:100B0000295133408091280384FD03C084E090E0A4
:100B100002C088E090E02196281739072CF461E0A4
:100B20008E810E941905EBCF8BE39DE00197F1F7D1
:100B300060E080911D030E94EA0460E080911F0341
:100B40000E94EA0480911E038F3F19F060E00E942A
:100B5000EA048091280384FD20C063E089E193E0EA
:100B60000E94C902CBE4D6E4CE010197F1F763E01D
:100B700089E193E00E94C9022197F1F763E089E1DE
:100B800093E00E94C90283E592E00197F1F762E0E9
:100B900089E193E00E94C90215C080620E94290485
:100BA0008BE496E40197F1F78091280380620E941C
:100BB000290483E592E00197F1F780912803806290
:100BC0000E9429048091280380620E94290484E005
:100BD000809329038CE00E9429040E942F0482E064
:100BE00080932A0386E0DF91CF910C9429048F92A1
:100BF0009F92AF92BF92CF92DF92EF92FF926B01E2
:100C00007C010E9404044B015C01C114D104E10485
:100C1000F104F1F00E940404DC01CB018819990968
:100C2000AA09BB09883E9340A105B10570F321E0F4
:100C3000C21AD108E108F10888EE880E83E0981EF8
:100C4000A11CB11CC114D104E104F10419F7DDCFDA
:100C5000FF90EF90DF90CF90BF90AF909F908F90DC
:100C600008951F920F920FB60F9211242F933F9366
:100C70008F939F93AF93BF938091B6039091B703E7
:100C8000A091B803B091B9033091B50323E0230FCD
:100C90002D3720F40196A11DB11D05C026E8230FB4
:100CA0000296A11DB11D2093B5038093B6039093C6
:100CB000B703A093B803B093B9038091BA0390919E
:100CC000BB03A091BC03B091BD030196A11DB11D52
:100CD0008093BA039093BB03A093BC03B093BD036E
:100CE000BF91AF919F918F913F912F910F900FBE28
:100CF0000F901F901895CF93DF93CDB7DEB72C9749
:100D00000FB6F894DEBF0FBECDBF789484B5826075
:100D100084BD84B5816084BD85B5826085BD85B59F
:100D2000816085BD80916E00816080936E0010921D
:100D30008100809181008260809381008091810098
:100D40008160809381008091800081608093800029
:100D50008091B10084608093B1008091B000816087
:100D60008093B00080917A00846080937A008091B3
:100D70007A00826080937A0080917A00816080930B
:100D80007A0080917A00806880937A001092C10086
:100D900060E081E00E94190560E082E00E94190590
:100DA00060E083E00E94190560E084E00E9419057C
:100DB00060E085E00E94190560E086E00E94190568
:100DC00060E087E00E94190560E08EE00E9419054E
:100DD00060E08FE00E94190560E080E10E94190543
:100DE00061E081E10E9419056DE271E089EA93E01A
:100DF0000E94FA0162E371E08FEA93E00E94FA0137
:100E000087E090E0909379028093780264E084E137
:100E10000E945505E0918C02F0918D0282E0808362
:100E2000E0918802F09189021082E0918A02F091AB
:100E30008B028FEC808310929402E0919002F091EB
:100E4000910286E08083E0918E02F0918F02808192
:100E500080618083E0918E02F0918F0280818860B2
:100E60008083E0918E02F0918F0280818068808380
:100E7000E0918E02F0918F0280818F7D808364EFFC
:100E800071E080E090E00E94F70564E271E08CE799
:100E900092E00E943E0269E371E08CE792E00E94DA
:100EA000530260E671E08CE792E00E94530268EE24
:100EB00073E080E090E00E94F7050E942F0483E039
:100EC000C82ED12C9AE0A92EB12C2AE0F22E66E28F
:100ED00071E0CE0107960E941B02D0927B02C09265
:100EE0007A020E942F0400E010E08EE00E94C1040C
:100EF000892B09F065C162E370E080E090E00E9418
:100F0000F7058FE00E94C1040197A1F4C801B50163
:100F10000E94180B8B01CE0101960E949504BE0120
:100F20006F5F7F4FCE0107960E945C04CE01019651
:100F30000E94B50180E10E94C104019709F437C203
:100F40000115110509F433C281E00E94C104019723
:100F5000C1F4F09EC001F19E900D11248C010F5F31
:100F60001F4FB801CE0101960E949504BE016F5F2C
:100F70007F4FCE0107960E945C04CE0101960E942D
:100F8000B50182E00E94C1040197C1F4F09EC00146
:100F9000F19E900D11248C010E5F1F4FB801CE0100
:100FA00001960E949504BE016F5F7F4FCE010796A8
:100FB0000E945C04CE0101960E94B50183E00E946C
:100FC000C1040197C1F4F09EC001F19E900D11245F
:100FD0008C010D5F1F4FB801CE0101960E94950450
:100FE000BE016F5F7F4FCE0107960E945C04CE0169
:100FF00001960E94B50184E00E94C1040197C1F4EA
:10100000F09EC001F19E900D11248C010C5F1F4FCA
:10101000B801CE0101960E949504BE016F5F7F4F1B
:10102000CE0107960E945C04CE0101960E94B50194
:1010300085E00E94C1040197C1F4F09EC001F19EB9
:10104000900D11248C010B5F1F4FB801CE0101964A
:101050000E949504BE016F5F7F4FCE0107960E94EC
:101060005C04CE0101960E94B50186E00E94C10495
:101070000197C1F4F09EC001F19E900D11248C01E6
:101080000A5F1F4FB801CE0101960E949504BE0170
:101090006F5F7F4FCE0107960E945C04CE010196E0
:1010A0000E94B50187E00E94C1040197C1F4F09E3F
:1010B000C001F19E900D11248C01095F1F4FB801F2
:1010C000CE0101960E949504BE016F5F7F4FCE0155
:1010D00007960E945C04CE0101960E94B50161E072
:1010E0008FE00E944A0467E871E089E193E00E9482
:1010F000530262E08FE00E944A046DE871E089E1EA
:1011000093E00E94530263E08FE00E944A046BE286
:1011100072E089E193E00E94530263E08FE00E9455
:101120004A04CE0107960E94370460E080E00E94E6
:101130004A0463E971E089E193E00E94530261E0AF
:1011400080E00E944A0480917A0290917B0202978B
:101150000E944F0362E080E00E944A0480917A027C
:1011600090917B0201970E944F0363E080E00E9410
:101170004A0480917A0290917B020E944F036CE2B4
:1011800071E080E090E00E94F70580917A029091F2
:101190007B02019690937B0280937A0220917802E1
:1011A000309179022817390724F4D0927B02C0923B
:1011B0007A0264E670E080E090E00E94F70595CE48
:1011C0000E942F0460E081E00E944A0467EA71E017
:1011D00089E193E00E94530261E081E00E944A04A9
:1011E00067EB71E089E193E00E943E021016110660
:1011F0000CF0C6C080917802909179028017910717
:101200000CF4BEC061E081E10E94EA0462E085E086
:101210000E944A040150110926E0209FC001219F2D
:10122000900D11248C010F5C1C4FC8010E943704E3
:1012300063E088E00E944A0410927B0210927A02D6
:1012400080917A0290917B0203970CF04AC063E090
:1012500088E00E944A0469EC71E089E193E00E9411
:10126000530268EC70E080E090E00E94F70563E0D4
:1012700088E00E944A0465ED71E089E193E00E94F4
:10128000530268EC70E080E090E00E94F70563E0B4
:1012900088E00E944A0461EE71E089E193E00E94D7
:1012A000530268EC70E080E090E00E94F70563E094
:1012B00088E00E944A046DEE71E089E193E00E94AB
:1012C000530268EC70E080E090E00E94F7058091A6
:1012D0007A0290917B02019690937B0280937A022E
:1012E000AFCF60E081E10E94EA0461E081E00E940A
:1012F0004A0469EF71E089E193E00E94530262E0E1
:1013000081E00E944A046EE072E089E193E00E946D
:10131000530263E085E00E944A0462E272E089E1E0
:1013200093E00E943E02C8010E94370469E272E025
:1013300089E193E00E9453026EE272E08CE792E052
:101340000E943E0269EA73E08CE792E00E9430025C
:1013500068E272E08CE792E00E943E026FEA73E07E
:101360008CE792E00E94300266E272E08CE792E045
:101370000E943E02B8018CE792E00E9430020AC04F
:1013800062E081E00E944A0461E372E089E193E057
:101390000E94530260ED77E080E090E00E94F70544
:1013A000CE0107960E94B5010E94900190CD66E2A1
:1013B00071E0CE0107960E94FA0100E010E0C4CD72
:1013C000CF93DF93C9EAD3E02697CE010E94B501FF
:1013D00083E0C133D807C1F789EA93E00E94B501E1
:1013E0008FEA93E0DF91CF910C94B501CF93DF9317
:1013F00010927F0210927E0288EE93E0A0E0B0E0AF
:101400008093800290938102A0938202B093830222
:101410008AE091E090937D0280937C0285EC90E0DD
:10142000909389028093880284EC90E090938B02E1
:1014300080938A0280EC90E090938D0280938C02DE
:1014400081EC90E090938F0280938E0282EC90E08A
:10145000909391028093900286EC90E09093930297
:101460008093920210929502109296021092970227
:101470001092980266E271E08FEA93E00E941B02EC
:1014800066E271E089EA93E00E941B0265E472E083
:1014900081E393E00E941B026CE472E087E393E037
:1014A0000E941B0263E572E08DE393E00E941B0241
:1014B0006AE572E083E493E00E941B0261E672E059
:1014C00089E493E00E941B0268E672E08FE493E0F7
:1014D0000E941B026FE672E085E593E00E941B020A
:1014E000C0E0D0E066E271E0CE01855A9C4F0E94D8
:1014F0001B022696CE34D105A9F710921C03109238
:101500001B038CE191E090931A03809319038DE003
:1015100080931D038FEF80931E038CE080931F0345
:101520008BE0809320038AE08093210389E08093FD
:10153000220388E080932303109224031092250352
:1015400010922603109227031092280361E080E195
:10155000DF91CF910C945505BB274A3031F4992384
:1015600022F4BDE2909581959F4F0C94B80ABB2759
:10157000FB015527AA27880F991FAA1FA41710F04F
:10158000A41B83955051B9F7A05DAA3308F0A95D5B
:10159000A193009779F7B111B1931192CB010C94FB
:1015A000D10ADC01FC01672F71917723E1F73297B3
:1015B00004C07C916D9370836291AE17BF07C8F32E
:1015C00008952F923F924F925F926F927F928F92E7
:1015D0009F92AF92BF92CF92DF92EF92FF920F93C2
:1015E0001F93CF93DF93CDB7DEB7CA1BDB0B0FB6CC
:1015F000F894DEBF0FBECDBF09942A883988488889
:101600005F846E847D848C849B84AA84B984C8841E
:10161000DF80EE80FD800C811B81AA81B981CE0F15
:10162000D11D0FB6F894DEBF0FBECDBFED010895FA
:1016300097FB072E16F4009407D077FD09D00E947F
:101640004E0B07FC05D03EF4909581959F4F089571
:10165000709561957F4F0895A1E21A2EAA1BBB1BBE
:10166000FD010DC0AA1FBB1FEE1FFF1FA217B3076E
:10167000E407F50720F0A21BB30BE40BF50B661F84
:10168000771F881F991F1A9469F760957095809548
:1016900090959B01AC01BD01CF010895AA1BBB1B16
:1016A00051E107C0AA1FBB1FA617B70710F0A61B62
:1016B000B70B881F991F5A95A9F780959095BC0183
:1016C000CD010895EE0FFF1F0590F491E02D0994D0
:1016D0000F931F93CF93DF938230910510F482E034
:1016E00090E0E091C003F091C10320E030E0A0E081
:1016F000B0E0309719F14081518102811381481780
:101700005907C8F08417950769F4109731F01296BD
:101710000C93129713961C9327C00093C003109349
:10172000C10322C02115310519F04217530718F4DF
:101730009A01BD01EF01DF01F801DBCF2115310571
:10174000F9F0281B390B2430310580F48A819B8104
:101750006115710521F0FB019383828304C090938E
:10176000C1038093C003FE01329644C0FE01E20F24
:10177000F31F8193919322503109398328833AC012
:101780002091BE033091BF03232B41F4209102012D
:10179000309103013093BF032093BE0320910001D9
:1017A000309101012115310541F42DB73EB740912B
:1017B000040150910501241B350BE091BE03F0910B
:1017C000BF03E217F307A0F42E1B3F0B28173907BE
:1017D00078F0AC014E5F5F4F2417350748F04E0F8D
:1017E0005F1F5093BF034093BE038193919302C048
:1017F000E0E0F0E0CF01DF91CF911F910F910895CC
:10180000CF93DF93009709F481C0FC0132971382D4
:101810001282A091C003B091C103109781F420817E
:101820003181820F931F2091BE033091BF0328178F
:10183000390751F5F093BF03E093BE0367C0ED0194
:1018400020E030E0CE17DF0740F44A815B819E0143
:1018500041155105F1F0EA01F5CFD383C2834081F0
:101860005181840F951FC817D90759F48881998130
:10187000840F951F0296918380838A819B81938335
:1018800082832115310529F4F093C103E093C0034D
:101890003DC0E901FB83EA8349915991C40FD51FEB
:1018A000EC17FD0761F480819181840F951F0296EA
:1018B000E90199838883828193819B838A83E0E015
:1018C000F0E012968D919C911397009719F0FD010D
:1018D000DC01F7CF8D919C9111979D012E5F3F4FB9
:1018E000820F931F2091BE033091BF032817390741
:1018F00069F4309729F41092C1031092C00302C01A
:1019000013821282B093BF03A093BE03DF91CF91E5
:101910000895A0E0B0E0EFE8FCE00C94E50AEC01EB
:10192000009721F4CB010E94680BB4C0FC01E60FC4
:10193000F71F9C0122503109E217F30708F4A8C0F1
:10194000D9010D911C91119706171707B0F00530BA
:10195000110508F49BC0C80104978617970708F47F
:1019600095C002501109061B170B019311936D933B
:101970007C93CF010E94000C89C05B01A01AB10AC0
:101980004C01800E911EA091C003B091C103612C47
:10199000712CE12CF12C109709F446C08D919C918B
:1019A0001197A815B905B1F56C0142E0C40ED11C20
:1019B000CA14DB0478F14C018A189B08640142E0E8
:1019C000C40ED11C1296BC9012971396AC91B5E040
:1019D000CB16D10440F0B282A38391828082D901D8
:1019E0006D937C9309C00E5F1F4F800F911FF9010B
:1019F00091838083EB2DFA2FE114F10431F0D701AC
:101A00001396FC93EE93129741C0F093C103E093B9
:101A1000C0033CC06816790608F43C017D011296AB
:101A20000D90BC91A02DB7CF8091BE039091BF03C4
:101A300088169906E1F466167706C8F480910001CD
:101A400090910101009741F48DB79EB74091040138
:101A500050910501841B950BE817F907C8F4F09322
:101A6000BF03E093BE03F901718360830FC0CB0114
:101A70000E94680B7C01009759F0A801BE010E94EA
:101A8000540DCE010E94000CC70104C0CE0102C05B
:101A900080E090E0CDB7DEB7EEE00C94010B81E082
:101AA00090E0F8940C94640DFB01DC0102C00190FD
:101AB0000D9241505040D8F70895FB01DC01019090
:101AC0000D920020E1F7089510E0C2E6D0E004C0D6
:101AD000FE010E94620B2196C336D107C9F7F89424
:021AE000FFCF36
:101AE2000000C20380000000000021018E00B80047
:101AF2006E01E900C700DB000000000049038E0010
:101B02009A018D000D0A00205B005D20003030300C
:101B1200310053745F4F6E6500202020202020206A
:101B220020202020202020202020202047534D202C
:101B32004D65737361676520546F204556444300B9
:101B42002020202020202020202020202020202093
:101B52002020203D3D3D3D3D3D3D3D3D3D3D3D3D0A
:101B62003D3D3D3D3D3D00496E707574002D2D2D6E
:101B72002D2D002043686F6F73652044657374696F
:101B82006E6174696F6E00202020455644432053D5
:101B920065727669636500596F75206861766520A4
:101BA20063686F6F73656E20005072696E74696E40
:101BB20067202020005072696E74696E672E2020A3
:101BC200005072696E74696E672E2E200050726921
:101BD2006E74696E672E2E2E0020202020546861BC
:101BE2006E6B20796F752121202020202000486112
:101BF200766520412053616665204A6F75726E6575
:101C02007900546F20002020202020202020202036
:101C120000496E76616C69642044657374696E6113
:101C220074696F6E00646573745F31006465737408
:101C32005F3200646573745F3300646573745F348C
:101C420000646573745F3500646573745F360064A5
:061C52006573745F3700AA
:00000001FF
